{
	"DID.sol": {
		"DID": {
			"abi": [
				{
					"inputs": [
						{
							"internalType": "string",
							"name": "_hashedId",
							"type": "string"
						}
					],
					"stateMutability": "nonpayable",
					"type": "constructor"
				},
				{
					"inputs": [
						{
							"internalType": "string",
							"name": "_hashedId",
							"type": "string"
						}
					],
					"name": "deleteUser",
					"outputs": [],
					"stateMutability": "nonpayable",
					"type": "function"
				},
				{
					"inputs": [
						{
							"internalType": "string",
							"name": "_hashedId",
							"type": "string"
						}
					],
					"name": "getUser",
					"outputs": [
						{
							"components": [
								{
									"internalType": "string",
									"name": "email",
									"type": "string"
								},
								{
									"internalType": "string",
									"name": "password",
									"type": "string"
								},
								{
									"internalType": "bool",
									"name": "A",
									"type": "bool"
								},
								{
									"internalType": "bool",
									"name": "B",
									"type": "bool"
								},
								{
									"internalType": "bool",
									"name": "C",
									"type": "bool"
								},
								{
									"internalType": "bool",
									"name": "D",
									"type": "bool"
								}
							],
							"internalType": "struct IDID.User",
							"name": "",
							"type": "tuple"
						}
					],
					"stateMutability": "view",
					"type": "function"
				},
				{
					"inputs": [
						{
							"internalType": "string",
							"name": "_hashedId",
							"type": "string"
						}
					],
					"name": "isRegistered",
					"outputs": [
						{
							"internalType": "bool",
							"name": "",
							"type": "bool"
						}
					],
					"stateMutability": "view",
					"type": "function"
				},
				{
					"inputs": [
						{
							"internalType": "string",
							"name": "_hashedId",
							"type": "string"
						},
						{
							"components": [
								{
									"internalType": "string",
									"name": "email",
									"type": "string"
								},
								{
									"internalType": "string",
									"name": "password",
									"type": "string"
								},
								{
									"internalType": "bool",
									"name": "A",
									"type": "bool"
								},
								{
									"internalType": "bool",
									"name": "B",
									"type": "bool"
								},
								{
									"internalType": "bool",
									"name": "C",
									"type": "bool"
								},
								{
									"internalType": "bool",
									"name": "D",
									"type": "bool"
								}
							],
							"internalType": "struct IDID.User",
							"name": "_data",
							"type": "tuple"
						}
					],
					"name": "registerUser",
					"outputs": [],
					"stateMutability": "nonpayable",
					"type": "function"
				},
				{
					"inputs": [
						{
							"internalType": "string",
							"name": "_hashedId",
							"type": "string"
						},
						{
							"components": [
								{
									"internalType": "string",
									"name": "email",
									"type": "string"
								},
								{
									"internalType": "string",
									"name": "password",
									"type": "string"
								},
								{
									"internalType": "bool",
									"name": "A",
									"type": "bool"
								},
								{
									"internalType": "bool",
									"name": "B",
									"type": "bool"
								},
								{
									"internalType": "bool",
									"name": "C",
									"type": "bool"
								},
								{
									"internalType": "bool",
									"name": "D",
									"type": "bool"
								}
							],
							"internalType": "struct IDID.User",
							"name": "_data",
							"type": "tuple"
						}
					],
					"name": "updateUser",
					"outputs": [],
					"stateMutability": "nonpayable",
					"type": "function"
				}
			],
			"devdoc": {
				"kind": "dev",
				"methods": {},
				"version": 1
			},
			"evm": {
				"assembly": "    /* \"DID.sol\":80:1602  contract DID is IDID {... */\n  mstore(0x40, 0x80)\n    /* \"DID.sol\":202:330  constructor(string memory _hashedId){... */\n  callvalue\n  dup1\n  iszero\n  tag_1\n  jumpi\n  0x00\n  dup1\n  revert\ntag_1:\n  pop\n  mload(0x40)\n  sub(codesize, bytecodeSize)\n  dup1\n  bytecodeSize\n  dup4\n  codecopy\n  dup2\n  dup2\n  add\n  0x40\n  mstore\n  dup2\n  add\n  swap1\n  tag_2\n  swap2\n  swap1\n  tag_3\n  jump\t// in\ntag_2:\n    /* \"DID.sol\":266:323  User('yellow_w@gmail.com','1234',false,false,false,false) */\n  mload(0x40)\n  dup1\n  0xc0\n  add\n  0x40\n  mstore\n  dup1\n  mload(0x40)\n  dup1\n  0x40\n  add\n  0x40\n  mstore\n  dup1\n  0x12\n  dup2\n  mstore\n  0x20\n  add\n  0x79656c6c6f775f7740676d61696c2e636f6d0000000000000000000000000000\n  dup2\n  mstore\n  pop\n  dup2\n  mstore\n  0x20\n  add\n  mload(0x40)\n  dup1\n  0x40\n  add\n  0x40\n  mstore\n  dup1\n  0x04\n  dup2\n  mstore\n  0x20\n  add\n  0x3132333400000000000000000000000000000000000000000000000000000000\n  dup2\n  mstore\n  pop\n  dup2\n  mstore\n  0x20\n  add\n    /* \"DID.sol\":299:304  false */\n  0x00\n    /* \"DID.sol\":266:323  User('yellow_w@gmail.com','1234',false,false,false,false) */\n  iszero\n  iszero\n  dup2\n  mstore\n  0x20\n  add\n    /* \"DID.sol\":305:310  false */\n  0x00\n    /* \"DID.sol\":266:323  User('yellow_w@gmail.com','1234',false,false,false,false) */\n  iszero\n  iszero\n  dup2\n  mstore\n  0x20\n  add\n    /* \"DID.sol\":311:316  false */\n  0x00\n    /* \"DID.sol\":266:323  User('yellow_w@gmail.com','1234',false,false,false,false) */\n  iszero\n  iszero\n  dup2\n  mstore\n  0x20\n  add\n    /* \"DID.sol\":317:322  false */\n  0x00\n    /* \"DID.sol\":266:323  User('yellow_w@gmail.com','1234',false,false,false,false) */\n  iszero\n  iszero\n  dup2\n  mstore\n  pop\n    /* \"DID.sol\":248:252  user */\n  0x00\n    /* \"DID.sol\":253:262  _hashedId */\n  dup3\n    /* \"DID.sol\":248:263  user[_hashedId] */\n  mload(0x40)\n  tag_6\n  swap2\n  swap1\n  tag_7\n  jump\t// in\ntag_6:\n  swap1\n  dup2\n  mstore\n  0x20\n  add\n  mload(0x40)\n  dup1\n  swap2\n  sub\n  swap1\n  keccak256\n    /* \"DID.sol\":248:323  user[_hashedId] = User('yellow_w@gmail.com','1234',false,false,false,false) */\n  0x00\n  dup3\n  add\n  mload\n  dup2\n  0x00\n  add\n  swap1\n  dup2\n  tag_8\n  swap2\n  swap1\n  tag_9\n  jump\t// in\ntag_8:\n  pop\n  0x20\n  dup3\n  add\n  mload\n  dup2\n  0x01\n  add\n  swap1\n  dup2\n  tag_10\n  swap2\n  swap1\n  tag_9\n  jump\t// in\ntag_10:\n  pop\n  0x40\n  dup3\n  add\n  mload\n  dup2\n  0x02\n  add\n  exp(0x0100, 0x00)\n  dup2\n  sload\n  dup2\n  0xff\n  mul\n  not\n  and\n  swap1\n  dup4\n  iszero\n  iszero\n  mul\n  or\n  swap1\n  sstore\n  pop\n  0x60\n  dup3\n  add\n  mload\n  dup2\n  0x02\n  add\n  exp(0x0100, 0x01)\n  dup2\n  sload\n  dup2\n  0xff\n  mul\n  not\n  and\n  swap1\n  dup4\n  iszero\n  iszero\n  mul\n  or\n  swap1\n  sstore\n  pop\n  0x80\n  dup3\n  add\n  mload\n  dup2\n  0x02\n  add\n  exp(0x0100, 0x02)\n  dup2\n  sload\n  dup2\n  0xff\n  mul\n  not\n  and\n  swap1\n  dup4\n  iszero\n  iszero\n  mul\n  or\n  swap1\n  sstore\n  pop\n  0xa0\n  dup3\n  add\n  mload\n  dup2\n  0x02\n  add\n  exp(0x0100, 0x03)\n  dup2\n  sload\n  dup2\n  0xff\n  mul\n  not\n  and\n  swap1\n  dup4\n  iszero\n  iszero\n  mul\n  or\n  swap1\n  sstore\n  pop\n  swap1\n  pop\n  pop\n    /* \"DID.sol\":202:330  constructor(string memory _hashedId){... */\n  pop\n    /* \"DID.sol\":80:1602  contract DID is IDID {... */\n  jump(tag_11)\n    /* \"#utility.yul\":7:82   */\ntag_12:\n    /* \"#utility.yul\":40:46   */\n  0x00\n    /* \"#utility.yul\":73:75   */\n  0x40\n    /* \"#utility.yul\":67:76   */\n  mload\n    /* \"#utility.yul\":57:76   */\n  swap1\n  pop\n    /* \"#utility.yul\":7:82   */\n  swap1\n  jump\t// out\n    /* \"#utility.yul\":88:205   */\ntag_13:\n    /* \"#utility.yul\":197:198   */\n  0x00\n    /* \"#utility.yul\":194:195   */\n  dup1\n    /* \"#utility.yul\":187:199   */\n  revert\n    /* \"#utility.yul\":211:328   */\ntag_14:\n    /* \"#utility.yul\":320:321   */\n  0x00\n    /* \"#utility.yul\":317:318   */\n  dup1\n    /* \"#utility.yul\":310:322   */\n  revert\n    /* \"#utility.yul\":334:451   */\ntag_15:\n    /* \"#utility.yul\":443:444   */\n  0x00\n    /* \"#utility.yul\":440:441   */\n  dup1\n    /* \"#utility.yul\":433:445   */\n  revert\n    /* \"#utility.yul\":457:574   */\ntag_16:\n    /* \"#utility.yul\":566:567   */\n  0x00\n    /* \"#utility.yul\":563:564   */\n  dup1\n    /* \"#utility.yul\":556:568   */\n  revert\n    /* \"#utility.yul\":580:682   */\ntag_17:\n    /* \"#utility.yul\":621:627   */\n  0x00\n    /* \"#utility.yul\":672:674   */\n  0x1f\n    /* \"#utility.yul\":668:675   */\n  not\n    /* \"#utility.yul\":663:665   */\n  0x1f\n    /* \"#utility.yul\":656:661   */\n  dup4\n    /* \"#utility.yul\":652:666   */\n  add\n    /* \"#utility.yul\":648:676   */\n  and\n    /* \"#utility.yul\":638:676   */\n  swap1\n  pop\n    /* \"#utility.yul\":580:682   */\n  swap2\n  swap1\n  pop\n  jump\t// out\n    /* \"#utility.yul\":688:868   */\ntag_18:\n    /* \"#utility.yul\":736:813   */\n  0x4e487b7100000000000000000000000000000000000000000000000000000000\n    /* \"#utility.yul\":733:734   */\n  0x00\n    /* \"#utility.yul\":726:814   */\n  mstore\n    /* \"#utility.yul\":833:837   */\n  0x41\n    /* \"#utility.yul\":830:831   */\n  0x04\n    /* \"#utility.yul\":823:838   */\n  mstore\n    /* \"#utility.yul\":857:861   */\n  0x24\n    /* \"#utility.yul\":854:855   */\n  0x00\n    /* \"#utility.yul\":847:862   */\n  revert\n    /* \"#utility.yul\":874:1155   */\ntag_19:\n    /* \"#utility.yul\":957:984   */\n  tag_55\n    /* \"#utility.yul\":979:983   */\n  dup3\n    /* \"#utility.yul\":957:984   */\n  tag_17\n  jump\t// in\ntag_55:\n    /* \"#utility.yul\":949:955   */\n  dup2\n    /* \"#utility.yul\":945:985   */\n  add\n    /* \"#utility.yul\":1087:1093   */\n  dup2\n    /* \"#utility.yul\":1075:1085   */\n  dup2\n    /* \"#utility.yul\":1072:1094   */\n  lt\n    /* \"#utility.yul\":1051:1069   */\n  0xffffffffffffffff\n    /* \"#utility.yul\":1039:1049   */\n  dup3\n    /* \"#utility.yul\":1036:1070   */\n  gt\n    /* \"#utility.yul\":1033:1095   */\n  or\n    /* \"#utility.yul\":1030:1118   */\n  iszero\n  tag_56\n  jumpi\n    /* \"#utility.yul\":1098:1116   */\n  tag_57\n  tag_18\n  jump\t// in\ntag_57:\n    /* \"#utility.yul\":1030:1118   */\ntag_56:\n    /* \"#utility.yul\":1138:1148   */\n  dup1\n    /* \"#utility.yul\":1134:1136   */\n  0x40\n    /* \"#utility.yul\":1127:1149   */\n  mstore\n    /* \"#utility.yul\":917:1155   */\n  pop\n    /* \"#utility.yul\":874:1155   */\n  pop\n  pop\n  jump\t// out\n    /* \"#utility.yul\":1161:1290   */\ntag_20:\n    /* \"#utility.yul\":1195:1201   */\n  0x00\n    /* \"#utility.yul\":1222:1242   */\n  tag_59\n  tag_12\n  jump\t// in\ntag_59:\n    /* \"#utility.yul\":1212:1242   */\n  swap1\n  pop\n    /* \"#utility.yul\":1251:1284   */\n  tag_60\n    /* \"#utility.yul\":1279:1283   */\n  dup3\n    /* \"#utility.yul\":1271:1277   */\n  dup3\n    /* \"#utility.yul\":1251:1284   */\n  tag_19\n  jump\t// in\ntag_60:\n    /* \"#utility.yul\":1161:1290   */\n  swap2\n  swap1\n  pop\n  jump\t// out\n    /* \"#utility.yul\":1296:1604   */\ntag_21:\n    /* \"#utility.yul\":1358:1362   */\n  0x00\n    /* \"#utility.yul\":1448:1466   */\n  0xffffffffffffffff\n    /* \"#utility.yul\":1440:1446   */\n  dup3\n    /* \"#utility.yul\":1437:1467   */\n  gt\n    /* \"#utility.yul\":1434:1490   */\n  iszero\n  tag_62\n  jumpi\n    /* \"#utility.yul\":1470:1488   */\n  tag_63\n  tag_18\n  jump\t// in\ntag_63:\n    /* \"#utility.yul\":1434:1490   */\ntag_62:\n    /* \"#utility.yul\":1508:1537   */\n  tag_64\n    /* \"#utility.yul\":1530:1536   */\n  dup3\n    /* \"#utility.yul\":1508:1537   */\n  tag_17\n  jump\t// in\ntag_64:\n    /* \"#utility.yul\":1500:1537   */\n  swap1\n  pop\n    /* \"#utility.yul\":1592:1596   */\n  0x20\n    /* \"#utility.yul\":1586:1590   */\n  dup2\n    /* \"#utility.yul\":1582:1597   */\n  add\n    /* \"#utility.yul\":1574:1597   */\n  swap1\n  pop\n    /* \"#utility.yul\":1296:1604   */\n  swap2\n  swap1\n  pop\n  jump\t// out\n    /* \"#utility.yul\":1610:1856   */\ntag_22:\n    /* \"#utility.yul\":1691:1692   */\n  0x00\n    /* \"#utility.yul\":1701:1814   */\ntag_66:\n    /* \"#utility.yul\":1715:1721   */\n  dup4\n    /* \"#utility.yul\":1712:1713   */\n  dup2\n    /* \"#utility.yul\":1709:1722   */\n  lt\n    /* \"#utility.yul\":1701:1814   */\n  iszero\n  tag_68\n  jumpi\n    /* \"#utility.yul\":1800:1801   */\n  dup1\n    /* \"#utility.yul\":1795:1798   */\n  dup3\n    /* \"#utility.yul\":1791:1802   */\n  add\n    /* \"#utility.yul\":1785:1803   */\n  mload\n    /* \"#utility.yul\":1781:1782   */\n  dup2\n    /* \"#utility.yul\":1776:1779   */\n  dup5\n    /* \"#utility.yul\":1772:1783   */\n  add\n    /* \"#utility.yul\":1765:1804   */\n  mstore\n    /* \"#utility.yul\":1737:1739   */\n  0x20\n    /* \"#utility.yul\":1734:1735   */\n  dup2\n    /* \"#utility.yul\":1730:1740   */\n  add\n    /* \"#utility.yul\":1725:1740   */\n  swap1\n  pop\n    /* \"#utility.yul\":1701:1814   */\n  jump(tag_66)\ntag_68:\n    /* \"#utility.yul\":1848:1849   */\n  0x00\n    /* \"#utility.yul\":1839:1845   */\n  dup5\n    /* \"#utility.yul\":1834:1837   */\n  dup5\n    /* \"#utility.yul\":1830:1846   */\n  add\n    /* \"#utility.yul\":1823:1850   */\n  mstore\n    /* \"#utility.yul\":1672:1856   */\n  pop\n    /* \"#utility.yul\":1610:1856   */\n  pop\n  pop\n  pop\n  jump\t// out\n    /* \"#utility.yul\":1862:2296   */\ntag_23:\n    /* \"#utility.yul\":1951:1956   */\n  0x00\n    /* \"#utility.yul\":1976:2042   */\n  tag_70\n    /* \"#utility.yul\":1992:2041   */\n  tag_71\n    /* \"#utility.yul\":2034:2040   */\n  dup5\n    /* \"#utility.yul\":1992:2041   */\n  tag_21\n  jump\t// in\ntag_71:\n    /* \"#utility.yul\":1976:2042   */\n  tag_20\n  jump\t// in\ntag_70:\n    /* \"#utility.yul\":1967:2042   */\n  swap1\n  pop\n    /* \"#utility.yul\":2065:2071   */\n  dup3\n    /* \"#utility.yul\":2058:2063   */\n  dup2\n    /* \"#utility.yul\":2051:2072   */\n  mstore\n    /* \"#utility.yul\":2103:2107   */\n  0x20\n    /* \"#utility.yul\":2096:2101   */\n  dup2\n    /* \"#utility.yul\":2092:2108   */\n  add\n    /* \"#utility.yul\":2141:2144   */\n  dup5\n    /* \"#utility.yul\":2132:2138   */\n  dup5\n    /* \"#utility.yul\":2127:2130   */\n  dup5\n    /* \"#utility.yul\":2123:2139   */\n  add\n    /* \"#utility.yul\":2120:2145   */\n  gt\n    /* \"#utility.yul\":2117:2229   */\n  iszero\n  tag_72\n  jumpi\n    /* \"#utility.yul\":2148:2227   */\n  tag_73\n  tag_16\n  jump\t// in\ntag_73:\n    /* \"#utility.yul\":2117:2229   */\ntag_72:\n    /* \"#utility.yul\":2238:2290   */\n  tag_74\n    /* \"#utility.yul\":2283:2289   */\n  dup5\n    /* \"#utility.yul\":2278:2281   */\n  dup3\n    /* \"#utility.yul\":2273:2276   */\n  dup6\n    /* \"#utility.yul\":2238:2290   */\n  tag_22\n  jump\t// in\ntag_74:\n    /* \"#utility.yul\":1957:2296   */\n  pop\n    /* \"#utility.yul\":1862:2296   */\n  swap4\n  swap3\n  pop\n  pop\n  pop\n  jump\t// out\n    /* \"#utility.yul\":2316:2671   */\ntag_24:\n    /* \"#utility.yul\":2383:2388   */\n  0x00\n    /* \"#utility.yul\":2432:2435   */\n  dup3\n    /* \"#utility.yul\":2425:2429   */\n  0x1f\n    /* \"#utility.yul\":2417:2423   */\n  dup4\n    /* \"#utility.yul\":2413:2430   */\n  add\n    /* \"#utility.yul\":2409:2436   */\n  slt\n    /* \"#utility.yul\":2399:2521   */\n  tag_76\n  jumpi\n    /* \"#utility.yul\":2440:2519   */\n  tag_77\n  tag_15\n  jump\t// in\ntag_77:\n    /* \"#utility.yul\":2399:2521   */\ntag_76:\n    /* \"#utility.yul\":2550:2556   */\n  dup2\n    /* \"#utility.yul\":2544:2557   */\n  mload\n    /* \"#utility.yul\":2575:2665   */\n  tag_78\n    /* \"#utility.yul\":2661:2664   */\n  dup5\n    /* \"#utility.yul\":2653:2659   */\n  dup3\n    /* \"#utility.yul\":2646:2650   */\n  0x20\n    /* \"#utility.yul\":2638:2644   */\n  dup7\n    /* \"#utility.yul\":2634:2651   */\n  add\n    /* \"#utility.yul\":2575:2665   */\n  tag_23\n  jump\t// in\ntag_78:\n    /* \"#utility.yul\":2566:2665   */\n  swap2\n  pop\n    /* \"#utility.yul\":2389:2671   */\n  pop\n    /* \"#utility.yul\":2316:2671   */\n  swap3\n  swap2\n  pop\n  pop\n  jump\t// out\n    /* \"#utility.yul\":2677:3201   */\ntag_3:\n    /* \"#utility.yul\":2757:2763   */\n  0x00\n    /* \"#utility.yul\":2806:2808   */\n  0x20\n    /* \"#utility.yul\":2794:2803   */\n  dup3\n    /* \"#utility.yul\":2785:2792   */\n  dup5\n    /* \"#utility.yul\":2781:2804   */\n  sub\n    /* \"#utility.yul\":2777:2809   */\n  slt\n    /* \"#utility.yul\":2774:2893   */\n  iszero\n  tag_80\n  jumpi\n    /* \"#utility.yul\":2812:2891   */\n  tag_81\n  tag_13\n  jump\t// in\ntag_81:\n    /* \"#utility.yul\":2774:2893   */\ntag_80:\n    /* \"#utility.yul\":2953:2954   */\n  0x00\n    /* \"#utility.yul\":2942:2951   */\n  dup3\n    /* \"#utility.yul\":2938:2955   */\n  add\n    /* \"#utility.yul\":2932:2956   */\n  mload\n    /* \"#utility.yul\":2983:3001   */\n  0xffffffffffffffff\n    /* \"#utility.yul\":2975:2981   */\n  dup2\n    /* \"#utility.yul\":2972:3002   */\n  gt\n    /* \"#utility.yul\":2969:3086   */\n  iszero\n  tag_82\n  jumpi\n    /* \"#utility.yul\":3005:3084   */\n  tag_83\n  tag_14\n  jump\t// in\ntag_83:\n    /* \"#utility.yul\":2969:3086   */\ntag_82:\n    /* \"#utility.yul\":3110:3184   */\n  tag_84\n    /* \"#utility.yul\":3176:3183   */\n  dup5\n    /* \"#utility.yul\":3167:3173   */\n  dup3\n    /* \"#utility.yul\":3156:3165   */\n  dup6\n    /* \"#utility.yul\":3152:3174   */\n  add\n    /* \"#utility.yul\":3110:3184   */\n  tag_24\n  jump\t// in\ntag_84:\n    /* \"#utility.yul\":3100:3184   */\n  swap2\n  pop\n    /* \"#utility.yul\":2903:3194   */\n  pop\n    /* \"#utility.yul\":2677:3201   */\n  swap3\n  swap2\n  pop\n  pop\n  jump\t// out\n    /* \"#utility.yul\":3207:3306   */\ntag_25:\n    /* \"#utility.yul\":3259:3265   */\n  0x00\n    /* \"#utility.yul\":3293:3298   */\n  dup2\n    /* \"#utility.yul\":3287:3299   */\n  mload\n    /* \"#utility.yul\":3277:3299   */\n  swap1\n  pop\n    /* \"#utility.yul\":3207:3306   */\n  swap2\n  swap1\n  pop\n  jump\t// out\n    /* \"#utility.yul\":3312:3460   */\ntag_26:\n    /* \"#utility.yul\":3414:3425   */\n  0x00\n    /* \"#utility.yul\":3451:3454   */\n  dup2\n    /* \"#utility.yul\":3436:3454   */\n  swap1\n  pop\n    /* \"#utility.yul\":3312:3460   */\n  swap3\n  swap2\n  pop\n  pop\n  jump\t// out\n    /* \"#utility.yul\":3466:3856   */\ntag_27:\n    /* \"#utility.yul\":3572:3575   */\n  0x00\n    /* \"#utility.yul\":3600:3639   */\n  tag_88\n    /* \"#utility.yul\":3633:3638   */\n  dup3\n    /* \"#utility.yul\":3600:3639   */\n  tag_25\n  jump\t// in\ntag_88:\n    /* \"#utility.yul\":3655:3744   */\n  tag_89\n    /* \"#utility.yul\":3737:3743   */\n  dup2\n    /* \"#utility.yul\":3732:3735   */\n  dup6\n    /* \"#utility.yul\":3655:3744   */\n  tag_26\n  jump\t// in\ntag_89:\n    /* \"#utility.yul\":3648:3744   */\n  swap4\n  pop\n    /* \"#utility.yul\":3753:3818   */\n  tag_90\n    /* \"#utility.yul\":3811:3817   */\n  dup2\n    /* \"#utility.yul\":3806:3809   */\n  dup6\n    /* \"#utility.yul\":3799:3803   */\n  0x20\n    /* \"#utility.yul\":3792:3797   */\n  dup7\n    /* \"#utility.yul\":3788:3804   */\n  add\n    /* \"#utility.yul\":3753:3818   */\n  tag_22\n  jump\t// in\ntag_90:\n    /* \"#utility.yul\":3843:3849   */\n  dup1\n    /* \"#utility.yul\":3838:3841   */\n  dup5\n    /* \"#utility.yul\":3834:3850   */\n  add\n    /* \"#utility.yul\":3827:3850   */\n  swap2\n  pop\n    /* \"#utility.yul\":3576:3856   */\n  pop\n    /* \"#utility.yul\":3466:3856   */\n  swap3\n  swap2\n  pop\n  pop\n  jump\t// out\n    /* \"#utility.yul\":3862:4137   */\ntag_7:\n    /* \"#utility.yul\":3994:3997   */\n  0x00\n    /* \"#utility.yul\":4016:4111   */\n  tag_92\n    /* \"#utility.yul\":4107:4110   */\n  dup3\n    /* \"#utility.yul\":4098:4104   */\n  dup5\n    /* \"#utility.yul\":4016:4111   */\n  tag_27\n  jump\t// in\ntag_92:\n    /* \"#utility.yul\":4009:4111   */\n  swap2\n  pop\n    /* \"#utility.yul\":4128:4131   */\n  dup2\n    /* \"#utility.yul\":4121:4131   */\n  swap1\n  pop\n    /* \"#utility.yul\":3862:4137   */\n  swap3\n  swap2\n  pop\n  pop\n  jump\t// out\n    /* \"#utility.yul\":4143:4323   */\ntag_28:\n    /* \"#utility.yul\":4191:4268   */\n  0x4e487b7100000000000000000000000000000000000000000000000000000000\n    /* \"#utility.yul\":4188:4189   */\n  0x00\n    /* \"#utility.yul\":4181:4269   */\n  mstore\n    /* \"#utility.yul\":4288:4292   */\n  0x22\n    /* \"#utility.yul\":4285:4286   */\n  0x04\n    /* \"#utility.yul\":4278:4293   */\n  mstore\n    /* \"#utility.yul\":4312:4316   */\n  0x24\n    /* \"#utility.yul\":4309:4310   */\n  0x00\n    /* \"#utility.yul\":4302:4317   */\n  revert\n    /* \"#utility.yul\":4329:4649   */\ntag_29:\n    /* \"#utility.yul\":4373:4379   */\n  0x00\n    /* \"#utility.yul\":4410:4411   */\n  0x02\n    /* \"#utility.yul\":4404:4408   */\n  dup3\n    /* \"#utility.yul\":4400:4412   */\n  div\n    /* \"#utility.yul\":4390:4412   */\n  swap1\n  pop\n    /* \"#utility.yul\":4457:4458   */\n  0x01\n    /* \"#utility.yul\":4451:4455   */\n  dup3\n    /* \"#utility.yul\":4447:4459   */\n  and\n    /* \"#utility.yul\":4478:4496   */\n  dup1\n    /* \"#utility.yul\":4468:4549   */\n  tag_95\n  jumpi\n    /* \"#utility.yul\":4534:4538   */\n  0x7f\n    /* \"#utility.yul\":4526:4532   */\n  dup3\n    /* \"#utility.yul\":4522:4539   */\n  and\n    /* \"#utility.yul\":4512:4539   */\n  swap2\n  pop\n    /* \"#utility.yul\":4468:4549   */\ntag_95:\n    /* \"#utility.yul\":4596:4598   */\n  0x20\n    /* \"#utility.yul\":4588:4594   */\n  dup3\n    /* \"#utility.yul\":4585:4599   */\n  lt\n    /* \"#utility.yul\":4565:4583   */\n  dup2\n    /* \"#utility.yul\":4562:4600   */\n  sub\n    /* \"#utility.yul\":4559:4643   */\n  tag_96\n  jumpi\n    /* \"#utility.yul\":4615:4633   */\n  tag_97\n  tag_28\n  jump\t// in\ntag_97:\n    /* \"#utility.yul\":4559:4643   */\ntag_96:\n    /* \"#utility.yul\":4380:4649   */\n  pop\n    /* \"#utility.yul\":4329:4649   */\n  swap2\n  swap1\n  pop\n  jump\t// out\n    /* \"#utility.yul\":4655:4796   */\ntag_30:\n    /* \"#utility.yul\":4704:4708   */\n  0x00\n    /* \"#utility.yul\":4727:4730   */\n  dup2\n    /* \"#utility.yul\":4719:4730   */\n  swap1\n  pop\n    /* \"#utility.yul\":4750:4753   */\n  dup2\n    /* \"#utility.yul\":4747:4748   */\n  0x00\n    /* \"#utility.yul\":4740:4754   */\n  mstore\n    /* \"#utility.yul\":4784:4788   */\n  0x20\n    /* \"#utility.yul\":4781:4782   */\n  0x00\n    /* \"#utility.yul\":4771:4789   */\n  keccak256\n    /* \"#utility.yul\":4763:4789   */\n  swap1\n  pop\n    /* \"#utility.yul\":4655:4796   */\n  swap2\n  swap1\n  pop\n  jump\t// out\n    /* \"#utility.yul\":4802:4895   */\ntag_31:\n    /* \"#utility.yul\":4839:4845   */\n  0x00\n    /* \"#utility.yul\":4886:4888   */\n  0x20\n    /* \"#utility.yul\":4881:4883   */\n  0x1f\n    /* \"#utility.yul\":4874:4879   */\n  dup4\n    /* \"#utility.yul\":4870:4884   */\n  add\n    /* \"#utility.yul\":4866:4889   */\n  div\n    /* \"#utility.yul\":4856:4889   */\n  swap1\n  pop\n    /* \"#utility.yul\":4802:4895   */\n  swap2\n  swap1\n  pop\n  jump\t// out\n    /* \"#utility.yul\":4901:5008   */\ntag_32:\n    /* \"#utility.yul\":4945:4953   */\n  0x00\n    /* \"#utility.yul\":4995:5000   */\n  dup3\n    /* \"#utility.yul\":4989:4993   */\n  dup3\n    /* \"#utility.yul\":4985:5001   */\n  shl\n    /* \"#utility.yul\":4964:5001   */\n  swap1\n  pop\n    /* \"#utility.yul\":4901:5008   */\n  swap3\n  swap2\n  pop\n  pop\n  jump\t// out\n    /* \"#utility.yul\":5014:5407   */\ntag_33:\n    /* \"#utility.yul\":5083:5089   */\n  0x00\n    /* \"#utility.yul\":5133:5134   */\n  0x08\n    /* \"#utility.yul\":5121:5131   */\n  dup4\n    /* \"#utility.yul\":5117:5135   */\n  mul\n    /* \"#utility.yul\":5156:5253   */\n  tag_102\n    /* \"#utility.yul\":5186:5252   */\n  0xffffffffffffffffffffffffffffffffffffffffffffffffffffffffffffffff\n    /* \"#utility.yul\":5175:5184   */\n  dup3\n    /* \"#utility.yul\":5156:5253   */\n  tag_32\n  jump\t// in\ntag_102:\n    /* \"#utility.yul\":5274:5313   */\n  tag_103\n    /* \"#utility.yul\":5304:5312   */\n  dup7\n    /* \"#utility.yul\":5293:5302   */\n  dup4\n    /* \"#utility.yul\":5274:5313   */\n  tag_32\n  jump\t// in\ntag_103:\n    /* \"#utility.yul\":5262:5313   */\n  swap6\n  pop\n    /* \"#utility.yul\":5346:5350   */\n  dup1\n    /* \"#utility.yul\":5342:5351   */\n  not\n    /* \"#utility.yul\":5335:5340   */\n  dup5\n    /* \"#utility.yul\":5331:5352   */\n  and\n    /* \"#utility.yul\":5322:5352   */\n  swap4\n  pop\n    /* \"#utility.yul\":5395:5399   */\n  dup1\n    /* \"#utility.yul\":5385:5393   */\n  dup7\n    /* \"#utility.yul\":5381:5400   */\n  and\n    /* \"#utility.yul\":5374:5379   */\n  dup5\n    /* \"#utility.yul\":5371:5401   */\n  or\n    /* \"#utility.yul\":5361:5401   */\n  swap3\n  pop\n    /* \"#utility.yul\":5090:5407   */\n  pop\n  pop\n    /* \"#utility.yul\":5014:5407   */\n  swap4\n  swap3\n  pop\n  pop\n  pop\n  jump\t// out\n    /* \"#utility.yul\":5413:5490   */\ntag_34:\n    /* \"#utility.yul\":5450:5457   */\n  0x00\n    /* \"#utility.yul\":5479:5484   */\n  dup2\n    /* \"#utility.yul\":5468:5484   */\n  swap1\n  pop\n    /* \"#utility.yul\":5413:5490   */\n  swap2\n  swap1\n  pop\n  jump\t// out\n    /* \"#utility.yul\":5496:5556   */\ntag_35:\n    /* \"#utility.yul\":5524:5527   */\n  0x00\n    /* \"#utility.yul\":5545:5550   */\n  dup2\n    /* \"#utility.yul\":5538:5550   */\n  swap1\n  pop\n    /* \"#utility.yul\":5496:5556   */\n  swap2\n  swap1\n  pop\n  jump\t// out\n    /* \"#utility.yul\":5562:5704   */\ntag_36:\n    /* \"#utility.yul\":5612:5621   */\n  0x00\n    /* \"#utility.yul\":5645:5698   */\n  tag_107\n    /* \"#utility.yul\":5663:5697   */\n  tag_108\n    /* \"#utility.yul\":5672:5696   */\n  tag_109\n    /* \"#utility.yul\":5690:5695   */\n  dup5\n    /* \"#utility.yul\":5672:5696   */\n  tag_34\n  jump\t// in\ntag_109:\n    /* \"#utility.yul\":5663:5697   */\n  tag_35\n  jump\t// in\ntag_108:\n    /* \"#utility.yul\":5645:5698   */\n  tag_34\n  jump\t// in\ntag_107:\n    /* \"#utility.yul\":5632:5698   */\n  swap1\n  pop\n    /* \"#utility.yul\":5562:5704   */\n  swap2\n  swap1\n  pop\n  jump\t// out\n    /* \"#utility.yul\":5710:5785   */\ntag_37:\n    /* \"#utility.yul\":5753:5756   */\n  0x00\n    /* \"#utility.yul\":5774:5779   */\n  dup2\n    /* \"#utility.yul\":5767:5779   */\n  swap1\n  pop\n    /* \"#utility.yul\":5710:5785   */\n  swap2\n  swap1\n  pop\n  jump\t// out\n    /* \"#utility.yul\":5791:6060   */\ntag_38:\n    /* \"#utility.yul\":5901:5940   */\n  tag_112\n    /* \"#utility.yul\":5932:5939   */\n  dup4\n    /* \"#utility.yul\":5901:5940   */\n  tag_36\n  jump\t// in\ntag_112:\n    /* \"#utility.yul\":5962:6053   */\n  tag_113\n    /* \"#utility.yul\":6011:6052   */\n  tag_114\n    /* \"#utility.yul\":6035:6051   */\n  dup3\n    /* \"#utility.yul\":6011:6052   */\n  tag_37\n  jump\t// in\ntag_114:\n    /* \"#utility.yul\":6003:6009   */\n  dup5\n    /* \"#utility.yul\":5996:6000   */\n  dup5\n    /* \"#utility.yul\":5990:6001   */\n  sload\n    /* \"#utility.yul\":5962:6053   */\n  tag_33\n  jump\t// in\ntag_113:\n    /* \"#utility.yul\":5956:5960   */\n  dup3\n    /* \"#utility.yul\":5949:6054   */\n  sstore\n    /* \"#utility.yul\":5867:6060   */\n  pop\n    /* \"#utility.yul\":5791:6060   */\n  pop\n  pop\n  pop\n  jump\t// out\n    /* \"#utility.yul\":6066:6139   */\ntag_39:\n    /* \"#utility.yul\":6111:6114   */\n  0x00\n    /* \"#utility.yul\":6066:6139   */\n  swap1\n  jump\t// out\n    /* \"#utility.yul\":6145:6334   */\ntag_40:\n    /* \"#utility.yul\":6222:6254   */\n  tag_117\n  tag_39\n  jump\t// in\ntag_117:\n    /* \"#utility.yul\":6263:6328   */\n  tag_118\n    /* \"#utility.yul\":6321:6327   */\n  dup2\n    /* \"#utility.yul\":6313:6319   */\n  dup5\n    /* \"#utility.yul\":6307:6311   */\n  dup5\n    /* \"#utility.yul\":6263:6328   */\n  tag_38\n  jump\t// in\ntag_118:\n    /* \"#utility.yul\":6198:6334   */\n  pop\n    /* \"#utility.yul\":6145:6334   */\n  pop\n  pop\n  jump\t// out\n    /* \"#utility.yul\":6340:6526   */\ntag_41:\n    /* \"#utility.yul\":6400:6520   */\ntag_120:\n    /* \"#utility.yul\":6417:6420   */\n  dup2\n    /* \"#utility.yul\":6410:6415   */\n  dup2\n    /* \"#utility.yul\":6407:6421   */\n  lt\n    /* \"#utility.yul\":6400:6520   */\n  iszero\n  tag_122\n  jumpi\n    /* \"#utility.yul\":6471:6510   */\n  tag_123\n    /* \"#utility.yul\":6508:6509   */\n  0x00\n    /* \"#utility.yul\":6501:6506   */\n  dup3\n    /* \"#utility.yul\":6471:6510   */\n  tag_40\n  jump\t// in\ntag_123:\n    /* \"#utility.yul\":6444:6445   */\n  0x01\n    /* \"#utility.yul\":6437:6442   */\n  dup2\n    /* \"#utility.yul\":6433:6446   */\n  add\n    /* \"#utility.yul\":6424:6446   */\n  swap1\n  pop\n    /* \"#utility.yul\":6400:6520   */\n  jump(tag_120)\ntag_122:\n    /* \"#utility.yul\":6340:6526   */\n  pop\n  pop\n  jump\t// out\n    /* \"#utility.yul\":6532:7075   */\ntag_42:\n    /* \"#utility.yul\":6633:6635   */\n  0x1f\n    /* \"#utility.yul\":6628:6631   */\n  dup3\n    /* \"#utility.yul\":6625:6636   */\n  gt\n    /* \"#utility.yul\":6622:7068   */\n  iszero\n  tag_125\n  jumpi\n    /* \"#utility.yul\":6667:6705   */\n  tag_126\n    /* \"#utility.yul\":6699:6704   */\n  dup2\n    /* \"#utility.yul\":6667:6705   */\n  tag_30\n  jump\t// in\ntag_126:\n    /* \"#utility.yul\":6751:6780   */\n  tag_127\n    /* \"#utility.yul\":6769:6779   */\n  dup5\n    /* \"#utility.yul\":6751:6780   */\n  tag_31\n  jump\t// in\ntag_127:\n    /* \"#utility.yul\":6741:6749   */\n  dup2\n    /* \"#utility.yul\":6737:6781   */\n  add\n    /* \"#utility.yul\":6934:6936   */\n  0x20\n    /* \"#utility.yul\":6922:6932   */\n  dup6\n    /* \"#utility.yul\":6919:6937   */\n  lt\n    /* \"#utility.yul\":6916:6965   */\n  iszero\n  tag_128\n  jumpi\n    /* \"#utility.yul\":6955:6963   */\n  dup2\n    /* \"#utility.yul\":6940:6963   */\n  swap1\n  pop\n    /* \"#utility.yul\":6916:6965   */\ntag_128:\n    /* \"#utility.yul\":6978:7058   */\n  tag_129\n    /* \"#utility.yul\":7034:7056   */\n  tag_130\n    /* \"#utility.yul\":7052:7055   */\n  dup6\n    /* \"#utility.yul\":7034:7056   */\n  tag_31\n  jump\t// in\ntag_130:\n    /* \"#utility.yul\":7024:7032   */\n  dup4\n    /* \"#utility.yul\":7020:7057   */\n  add\n    /* \"#utility.yul\":7007:7018   */\n  dup3\n    /* \"#utility.yul\":6978:7058   */\n  tag_41\n  jump\t// in\ntag_129:\n    /* \"#utility.yul\":6637:7068   */\n  pop\n  pop\n    /* \"#utility.yul\":6622:7068   */\ntag_125:\n    /* \"#utility.yul\":6532:7075   */\n  pop\n  pop\n  pop\n  jump\t// out\n    /* \"#utility.yul\":7081:7198   */\ntag_43:\n    /* \"#utility.yul\":7135:7143   */\n  0x00\n    /* \"#utility.yul\":7185:7190   */\n  dup3\n    /* \"#utility.yul\":7179:7183   */\n  dup3\n    /* \"#utility.yul\":7175:7191   */\n  shr\n    /* \"#utility.yul\":7154:7191   */\n  swap1\n  pop\n    /* \"#utility.yul\":7081:7198   */\n  swap3\n  swap2\n  pop\n  pop\n  jump\t// out\n    /* \"#utility.yul\":7204:7373   */\ntag_44:\n    /* \"#utility.yul\":7248:7254   */\n  0x00\n    /* \"#utility.yul\":7281:7332   */\n  tag_133\n    /* \"#utility.yul\":7329:7330   */\n  0x00\n    /* \"#utility.yul\":7325:7331   */\n  not\n    /* \"#utility.yul\":7317:7322   */\n  dup5\n    /* \"#utility.yul\":7314:7315   */\n  0x08\n    /* \"#utility.yul\":7310:7323   */\n  mul\n    /* \"#utility.yul\":7281:7332   */\n  tag_43\n  jump\t// in\ntag_133:\n    /* \"#utility.yul\":7277:7333   */\n  not\n    /* \"#utility.yul\":7362:7366   */\n  dup1\n    /* \"#utility.yul\":7356:7360   */\n  dup4\n    /* \"#utility.yul\":7352:7367   */\n  and\n    /* \"#utility.yul\":7342:7367   */\n  swap2\n  pop\n    /* \"#utility.yul\":7255:7373   */\n  pop\n    /* \"#utility.yul\":7204:7373   */\n  swap3\n  swap2\n  pop\n  pop\n  jump\t// out\n    /* \"#utility.yul\":7378:7673   */\ntag_45:\n    /* \"#utility.yul\":7454:7458   */\n  0x00\n    /* \"#utility.yul\":7600:7629   */\n  tag_135\n    /* \"#utility.yul\":7625:7628   */\n  dup4\n    /* \"#utility.yul\":7619:7623   */\n  dup4\n    /* \"#utility.yul\":7600:7629   */\n  tag_44\n  jump\t// in\ntag_135:\n    /* \"#utility.yul\":7592:7629   */\n  swap2\n  pop\n    /* \"#utility.yul\":7662:7665   */\n  dup3\n    /* \"#utility.yul\":7659:7660   */\n  0x02\n    /* \"#utility.yul\":7655:7666   */\n  mul\n    /* \"#utility.yul\":7649:7653   */\n  dup3\n    /* \"#utility.yul\":7646:7667   */\n  or\n    /* \"#utility.yul\":7638:7667   */\n  swap1\n  pop\n    /* \"#utility.yul\":7378:7673   */\n  swap3\n  swap2\n  pop\n  pop\n  jump\t// out\n    /* \"#utility.yul\":7678:9073   */\ntag_9:\n    /* \"#utility.yul\":7795:7832   */\n  tag_137\n    /* \"#utility.yul\":7828:7831   */\n  dup3\n    /* \"#utility.yul\":7795:7832   */\n  tag_25\n  jump\t// in\ntag_137:\n    /* \"#utility.yul\":7897:7915   */\n  0xffffffffffffffff\n    /* \"#utility.yul\":7889:7895   */\n  dup2\n    /* \"#utility.yul\":7886:7916   */\n  gt\n    /* \"#utility.yul\":7883:7939   */\n  iszero\n  tag_138\n  jumpi\n    /* \"#utility.yul\":7919:7937   */\n  tag_139\n  tag_18\n  jump\t// in\ntag_139:\n    /* \"#utility.yul\":7883:7939   */\ntag_138:\n    /* \"#utility.yul\":7963:8001   */\n  tag_140\n    /* \"#utility.yul\":7995:7999   */\n  dup3\n    /* \"#utility.yul\":7989:8000   */\n  sload\n    /* \"#utility.yul\":7963:8001   */\n  tag_29\n  jump\t// in\ntag_140:\n    /* \"#utility.yul\":8048:8115   */\n  tag_141\n    /* \"#utility.yul\":8108:8114   */\n  dup3\n    /* \"#utility.yul\":8100:8106   */\n  dup3\n    /* \"#utility.yul\":8094:8098   */\n  dup6\n    /* \"#utility.yul\":8048:8115   */\n  tag_42\n  jump\t// in\ntag_141:\n    /* \"#utility.yul\":8142:8143   */\n  0x00\n    /* \"#utility.yul\":8166:8170   */\n  0x20\n    /* \"#utility.yul\":8153:8170   */\n  swap1\n  pop\n    /* \"#utility.yul\":8198:8200   */\n  0x1f\n    /* \"#utility.yul\":8190:8196   */\n  dup4\n    /* \"#utility.yul\":8187:8201   */\n  gt\n    /* \"#utility.yul\":8215:8216   */\n  0x01\n    /* \"#utility.yul\":8210:8828   */\n  dup2\n  eq\n  tag_143\n  jumpi\n    /* \"#utility.yul\":8872:8873   */\n  0x00\n    /* \"#utility.yul\":8889:8895   */\n  dup5\n    /* \"#utility.yul\":8886:8963   */\n  iszero\n  tag_144\n  jumpi\n    /* \"#utility.yul\":8938:8947   */\n  dup3\n    /* \"#utility.yul\":8933:8936   */\n  dup8\n    /* \"#utility.yul\":8929:8948   */\n  add\n    /* \"#utility.yul\":8923:8949   */\n  mload\n    /* \"#utility.yul\":8914:8949   */\n  swap1\n  pop\n    /* \"#utility.yul\":8886:8963   */\ntag_144:\n    /* \"#utility.yul\":8989:9056   */\n  tag_145\n    /* \"#utility.yul\":9049:9055   */\n  dup6\n    /* \"#utility.yul\":9042:9047   */\n  dup3\n    /* \"#utility.yul\":8989:9056   */\n  tag_45\n  jump\t// in\ntag_145:\n    /* \"#utility.yul\":8983:8987   */\n  dup7\n    /* \"#utility.yul\":8976:9057   */\n  sstore\n    /* \"#utility.yul\":8845:9067   */\n  pop\n    /* \"#utility.yul\":8180:9067   */\n  jump(tag_142)\n    /* \"#utility.yul\":8210:8828   */\ntag_143:\n    /* \"#utility.yul\":8262:8266   */\n  0x1f\n    /* \"#utility.yul\":8258:8267   */\n  not\n    /* \"#utility.yul\":8250:8256   */\n  dup5\n    /* \"#utility.yul\":8246:8268   */\n  and\n    /* \"#utility.yul\":8296:8333   */\n  tag_146\n    /* \"#utility.yul\":8328:8332   */\n  dup7\n    /* \"#utility.yul\":8296:8333   */\n  tag_30\n  jump\t// in\ntag_146:\n    /* \"#utility.yul\":8355:8356   */\n  0x00\n    /* \"#utility.yul\":8369:8577   */\ntag_147:\n    /* \"#utility.yul\":8383:8390   */\n  dup3\n    /* \"#utility.yul\":8380:8381   */\n  dup2\n    /* \"#utility.yul\":8377:8391   */\n  lt\n    /* \"#utility.yul\":8369:8577   */\n  iszero\n  tag_149\n  jumpi\n    /* \"#utility.yul\":8462:8471   */\n  dup5\n    /* \"#utility.yul\":8457:8460   */\n  dup10\n    /* \"#utility.yul\":8453:8472   */\n  add\n    /* \"#utility.yul\":8447:8473   */\n  mload\n    /* \"#utility.yul\":8439:8445   */\n  dup3\n    /* \"#utility.yul\":8432:8474   */\n  sstore\n    /* \"#utility.yul\":8513:8514   */\n  0x01\n    /* \"#utility.yul\":8505:8511   */\n  dup3\n    /* \"#utility.yul\":8501:8515   */\n  add\n    /* \"#utility.yul\":8491:8515   */\n  swap2\n  pop\n    /* \"#utility.yul\":8560:8562   */\n  0x20\n    /* \"#utility.yul\":8549:8558   */\n  dup6\n    /* \"#utility.yul\":8545:8563   */\n  add\n    /* \"#utility.yul\":8532:8563   */\n  swap5\n  pop\n    /* \"#utility.yul\":8406:8410   */\n  0x20\n    /* \"#utility.yul\":8403:8404   */\n  dup2\n    /* \"#utility.yul\":8399:8411   */\n  add\n    /* \"#utility.yul\":8394:8411   */\n  swap1\n  pop\n    /* \"#utility.yul\":8369:8577   */\n  jump(tag_147)\ntag_149:\n    /* \"#utility.yul\":8605:8611   */\n  dup7\n    /* \"#utility.yul\":8596:8603   */\n  dup4\n    /* \"#utility.yul\":8593:8612   */\n  lt\n    /* \"#utility.yul\":8590:8769   */\n  iszero\n  tag_150\n  jumpi\n    /* \"#utility.yul\":8663:8672   */\n  dup5\n    /* \"#utility.yul\":8658:8661   */\n  dup10\n    /* \"#utility.yul\":8654:8673   */\n  add\n    /* \"#utility.yul\":8648:8674   */\n  mload\n    /* \"#utility.yul\":8706:8754   */\n  tag_151\n    /* \"#utility.yul\":8748:8752   */\n  0x1f\n    /* \"#utility.yul\":8740:8746   */\n  dup10\n    /* \"#utility.yul\":8736:8753   */\n  and\n    /* \"#utility.yul\":8725:8734   */\n  dup3\n    /* \"#utility.yul\":8706:8754   */\n  tag_44\n  jump\t// in\ntag_151:\n    /* \"#utility.yul\":8698:8704   */\n  dup4\n    /* \"#utility.yul\":8691:8755   */\n  sstore\n    /* \"#utility.yul\":8613:8769   */\n  pop\n    /* \"#utility.yul\":8590:8769   */\ntag_150:\n    /* \"#utility.yul\":8815:8816   */\n  0x01\n    /* \"#utility.yul\":8811:8812   */\n  0x02\n    /* \"#utility.yul\":8803:8809   */\n  dup9\n    /* \"#utility.yul\":8799:8813   */\n  mul\n    /* \"#utility.yul\":8795:8817   */\n  add\n    /* \"#utility.yul\":8789:8793   */\n  dup9\n    /* \"#utility.yul\":8782:8818   */\n  sstore\n    /* \"#utility.yul\":8217:8828   */\n  pop\n  pop\n  pop\n    /* \"#utility.yul\":8180:9067   */\ntag_142:\n  pop\n    /* \"#utility.yul\":7770:9073   */\n  pop\n  pop\n  pop\n    /* \"#utility.yul\":7678:9073   */\n  pop\n  pop\n  jump\t// out\n    /* \"DID.sol\":80:1602  contract DID is IDID {... */\ntag_11:\n  dataSize(sub_0)\n  dup1\n  dataOffset(sub_0)\n  0x00\n  codecopy\n  0x00\n  return\nstop\n\nsub_0: assembly {\n        /* \"DID.sol\":80:1602  contract DID is IDID {... */\n      mstore(0x40, 0x80)\n      callvalue\n      dup1\n      iszero\n      tag_1\n      jumpi\n      0x00\n      dup1\n      revert\n    tag_1:\n      pop\n      jumpi(tag_2, lt(calldatasize, 0x04))\n      shr(0xe0, calldataload(0x00))\n      dup1\n      0x31feb671\n      eq\n      tag_3\n      jumpi\n      dup1\n      0x9cb4a5b3\n      eq\n      tag_4\n      jumpi\n      dup1\n      0xaeec5fc9\n      eq\n      tag_5\n      jumpi\n      dup1\n      0xc822d7f0\n      eq\n      tag_6\n      jumpi\n      dup1\n      0xd3695161\n      eq\n      tag_7\n      jumpi\n    tag_2:\n      0x00\n      dup1\n      revert\n        /* \"DID.sol\":1357:1473  function getUser (string memory _hashedId) view external returns(User memory){... */\n    tag_3:\n      tag_8\n      0x04\n      dup1\n      calldatasize\n      sub\n      dup2\n      add\n      swap1\n      tag_9\n      swap2\n      swap1\n      tag_10\n      jump\t// in\n    tag_9:\n      tag_11\n      jump\t// in\n    tag_8:\n      mload(0x40)\n      tag_12\n      swap2\n      swap1\n      tag_13\n      jump\t// in\n    tag_12:\n      mload(0x40)\n      dup1\n      swap2\n      sub\n      swap1\n      return\n        /* \"DID.sol\":774:1160  function updateUser (string memory _hashedId, User memory _data) external{... */\n    tag_4:\n      tag_14\n      0x04\n      dup1\n      calldatasize\n      sub\n      dup2\n      add\n      swap1\n      tag_15\n      swap2\n      swap1\n      tag_16\n      jump\t// in\n    tag_15:\n      tag_17\n      jump\t// in\n    tag_14:\n      stop\n        /* \"DID.sol\":336:768  function registerUser (string memory _hashedId ,User memory _data) external{... */\n    tag_5:\n      tag_18\n      0x04\n      dup1\n      calldatasize\n      sub\n      dup2\n      add\n      swap1\n      tag_19\n      swap2\n      swap1\n      tag_16\n      jump\t// in\n    tag_19:\n      tag_20\n      jump\t// in\n    tag_18:\n      stop\n        /* \"DID.sol\":1479:1600  function isRegistered(string memory _hashedId) view public returns(bool){... */\n    tag_6:\n      tag_21\n      0x04\n      dup1\n      calldatasize\n      sub\n      dup2\n      add\n      swap1\n      tag_22\n      swap2\n      swap1\n      tag_10\n      jump\t// in\n    tag_22:\n      tag_23\n      jump\t// in\n    tag_21:\n      mload(0x40)\n      tag_24\n      swap2\n      swap1\n      tag_25\n      jump\t// in\n    tag_24:\n      mload(0x40)\n      dup1\n      swap2\n      sub\n      swap1\n      return\n        /* \"DID.sol\":1166:1347  function deleteUser (string memory _hashedId) external{... */\n    tag_7:\n      tag_26\n      0x04\n      dup1\n      calldatasize\n      sub\n      dup2\n      add\n      swap1\n      tag_27\n      swap2\n      swap1\n      tag_10\n      jump\t// in\n    tag_27:\n      tag_28\n      jump\t// in\n    tag_26:\n      stop\n        /* \"DID.sol\":1357:1473  function getUser (string memory _hashedId) view external returns(User memory){... */\n    tag_11:\n        /* \"DID.sol\":1422:1433  User memory */\n      tag_29\n      tag_30\n      jump\t// in\n    tag_29:\n        /* \"DID.sol\":1451:1455  user */\n      0x00\n        /* \"DID.sol\":1456:1465  _hashedId */\n      dup3\n        /* \"DID.sol\":1451:1466  user[_hashedId] */\n      mload(0x40)\n      tag_32\n      swap2\n      swap1\n      tag_33\n      jump\t// in\n    tag_32:\n      swap1\n      dup2\n      mstore\n      0x20\n      add\n      mload(0x40)\n      dup1\n      swap2\n      sub\n      swap1\n      keccak256\n        /* \"DID.sol\":1444:1466  return user[_hashedId] */\n      mload(0x40)\n      dup1\n      0xc0\n      add\n      0x40\n      mstore\n      swap1\n      dup2\n      0x00\n      dup3\n      add\n      dup1\n      sload\n      tag_34\n      swap1\n      tag_35\n      jump\t// in\n    tag_34:\n      dup1\n      0x1f\n      add\n      0x20\n      dup1\n      swap2\n      div\n      mul\n      0x20\n      add\n      mload(0x40)\n      swap1\n      dup2\n      add\n      0x40\n      mstore\n      dup1\n      swap3\n      swap2\n      swap1\n      dup2\n      dup2\n      mstore\n      0x20\n      add\n      dup3\n      dup1\n      sload\n      tag_36\n      swap1\n      tag_35\n      jump\t// in\n    tag_36:\n      dup1\n      iszero\n      tag_37\n      jumpi\n      dup1\n      0x1f\n      lt\n      tag_38\n      jumpi\n      0x0100\n      dup1\n      dup4\n      sload\n      div\n      mul\n      dup4\n      mstore\n      swap2\n      0x20\n      add\n      swap2\n      jump(tag_37)\n    tag_38:\n      dup3\n      add\n      swap2\n      swap1\n      0x00\n      mstore\n      keccak256(0x00, 0x20)\n      swap1\n    tag_39:\n      dup2\n      sload\n      dup2\n      mstore\n      swap1\n      0x01\n      add\n      swap1\n      0x20\n      add\n      dup1\n      dup4\n      gt\n      tag_39\n      jumpi\n      dup3\n      swap1\n      sub\n      0x1f\n      and\n      dup3\n      add\n      swap2\n    tag_37:\n      pop\n      pop\n      pop\n      pop\n      pop\n      dup2\n      mstore\n      0x20\n      add\n      0x01\n      dup3\n      add\n      dup1\n      sload\n      tag_40\n      swap1\n      tag_35\n      jump\t// in\n    tag_40:\n      dup1\n      0x1f\n      add\n      0x20\n      dup1\n      swap2\n      div\n      mul\n      0x20\n      add\n      mload(0x40)\n      swap1\n      dup2\n      add\n      0x40\n      mstore\n      dup1\n      swap3\n      swap2\n      swap1\n      dup2\n      dup2\n      mstore\n      0x20\n      add\n      dup3\n      dup1\n      sload\n      tag_41\n      swap1\n      tag_35\n      jump\t// in\n    tag_41:\n      dup1\n      iszero\n      tag_42\n      jumpi\n      dup1\n      0x1f\n      lt\n      tag_43\n      jumpi\n      0x0100\n      dup1\n      dup4\n      sload\n      div\n      mul\n      dup4\n      mstore\n      swap2\n      0x20\n      add\n      swap2\n      jump(tag_42)\n    tag_43:\n      dup3\n      add\n      swap2\n      swap1\n      0x00\n      mstore\n      keccak256(0x00, 0x20)\n      swap1\n    tag_44:\n      dup2\n      sload\n      dup2\n      mstore\n      swap1\n      0x01\n      add\n      swap1\n      0x20\n      add\n      dup1\n      dup4\n      gt\n      tag_44\n      jumpi\n      dup3\n      swap1\n      sub\n      0x1f\n      and\n      dup3\n      add\n      swap2\n    tag_42:\n      pop\n      pop\n      pop\n      pop\n      pop\n      dup2\n      mstore\n      0x20\n      add\n      0x02\n      dup3\n      add\n      0x00\n      swap1\n      sload\n      swap1\n      0x0100\n      exp\n      swap1\n      div\n      0xff\n      and\n      iszero\n      iszero\n      iszero\n      iszero\n      dup2\n      mstore\n      0x20\n      add\n      0x02\n      dup3\n      add\n      0x01\n      swap1\n      sload\n      swap1\n      0x0100\n      exp\n      swap1\n      div\n      0xff\n      and\n      iszero\n      iszero\n      iszero\n      iszero\n      dup2\n      mstore\n      0x20\n      add\n      0x02\n      dup3\n      add\n      0x02\n      swap1\n      sload\n      swap1\n      0x0100\n      exp\n      swap1\n      div\n      0xff\n      and\n      iszero\n      iszero\n      iszero\n      iszero\n      dup2\n      mstore\n      0x20\n      add\n      0x02\n      dup3\n      add\n      0x03\n      swap1\n      sload\n      swap1\n      0x0100\n      exp\n      swap1\n      div\n      0xff\n      and\n      iszero\n      iszero\n      iszero\n      iszero\n      dup2\n      mstore\n      pop\n      pop\n      swap1\n      pop\n        /* \"DID.sol\":1357:1473  function getUser (string memory _hashedId) view external returns(User memory){... */\n      swap2\n      swap1\n      pop\n      jump\t// out\n        /* \"DID.sol\":774:1160  function updateUser (string memory _hashedId, User memory _data) external{... */\n    tag_17:\n        /* \"DID.sol\":865:879  registeredUser */\n      0x01\n        /* \"DID.sol\":880:889  _hashedId */\n      dup3\n        /* \"DID.sol\":865:890  registeredUser[_hashedId] */\n      mload(0x40)\n      tag_46\n      swap2\n      swap1\n      tag_33\n      jump\t// in\n    tag_46:\n      swap1\n      dup2\n      mstore\n      0x20\n      add\n      mload(0x40)\n      dup1\n      swap2\n      sub\n      swap1\n      keccak256\n      0x00\n      swap1\n      sload\n      swap1\n      0x0100\n      exp\n      swap1\n      div\n      0xff\n      and\n        /* \"DID.sol\":857:891  require(registeredUser[_hashedId]) */\n      tag_47\n      jumpi\n      0x00\n      dup1\n      revert\n    tag_47:\n        /* \"DID.sol\":901:920  User memory userObj */\n      tag_48\n      tag_30\n      jump\t// in\n    tag_48:\n        /* \"DID.sol\":947:952  _data */\n      dup2\n        /* \"DID.sol\":947:958  _data.email */\n      0x00\n      add\n      mload\n        /* \"DID.sol\":931:938  userObj */\n      dup2\n        /* \"DID.sol\":931:944  userObj.email */\n      0x00\n      add\n        /* \"DID.sol\":931:958  userObj.email = _data.email */\n      dup2\n      swap1\n      mstore\n      pop\n        /* \"DID.sol\":987:992  _data */\n      dup2\n        /* \"DID.sol\":987:1001  _data.password */\n      0x20\n      add\n      mload\n        /* \"DID.sol\":968:975  userObj */\n      dup2\n        /* \"DID.sol\":968:984  userObj.password */\n      0x20\n      add\n        /* \"DID.sol\":968:1001  userObj.password = _data.password */\n      dup2\n      swap1\n      mstore\n      pop\n        /* \"DID.sol\":1023:1028  _data */\n      dup2\n        /* \"DID.sol\":1023:1030  _data.A */\n      0x40\n      add\n      mload\n        /* \"DID.sol\":1011:1018  userObj */\n      dup2\n        /* \"DID.sol\":1011:1020  userObj.A */\n      0x40\n      add\n        /* \"DID.sol\":1011:1030  userObj.A = _data.A */\n      swap1\n      iszero\n      iszero\n      swap1\n      dup2\n      iszero\n      iszero\n      dup2\n      mstore\n      pop\n      pop\n        /* \"DID.sol\":1052:1057  _data */\n      dup2\n        /* \"DID.sol\":1052:1059  _data.B */\n      0x60\n      add\n      mload\n        /* \"DID.sol\":1040:1047  userObj */\n      dup2\n        /* \"DID.sol\":1040:1049  userObj.B */\n      0x60\n      add\n        /* \"DID.sol\":1040:1059  userObj.B = _data.B */\n      swap1\n      iszero\n      iszero\n      swap1\n      dup2\n      iszero\n      iszero\n      dup2\n      mstore\n      pop\n      pop\n        /* \"DID.sol\":1081:1086  _data */\n      dup2\n        /* \"DID.sol\":1081:1088  _data.C */\n      0x80\n      add\n      mload\n        /* \"DID.sol\":1069:1076  userObj */\n      dup2\n        /* \"DID.sol\":1069:1078  userObj.C */\n      0x80\n      add\n        /* \"DID.sol\":1069:1088  userObj.C = _data.C */\n      swap1\n      iszero\n      iszero\n      swap1\n      dup2\n      iszero\n      iszero\n      dup2\n      mstore\n      pop\n      pop\n        /* \"DID.sol\":1110:1115  _data */\n      dup2\n        /* \"DID.sol\":1110:1117  _data.D */\n      0xa0\n      add\n      mload\n        /* \"DID.sol\":1098:1105  userObj */\n      dup2\n        /* \"DID.sol\":1098:1107  userObj.D */\n      0xa0\n      add\n        /* \"DID.sol\":1098:1117  userObj.D = _data.D */\n      swap1\n      iszero\n      iszero\n      swap1\n      dup2\n      iszero\n      iszero\n      dup2\n      mstore\n      pop\n      pop\n        /* \"DID.sol\":1146:1153  userObj */\n      dup1\n        /* \"DID.sol\":1128:1132  user */\n      0x00\n        /* \"DID.sol\":1133:1142  _hashedId */\n      dup5\n        /* \"DID.sol\":1128:1143  user[_hashedId] */\n      mload(0x40)\n      tag_49\n      swap2\n      swap1\n      tag_33\n      jump\t// in\n    tag_49:\n      swap1\n      dup2\n      mstore\n      0x20\n      add\n      mload(0x40)\n      dup1\n      swap2\n      sub\n      swap1\n      keccak256\n        /* \"DID.sol\":1128:1153  user[_hashedId] = userObj */\n      0x00\n      dup3\n      add\n      mload\n      dup2\n      0x00\n      add\n      swap1\n      dup2\n      tag_50\n      swap2\n      swap1\n      tag_51\n      jump\t// in\n    tag_50:\n      pop\n      0x20\n      dup3\n      add\n      mload\n      dup2\n      0x01\n      add\n      swap1\n      dup2\n      tag_52\n      swap2\n      swap1\n      tag_51\n      jump\t// in\n    tag_52:\n      pop\n      0x40\n      dup3\n      add\n      mload\n      dup2\n      0x02\n      add\n      exp(0x0100, 0x00)\n      dup2\n      sload\n      dup2\n      0xff\n      mul\n      not\n      and\n      swap1\n      dup4\n      iszero\n      iszero\n      mul\n      or\n      swap1\n      sstore\n      pop\n      0x60\n      dup3\n      add\n      mload\n      dup2\n      0x02\n      add\n      exp(0x0100, 0x01)\n      dup2\n      sload\n      dup2\n      0xff\n      mul\n      not\n      and\n      swap1\n      dup4\n      iszero\n      iszero\n      mul\n      or\n      swap1\n      sstore\n      pop\n      0x80\n      dup3\n      add\n      mload\n      dup2\n      0x02\n      add\n      exp(0x0100, 0x02)\n      dup2\n      sload\n      dup2\n      0xff\n      mul\n      not\n      and\n      swap1\n      dup4\n      iszero\n      iszero\n      mul\n      or\n      swap1\n      sstore\n      pop\n      0xa0\n      dup3\n      add\n      mload\n      dup2\n      0x02\n      add\n      exp(0x0100, 0x03)\n      dup2\n      sload\n      dup2\n      0xff\n      mul\n      not\n      and\n      swap1\n      dup4\n      iszero\n      iszero\n      mul\n      or\n      swap1\n      sstore\n      pop\n      swap1\n      pop\n      pop\n        /* \"DID.sol\":847:1160  {... */\n      pop\n        /* \"DID.sol\":774:1160  function updateUser (string memory _hashedId, User memory _data) external{... */\n      pop\n      pop\n      jump\t// out\n        /* \"DID.sol\":336:768  function registerUser (string memory _hashedId ,User memory _data) external{... */\n    tag_20:\n        /* \"DID.sol\":430:444  registeredUser */\n      0x01\n        /* \"DID.sol\":445:454  _hashedId */\n      dup3\n        /* \"DID.sol\":430:455  registeredUser[_hashedId] */\n      mload(0x40)\n      tag_54\n      swap2\n      swap1\n      tag_33\n      jump\t// in\n    tag_54:\n      swap1\n      dup2\n      mstore\n      0x20\n      add\n      mload(0x40)\n      dup1\n      swap2\n      sub\n      swap1\n      keccak256\n      0x00\n      swap1\n      sload\n      swap1\n      0x0100\n      exp\n      swap1\n      div\n      0xff\n      and\n        /* \"DID.sol\":429:455  !registeredUser[_hashedId] */\n      iszero\n        /* \"DID.sol\":421:456  require(!registeredUser[_hashedId]) */\n      tag_55\n      jumpi\n      0x00\n      dup1\n      revert\n    tag_55:\n        /* \"DID.sol\":466:485  User memory userObj */\n      tag_56\n      tag_30\n      jump\t// in\n    tag_56:\n        /* \"DID.sol\":512:517  _data */\n      dup2\n        /* \"DID.sol\":512:523  _data.email */\n      0x00\n      add\n      mload\n        /* \"DID.sol\":496:503  userObj */\n      dup2\n        /* \"DID.sol\":496:509  userObj.email */\n      0x00\n      add\n        /* \"DID.sol\":496:523  userObj.email = _data.email */\n      dup2\n      swap1\n      mstore\n      pop\n        /* \"DID.sol\":552:557  _data */\n      dup2\n        /* \"DID.sol\":552:566  _data.password */\n      0x20\n      add\n      mload\n        /* \"DID.sol\":533:540  userObj */\n      dup2\n        /* \"DID.sol\":533:549  userObj.password */\n      0x20\n      add\n        /* \"DID.sol\":533:566  userObj.password = _data.password */\n      dup2\n      swap1\n      mstore\n      pop\n        /* \"DID.sol\":588:593  _data */\n      dup2\n        /* \"DID.sol\":588:595  _data.A */\n      0x40\n      add\n      mload\n        /* \"DID.sol\":576:583  userObj */\n      dup2\n        /* \"DID.sol\":576:585  userObj.A */\n      0x40\n      add\n        /* \"DID.sol\":576:595  userObj.A = _data.A */\n      swap1\n      iszero\n      iszero\n      swap1\n      dup2\n      iszero\n      iszero\n      dup2\n      mstore\n      pop\n      pop\n        /* \"DID.sol\":617:622  _data */\n      dup2\n        /* \"DID.sol\":617:624  _data.B */\n      0x60\n      add\n      mload\n        /* \"DID.sol\":605:612  userObj */\n      dup2\n        /* \"DID.sol\":605:614  userObj.B */\n      0x60\n      add\n        /* \"DID.sol\":605:624  userObj.B = _data.B */\n      swap1\n      iszero\n      iszero\n      swap1\n      dup2\n      iszero\n      iszero\n      dup2\n      mstore\n      pop\n      pop\n        /* \"DID.sol\":646:651  _data */\n      dup2\n        /* \"DID.sol\":646:653  _data.C */\n      0x80\n      add\n      mload\n        /* \"DID.sol\":634:641  userObj */\n      dup2\n        /* \"DID.sol\":634:643  userObj.C */\n      0x80\n      add\n        /* \"DID.sol\":634:653  userObj.C = _data.C */\n      swap1\n      iszero\n      iszero\n      swap1\n      dup2\n      iszero\n      iszero\n      dup2\n      mstore\n      pop\n      pop\n        /* \"DID.sol\":675:680  _data */\n      dup2\n        /* \"DID.sol\":675:682  _data.D */\n      0xa0\n      add\n      mload\n        /* \"DID.sol\":663:670  userObj */\n      dup2\n        /* \"DID.sol\":663:672  userObj.D */\n      0xa0\n      add\n        /* \"DID.sol\":663:682  userObj.D = _data.D */\n      swap1\n      iszero\n      iszero\n      swap1\n      dup2\n      iszero\n      iszero\n      dup2\n      mstore\n      pop\n      pop\n        /* \"DID.sol\":711:718  userObj */\n      dup1\n        /* \"DID.sol\":693:697  user */\n      0x00\n        /* \"DID.sol\":698:707  _hashedId */\n      dup5\n        /* \"DID.sol\":693:708  user[_hashedId] */\n      mload(0x40)\n      tag_57\n      swap2\n      swap1\n      tag_33\n      jump\t// in\n    tag_57:\n      swap1\n      dup2\n      mstore\n      0x20\n      add\n      mload(0x40)\n      dup1\n      swap2\n      sub\n      swap1\n      keccak256\n        /* \"DID.sol\":693:718  user[_hashedId] = userObj */\n      0x00\n      dup3\n      add\n      mload\n      dup2\n      0x00\n      add\n      swap1\n      dup2\n      tag_58\n      swap2\n      swap1\n      tag_51\n      jump\t// in\n    tag_58:\n      pop\n      0x20\n      dup3\n      add\n      mload\n      dup2\n      0x01\n      add\n      swap1\n      dup2\n      tag_59\n      swap2\n      swap1\n      tag_51\n      jump\t// in\n    tag_59:\n      pop\n      0x40\n      dup3\n      add\n      mload\n      dup2\n      0x02\n      add\n      exp(0x0100, 0x00)\n      dup2\n      sload\n      dup2\n      0xff\n      mul\n      not\n      and\n      swap1\n      dup4\n      iszero\n      iszero\n      mul\n      or\n      swap1\n      sstore\n      pop\n      0x60\n      dup3\n      add\n      mload\n      dup2\n      0x02\n      add\n      exp(0x0100, 0x01)\n      dup2\n      sload\n      dup2\n      0xff\n      mul\n      not\n      and\n      swap1\n      dup4\n      iszero\n      iszero\n      mul\n      or\n      swap1\n      sstore\n      pop\n      0x80\n      dup3\n      add\n      mload\n      dup2\n      0x02\n      add\n      exp(0x0100, 0x02)\n      dup2\n      sload\n      dup2\n      0xff\n      mul\n      not\n      and\n      swap1\n      dup4\n      iszero\n      iszero\n      mul\n      or\n      swap1\n      sstore\n      pop\n      0xa0\n      dup3\n      add\n      mload\n      dup2\n      0x02\n      add\n      exp(0x0100, 0x03)\n      dup2\n      sload\n      dup2\n      0xff\n      mul\n      not\n      and\n      swap1\n      dup4\n      iszero\n      iszero\n      mul\n      or\n      swap1\n      sstore\n      pop\n      swap1\n      pop\n      pop\n        /* \"DID.sol\":756:760  true */\n      0x01\n        /* \"DID.sol\":728:742  registeredUser */\n      dup1\n        /* \"DID.sol\":743:752  _hashedId */\n      dup5\n        /* \"DID.sol\":728:753  registeredUser[_hashedId] */\n      mload(0x40)\n      tag_60\n      swap2\n      swap1\n      tag_33\n      jump\t// in\n    tag_60:\n      swap1\n      dup2\n      mstore\n      0x20\n      add\n      mload(0x40)\n      dup1\n      swap2\n      sub\n      swap1\n      keccak256\n      0x00\n        /* \"DID.sol\":728:760  registeredUser[_hashedId] = true */\n      0x0100\n      exp\n      dup2\n      sload\n      dup2\n      0xff\n      mul\n      not\n      and\n      swap1\n      dup4\n      iszero\n      iszero\n      mul\n      or\n      swap1\n      sstore\n      pop\n        /* \"DID.sol\":411:768  {... */\n      pop\n        /* \"DID.sol\":336:768  function registerUser (string memory _hashedId ,User memory _data) external{... */\n      pop\n      pop\n      jump\t// out\n        /* \"DID.sol\":1479:1600  function isRegistered(string memory _hashedId) view public returns(bool){... */\n    tag_23:\n        /* \"DID.sol\":1546:1550  bool */\n      0x00\n        /* \"DID.sol\":1568:1582  registeredUser */\n      0x01\n        /* \"DID.sol\":1583:1592  _hashedId */\n      dup3\n        /* \"DID.sol\":1568:1593  registeredUser[_hashedId] */\n      mload(0x40)\n      tag_62\n      swap2\n      swap1\n      tag_33\n      jump\t// in\n    tag_62:\n      swap1\n      dup2\n      mstore\n      0x20\n      add\n      mload(0x40)\n      dup1\n      swap2\n      sub\n      swap1\n      keccak256\n      0x00\n      swap1\n      sload\n      swap1\n      0x0100\n      exp\n      swap1\n      div\n      0xff\n      and\n        /* \"DID.sol\":1561:1593  return registeredUser[_hashedId] */\n      swap1\n      pop\n        /* \"DID.sol\":1479:1600  function isRegistered(string memory _hashedId) view public returns(bool){... */\n      swap2\n      swap1\n      pop\n      jump\t// out\n        /* \"DID.sol\":1166:1347  function deleteUser (string memory _hashedId) external{... */\n    tag_28:\n        /* \"DID.sol\":1238:1252  registeredUser */\n      0x01\n        /* \"DID.sol\":1253:1262  _hashedId */\n      dup2\n        /* \"DID.sol\":1238:1263  registeredUser[_hashedId] */\n      mload(0x40)\n      tag_64\n      swap2\n      swap1\n      tag_33\n      jump\t// in\n    tag_64:\n      swap1\n      dup2\n      mstore\n      0x20\n      add\n      mload(0x40)\n      dup1\n      swap2\n      sub\n      swap1\n      keccak256\n      0x00\n      swap1\n      sload\n      swap1\n      0x0100\n      exp\n      swap1\n      div\n      0xff\n      and\n        /* \"DID.sol\":1230:1264  require(registeredUser[_hashedId]) */\n      tag_65\n      jumpi\n      0x00\n      dup1\n      revert\n    tag_65:\n        /* \"DID.sol\":1282:1286  user */\n      0x00\n        /* \"DID.sol\":1287:1296  _hashedId */\n      dup2\n        /* \"DID.sol\":1282:1297  user[_hashedId] */\n      mload(0x40)\n      tag_66\n      swap2\n      swap1\n      tag_33\n      jump\t// in\n    tag_66:\n      swap1\n      dup2\n      mstore\n      0x20\n      add\n      mload(0x40)\n      dup1\n      swap2\n      sub\n      swap1\n      keccak256\n      0x00\n        /* \"DID.sol\":1275:1297  delete user[_hashedId] */\n      dup1\n      dup3\n      add\n      0x00\n      tag_67\n      swap2\n      swap1\n      tag_68\n      jump\t// in\n    tag_67:\n      0x01\n      dup3\n      add\n      0x00\n      tag_69\n      swap2\n      swap1\n      tag_68\n      jump\t// in\n    tag_69:\n      0x02\n      dup3\n      add\n      exp(0x0100, 0x00)\n      dup2\n      sload\n      swap1\n      0xff\n      mul\n      not\n      and\n      swap1\n      sstore\n      0x02\n      dup3\n      add\n      exp(0x0100, 0x01)\n      dup2\n      sload\n      swap1\n      0xff\n      mul\n      not\n      and\n      swap1\n      sstore\n      0x02\n      dup3\n      add\n      exp(0x0100, 0x02)\n      dup2\n      sload\n      swap1\n      0xff\n      mul\n      not\n      and\n      swap1\n      sstore\n      0x02\n      dup3\n      add\n      exp(0x0100, 0x03)\n      dup2\n      sload\n      swap1\n      0xff\n      mul\n      not\n      and\n      swap1\n      sstore\n      pop\n      pop\n        /* \"DID.sol\":1335:1340  false */\n      0x00\n        /* \"DID.sol\":1307:1321  registeredUser */\n      0x01\n        /* \"DID.sol\":1322:1331  _hashedId */\n      dup3\n        /* \"DID.sol\":1307:1332  registeredUser[_hashedId] */\n      mload(0x40)\n      tag_70\n      swap2\n      swap1\n      tag_33\n      jump\t// in\n    tag_70:\n      swap1\n      dup2\n      mstore\n      0x20\n      add\n      mload(0x40)\n      dup1\n      swap2\n      sub\n      swap1\n      keccak256\n      0x00\n        /* \"DID.sol\":1307:1340  registeredUser[_hashedId] = false */\n      0x0100\n      exp\n      dup2\n      sload\n      dup2\n      0xff\n      mul\n      not\n      and\n      swap1\n      dup4\n      iszero\n      iszero\n      mul\n      or\n      swap1\n      sstore\n      pop\n        /* \"DID.sol\":1166:1347  function deleteUser (string memory _hashedId) external{... */\n      pop\n      jump\t// out\n    tag_30:\n      mload(0x40)\n      dup1\n      0xc0\n      add\n      0x40\n      mstore\n      dup1\n      0x60\n      dup2\n      mstore\n      0x20\n      add\n      0x60\n      dup2\n      mstore\n      0x20\n      add\n      iszero(iszero(0x00))\n      dup2\n      mstore\n      0x20\n      add\n      iszero(iszero(0x00))\n      dup2\n      mstore\n      0x20\n      add\n      iszero(iszero(0x00))\n      dup2\n      mstore\n      0x20\n      add\n      iszero(iszero(0x00))\n      dup2\n      mstore\n      pop\n      swap1\n      jump\t// out\n    tag_68:\n      pop\n      dup1\n      sload\n      tag_71\n      swap1\n      tag_35\n      jump\t// in\n    tag_71:\n      0x00\n      dup3\n      sstore\n      dup1\n      0x1f\n      lt\n      tag_73\n      jumpi\n      pop\n      jump(tag_72)\n    tag_73:\n      0x1f\n      add\n      0x20\n      swap1\n      div\n      swap1\n      0x00\n      mstore\n      keccak256(0x00, 0x20)\n      swap1\n      dup2\n      add\n      swap1\n      tag_74\n      swap2\n      swap1\n      tag_75\n      jump\t// in\n    tag_74:\n    tag_72:\n      pop\n      jump\t// out\n    tag_75:\n    tag_76:\n      dup1\n      dup3\n      gt\n      iszero\n      tag_77\n      jumpi\n      0x00\n      dup2\n      0x00\n      swap1\n      sstore\n      pop\n      0x01\n      add\n      jump(tag_76)\n    tag_77:\n      pop\n      swap1\n      jump\t// out\n        /* \"#utility.yul\":7:82   */\n    tag_78:\n        /* \"#utility.yul\":40:46   */\n      0x00\n        /* \"#utility.yul\":73:75   */\n      0x40\n        /* \"#utility.yul\":67:76   */\n      mload\n        /* \"#utility.yul\":57:76   */\n      swap1\n      pop\n        /* \"#utility.yul\":7:82   */\n      swap1\n      jump\t// out\n        /* \"#utility.yul\":88:205   */\n    tag_79:\n        /* \"#utility.yul\":197:198   */\n      0x00\n        /* \"#utility.yul\":194:195   */\n      dup1\n        /* \"#utility.yul\":187:199   */\n      revert\n        /* \"#utility.yul\":211:328   */\n    tag_80:\n        /* \"#utility.yul\":320:321   */\n      0x00\n        /* \"#utility.yul\":317:318   */\n      dup1\n        /* \"#utility.yul\":310:322   */\n      revert\n        /* \"#utility.yul\":334:451   */\n    tag_81:\n        /* \"#utility.yul\":443:444   */\n      0x00\n        /* \"#utility.yul\":440:441   */\n      dup1\n        /* \"#utility.yul\":433:445   */\n      revert\n        /* \"#utility.yul\":457:574   */\n    tag_82:\n        /* \"#utility.yul\":566:567   */\n      0x00\n        /* \"#utility.yul\":563:564   */\n      dup1\n        /* \"#utility.yul\":556:568   */\n      revert\n        /* \"#utility.yul\":580:682   */\n    tag_83:\n        /* \"#utility.yul\":621:627   */\n      0x00\n        /* \"#utility.yul\":672:674   */\n      0x1f\n        /* \"#utility.yul\":668:675   */\n      not\n        /* \"#utility.yul\":663:665   */\n      0x1f\n        /* \"#utility.yul\":656:661   */\n      dup4\n        /* \"#utility.yul\":652:666   */\n      add\n        /* \"#utility.yul\":648:676   */\n      and\n        /* \"#utility.yul\":638:676   */\n      swap1\n      pop\n        /* \"#utility.yul\":580:682   */\n      swap2\n      swap1\n      pop\n      jump\t// out\n        /* \"#utility.yul\":688:868   */\n    tag_84:\n        /* \"#utility.yul\":736:813   */\n      0x4e487b7100000000000000000000000000000000000000000000000000000000\n        /* \"#utility.yul\":733:734   */\n      0x00\n        /* \"#utility.yul\":726:814   */\n      mstore\n        /* \"#utility.yul\":833:837   */\n      0x41\n        /* \"#utility.yul\":830:831   */\n      0x04\n        /* \"#utility.yul\":823:838   */\n      mstore\n        /* \"#utility.yul\":857:861   */\n      0x24\n        /* \"#utility.yul\":854:855   */\n      0x00\n        /* \"#utility.yul\":847:862   */\n      revert\n        /* \"#utility.yul\":874:1155   */\n    tag_85:\n        /* \"#utility.yul\":957:984   */\n      tag_132\n        /* \"#utility.yul\":979:983   */\n      dup3\n        /* \"#utility.yul\":957:984   */\n      tag_83\n      jump\t// in\n    tag_132:\n        /* \"#utility.yul\":949:955   */\n      dup2\n        /* \"#utility.yul\":945:985   */\n      add\n        /* \"#utility.yul\":1087:1093   */\n      dup2\n        /* \"#utility.yul\":1075:1085   */\n      dup2\n        /* \"#utility.yul\":1072:1094   */\n      lt\n        /* \"#utility.yul\":1051:1069   */\n      0xffffffffffffffff\n        /* \"#utility.yul\":1039:1049   */\n      dup3\n        /* \"#utility.yul\":1036:1070   */\n      gt\n        /* \"#utility.yul\":1033:1095   */\n      or\n        /* \"#utility.yul\":1030:1118   */\n      iszero\n      tag_133\n      jumpi\n        /* \"#utility.yul\":1098:1116   */\n      tag_134\n      tag_84\n      jump\t// in\n    tag_134:\n        /* \"#utility.yul\":1030:1118   */\n    tag_133:\n        /* \"#utility.yul\":1138:1148   */\n      dup1\n        /* \"#utility.yul\":1134:1136   */\n      0x40\n        /* \"#utility.yul\":1127:1149   */\n      mstore\n        /* \"#utility.yul\":917:1155   */\n      pop\n        /* \"#utility.yul\":874:1155   */\n      pop\n      pop\n      jump\t// out\n        /* \"#utility.yul\":1161:1290   */\n    tag_86:\n        /* \"#utility.yul\":1195:1201   */\n      0x00\n        /* \"#utility.yul\":1222:1242   */\n      tag_136\n      tag_78\n      jump\t// in\n    tag_136:\n        /* \"#utility.yul\":1212:1242   */\n      swap1\n      pop\n        /* \"#utility.yul\":1251:1284   */\n      tag_137\n        /* \"#utility.yul\":1279:1283   */\n      dup3\n        /* \"#utility.yul\":1271:1277   */\n      dup3\n        /* \"#utility.yul\":1251:1284   */\n      tag_85\n      jump\t// in\n    tag_137:\n        /* \"#utility.yul\":1161:1290   */\n      swap2\n      swap1\n      pop\n      jump\t// out\n        /* \"#utility.yul\":1296:1604   */\n    tag_87:\n        /* \"#utility.yul\":1358:1362   */\n      0x00\n        /* \"#utility.yul\":1448:1466   */\n      0xffffffffffffffff\n        /* \"#utility.yul\":1440:1446   */\n      dup3\n        /* \"#utility.yul\":1437:1467   */\n      gt\n        /* \"#utility.yul\":1434:1490   */\n      iszero\n      tag_139\n      jumpi\n        /* \"#utility.yul\":1470:1488   */\n      tag_140\n      tag_84\n      jump\t// in\n    tag_140:\n        /* \"#utility.yul\":1434:1490   */\n    tag_139:\n        /* \"#utility.yul\":1508:1537   */\n      tag_141\n        /* \"#utility.yul\":1530:1536   */\n      dup3\n        /* \"#utility.yul\":1508:1537   */\n      tag_83\n      jump\t// in\n    tag_141:\n        /* \"#utility.yul\":1500:1537   */\n      swap1\n      pop\n        /* \"#utility.yul\":1592:1596   */\n      0x20\n        /* \"#utility.yul\":1586:1590   */\n      dup2\n        /* \"#utility.yul\":1582:1597   */\n      add\n        /* \"#utility.yul\":1574:1597   */\n      swap1\n      pop\n        /* \"#utility.yul\":1296:1604   */\n      swap2\n      swap1\n      pop\n      jump\t// out\n        /* \"#utility.yul\":1610:1756   */\n    tag_88:\n        /* \"#utility.yul\":1707:1713   */\n      dup3\n        /* \"#utility.yul\":1702:1705   */\n      dup2\n        /* \"#utility.yul\":1697:1700   */\n      dup4\n        /* \"#utility.yul\":1684:1714   */\n      calldatacopy\n        /* \"#utility.yul\":1748:1749   */\n      0x00\n        /* \"#utility.yul\":1739:1745   */\n      dup4\n        /* \"#utility.yul\":1734:1737   */\n      dup4\n        /* \"#utility.yul\":1730:1746   */\n      add\n        /* \"#utility.yul\":1723:1750   */\n      mstore\n        /* \"#utility.yul\":1610:1756   */\n      pop\n      pop\n      pop\n      jump\t// out\n        /* \"#utility.yul\":1762:2187   */\n    tag_89:\n        /* \"#utility.yul\":1840:1845   */\n      0x00\n        /* \"#utility.yul\":1865:1931   */\n      tag_144\n        /* \"#utility.yul\":1881:1930   */\n      tag_145\n        /* \"#utility.yul\":1923:1929   */\n      dup5\n        /* \"#utility.yul\":1881:1930   */\n      tag_87\n      jump\t// in\n    tag_145:\n        /* \"#utility.yul\":1865:1931   */\n      tag_86\n      jump\t// in\n    tag_144:\n        /* \"#utility.yul\":1856:1931   */\n      swap1\n      pop\n        /* \"#utility.yul\":1954:1960   */\n      dup3\n        /* \"#utility.yul\":1947:1952   */\n      dup2\n        /* \"#utility.yul\":1940:1961   */\n      mstore\n        /* \"#utility.yul\":1992:1996   */\n      0x20\n        /* \"#utility.yul\":1985:1990   */\n      dup2\n        /* \"#utility.yul\":1981:1997   */\n      add\n        /* \"#utility.yul\":2030:2033   */\n      dup5\n        /* \"#utility.yul\":2021:2027   */\n      dup5\n        /* \"#utility.yul\":2016:2019   */\n      dup5\n        /* \"#utility.yul\":2012:2028   */\n      add\n        /* \"#utility.yul\":2009:2034   */\n      gt\n        /* \"#utility.yul\":2006:2118   */\n      iszero\n      tag_146\n      jumpi\n        /* \"#utility.yul\":2037:2116   */\n      tag_147\n      tag_82\n      jump\t// in\n    tag_147:\n        /* \"#utility.yul\":2006:2118   */\n    tag_146:\n        /* \"#utility.yul\":2127:2181   */\n      tag_148\n        /* \"#utility.yul\":2174:2180   */\n      dup5\n        /* \"#utility.yul\":2169:2172   */\n      dup3\n        /* \"#utility.yul\":2164:2167   */\n      dup6\n        /* \"#utility.yul\":2127:2181   */\n      tag_88\n      jump\t// in\n    tag_148:\n        /* \"#utility.yul\":1846:2187   */\n      pop\n        /* \"#utility.yul\":1762:2187   */\n      swap4\n      swap3\n      pop\n      pop\n      pop\n      jump\t// out\n        /* \"#utility.yul\":2207:2547   */\n    tag_90:\n        /* \"#utility.yul\":2263:2268   */\n      0x00\n        /* \"#utility.yul\":2312:2315   */\n      dup3\n        /* \"#utility.yul\":2305:2309   */\n      0x1f\n        /* \"#utility.yul\":2297:2303   */\n      dup4\n        /* \"#utility.yul\":2293:2310   */\n      add\n        /* \"#utility.yul\":2289:2316   */\n      slt\n        /* \"#utility.yul\":2279:2401   */\n      tag_150\n      jumpi\n        /* \"#utility.yul\":2320:2399   */\n      tag_151\n      tag_81\n      jump\t// in\n    tag_151:\n        /* \"#utility.yul\":2279:2401   */\n    tag_150:\n        /* \"#utility.yul\":2437:2443   */\n      dup2\n        /* \"#utility.yul\":2424:2444   */\n      calldataload\n        /* \"#utility.yul\":2462:2541   */\n      tag_152\n        /* \"#utility.yul\":2537:2540   */\n      dup5\n        /* \"#utility.yul\":2529:2535   */\n      dup3\n        /* \"#utility.yul\":2522:2526   */\n      0x20\n        /* \"#utility.yul\":2514:2520   */\n      dup7\n        /* \"#utility.yul\":2510:2527   */\n      add\n        /* \"#utility.yul\":2462:2541   */\n      tag_89\n      jump\t// in\n    tag_152:\n        /* \"#utility.yul\":2453:2541   */\n      swap2\n      pop\n        /* \"#utility.yul\":2269:2547   */\n      pop\n        /* \"#utility.yul\":2207:2547   */\n      swap3\n      swap2\n      pop\n      pop\n      jump\t// out\n        /* \"#utility.yul\":2553:3062   */\n    tag_10:\n        /* \"#utility.yul\":2622:2628   */\n      0x00\n        /* \"#utility.yul\":2671:2673   */\n      0x20\n        /* \"#utility.yul\":2659:2668   */\n      dup3\n        /* \"#utility.yul\":2650:2657   */\n      dup5\n        /* \"#utility.yul\":2646:2669   */\n      sub\n        /* \"#utility.yul\":2642:2674   */\n      slt\n        /* \"#utility.yul\":2639:2758   */\n      iszero\n      tag_154\n      jumpi\n        /* \"#utility.yul\":2677:2756   */\n      tag_155\n      tag_79\n      jump\t// in\n    tag_155:\n        /* \"#utility.yul\":2639:2758   */\n    tag_154:\n        /* \"#utility.yul\":2825:2826   */\n      0x00\n        /* \"#utility.yul\":2814:2823   */\n      dup3\n        /* \"#utility.yul\":2810:2827   */\n      add\n        /* \"#utility.yul\":2797:2828   */\n      calldataload\n        /* \"#utility.yul\":2855:2873   */\n      0xffffffffffffffff\n        /* \"#utility.yul\":2847:2853   */\n      dup2\n        /* \"#utility.yul\":2844:2874   */\n      gt\n        /* \"#utility.yul\":2841:2958   */\n      iszero\n      tag_156\n      jumpi\n        /* \"#utility.yul\":2877:2956   */\n      tag_157\n      tag_80\n      jump\t// in\n    tag_157:\n        /* \"#utility.yul\":2841:2958   */\n    tag_156:\n        /* \"#utility.yul\":2982:3045   */\n      tag_158\n        /* \"#utility.yul\":3037:3044   */\n      dup5\n        /* \"#utility.yul\":3028:3034   */\n      dup3\n        /* \"#utility.yul\":3017:3026   */\n      dup6\n        /* \"#utility.yul\":3013:3035   */\n      add\n        /* \"#utility.yul\":2982:3045   */\n      tag_90\n      jump\t// in\n    tag_158:\n        /* \"#utility.yul\":2972:3045   */\n      swap2\n      pop\n        /* \"#utility.yul\":2768:3055   */\n      pop\n        /* \"#utility.yul\":2553:3062   */\n      swap3\n      swap2\n      pop\n      pop\n      jump\t// out\n        /* \"#utility.yul\":3068:3167   */\n    tag_91:\n        /* \"#utility.yul\":3120:3126   */\n      0x00\n        /* \"#utility.yul\":3154:3159   */\n      dup2\n        /* \"#utility.yul\":3148:3160   */\n      mload\n        /* \"#utility.yul\":3138:3160   */\n      swap1\n      pop\n        /* \"#utility.yul\":3068:3167   */\n      swap2\n      swap1\n      pop\n      jump\t// out\n        /* \"#utility.yul\":3173:3332   */\n    tag_92:\n        /* \"#utility.yul\":3247:3258   */\n      0x00\n        /* \"#utility.yul\":3281:3287   */\n      dup3\n        /* \"#utility.yul\":3276:3279   */\n      dup3\n        /* \"#utility.yul\":3269:3288   */\n      mstore\n        /* \"#utility.yul\":3321:3325   */\n      0x20\n        /* \"#utility.yul\":3316:3319   */\n      dup3\n        /* \"#utility.yul\":3312:3326   */\n      add\n        /* \"#utility.yul\":3297:3326   */\n      swap1\n      pop\n        /* \"#utility.yul\":3173:3332   */\n      swap3\n      swap2\n      pop\n      pop\n      jump\t// out\n        /* \"#utility.yul\":3338:3584   */\n    tag_93:\n        /* \"#utility.yul\":3419:3420   */\n      0x00\n        /* \"#utility.yul\":3429:3542   */\n    tag_162:\n        /* \"#utility.yul\":3443:3449   */\n      dup4\n        /* \"#utility.yul\":3440:3441   */\n      dup2\n        /* \"#utility.yul\":3437:3450   */\n      lt\n        /* \"#utility.yul\":3429:3542   */\n      iszero\n      tag_164\n      jumpi\n        /* \"#utility.yul\":3528:3529   */\n      dup1\n        /* \"#utility.yul\":3523:3526   */\n      dup3\n        /* \"#utility.yul\":3519:3530   */\n      add\n        /* \"#utility.yul\":3513:3531   */\n      mload\n        /* \"#utility.yul\":3509:3510   */\n      dup2\n        /* \"#utility.yul\":3504:3507   */\n      dup5\n        /* \"#utility.yul\":3500:3511   */\n      add\n        /* \"#utility.yul\":3493:3532   */\n      mstore\n        /* \"#utility.yul\":3465:3467   */\n      0x20\n        /* \"#utility.yul\":3462:3463   */\n      dup2\n        /* \"#utility.yul\":3458:3468   */\n      add\n        /* \"#utility.yul\":3453:3468   */\n      swap1\n      pop\n        /* \"#utility.yul\":3429:3542   */\n      jump(tag_162)\n    tag_164:\n        /* \"#utility.yul\":3576:3577   */\n      0x00\n        /* \"#utility.yul\":3567:3573   */\n      dup5\n        /* \"#utility.yul\":3562:3565   */\n      dup5\n        /* \"#utility.yul\":3558:3574   */\n      add\n        /* \"#utility.yul\":3551:3578   */\n      mstore\n        /* \"#utility.yul\":3400:3584   */\n      pop\n        /* \"#utility.yul\":3338:3584   */\n      pop\n      pop\n      pop\n      jump\t// out\n        /* \"#utility.yul\":3590:3947   */\n    tag_94:\n        /* \"#utility.yul\":3668:3671   */\n      0x00\n        /* \"#utility.yul\":3696:3735   */\n      tag_166\n        /* \"#utility.yul\":3729:3734   */\n      dup3\n        /* \"#utility.yul\":3696:3735   */\n      tag_91\n      jump\t// in\n    tag_166:\n        /* \"#utility.yul\":3751:3812   */\n      tag_167\n        /* \"#utility.yul\":3805:3811   */\n      dup2\n        /* \"#utility.yul\":3800:3803   */\n      dup6\n        /* \"#utility.yul\":3751:3812   */\n      tag_92\n      jump\t// in\n    tag_167:\n        /* \"#utility.yul\":3744:3812   */\n      swap4\n      pop\n        /* \"#utility.yul\":3821:3886   */\n      tag_168\n        /* \"#utility.yul\":3879:3885   */\n      dup2\n        /* \"#utility.yul\":3874:3877   */\n      dup6\n        /* \"#utility.yul\":3867:3871   */\n      0x20\n        /* \"#utility.yul\":3860:3865   */\n      dup7\n        /* \"#utility.yul\":3856:3872   */\n      add\n        /* \"#utility.yul\":3821:3886   */\n      tag_93\n      jump\t// in\n    tag_168:\n        /* \"#utility.yul\":3911:3940   */\n      tag_169\n        /* \"#utility.yul\":3933:3939   */\n      dup2\n        /* \"#utility.yul\":3911:3940   */\n      tag_83\n      jump\t// in\n    tag_169:\n        /* \"#utility.yul\":3906:3909   */\n      dup5\n        /* \"#utility.yul\":3902:3941   */\n      add\n        /* \"#utility.yul\":3895:3941   */\n      swap2\n      pop\n        /* \"#utility.yul\":3672:3947   */\n      pop\n        /* \"#utility.yul\":3590:3947   */\n      swap3\n      swap2\n      pop\n      pop\n      jump\t// out\n        /* \"#utility.yul\":3953:4043   */\n    tag_95:\n        /* \"#utility.yul\":3987:3994   */\n      0x00\n        /* \"#utility.yul\":4030:4035   */\n      dup2\n        /* \"#utility.yul\":4023:4036   */\n      iszero\n        /* \"#utility.yul\":4016:4037   */\n      iszero\n        /* \"#utility.yul\":4005:4037   */\n      swap1\n      pop\n        /* \"#utility.yul\":3953:4043   */\n      swap2\n      swap1\n      pop\n      jump\t// out\n        /* \"#utility.yul\":4049:4148   */\n    tag_96:\n        /* \"#utility.yul\":4120:4141   */\n      tag_172\n        /* \"#utility.yul\":4135:4140   */\n      dup2\n        /* \"#utility.yul\":4120:4141   */\n      tag_95\n      jump\t// in\n    tag_172:\n        /* \"#utility.yul\":4115:4118   */\n      dup3\n        /* \"#utility.yul\":4108:4142   */\n      mstore\n        /* \"#utility.yul\":4049:4148   */\n      pop\n      pop\n      jump\t// out\n        /* \"#utility.yul\":4198:5532   */\n    tag_97:\n        /* \"#utility.yul\":4309:4312   */\n      0x00\n        /* \"#utility.yul\":4345:4349   */\n      0xc0\n        /* \"#utility.yul\":4340:4343   */\n      dup4\n        /* \"#utility.yul\":4336:4350   */\n      add\n        /* \"#utility.yul\":4433:4437   */\n      0x00\n        /* \"#utility.yul\":4426:4431   */\n      dup4\n        /* \"#utility.yul\":4422:4438   */\n      add\n        /* \"#utility.yul\":4416:4439   */\n      mload\n        /* \"#utility.yul\":4486:4489   */\n      dup5\n        /* \"#utility.yul\":4480:4484   */\n      dup3\n        /* \"#utility.yul\":4476:4490   */\n      sub\n        /* \"#utility.yul\":4469:4473   */\n      0x00\n        /* \"#utility.yul\":4464:4467   */\n      dup7\n        /* \"#utility.yul\":4460:4474   */\n      add\n        /* \"#utility.yul\":4453:4491   */\n      mstore\n        /* \"#utility.yul\":4512:4585   */\n      tag_174\n        /* \"#utility.yul\":4580:4584   */\n      dup3\n        /* \"#utility.yul\":4566:4578   */\n      dup3\n        /* \"#utility.yul\":4512:4585   */\n      tag_94\n      jump\t// in\n    tag_174:\n        /* \"#utility.yul\":4504:4585   */\n      swap2\n      pop\n        /* \"#utility.yul\":4360:4596   */\n      pop\n        /* \"#utility.yul\":4682:4686   */\n      0x20\n        /* \"#utility.yul\":4675:4680   */\n      dup4\n        /* \"#utility.yul\":4671:4687   */\n      add\n        /* \"#utility.yul\":4665:4688   */\n      mload\n        /* \"#utility.yul\":4735:4738   */\n      dup5\n        /* \"#utility.yul\":4729:4733   */\n      dup3\n        /* \"#utility.yul\":4725:4739   */\n      sub\n        /* \"#utility.yul\":4718:4722   */\n      0x20\n        /* \"#utility.yul\":4713:4716   */\n      dup7\n        /* \"#utility.yul\":4709:4723   */\n      add\n        /* \"#utility.yul\":4702:4740   */\n      mstore\n        /* \"#utility.yul\":4761:4834   */\n      tag_175\n        /* \"#utility.yul\":4829:4833   */\n      dup3\n        /* \"#utility.yul\":4815:4827   */\n      dup3\n        /* \"#utility.yul\":4761:4834   */\n      tag_94\n      jump\t// in\n    tag_175:\n        /* \"#utility.yul\":4753:4834   */\n      swap2\n      pop\n        /* \"#utility.yul\":4606:4845   */\n      pop\n        /* \"#utility.yul\":4924:4928   */\n      0x40\n        /* \"#utility.yul\":4917:4922   */\n      dup4\n        /* \"#utility.yul\":4913:4929   */\n      add\n        /* \"#utility.yul\":4907:4930   */\n      mload\n        /* \"#utility.yul\":4943:5000   */\n      tag_176\n        /* \"#utility.yul\":4994:4998   */\n      0x40\n        /* \"#utility.yul\":4989:4992   */\n      dup7\n        /* \"#utility.yul\":4985:4999   */\n      add\n        /* \"#utility.yul\":4971:4983   */\n      dup3\n        /* \"#utility.yul\":4943:5000   */\n      tag_96\n      jump\t// in\n    tag_176:\n        /* \"#utility.yul\":4855:5010   */\n      pop\n        /* \"#utility.yul\":5089:5093   */\n      0x60\n        /* \"#utility.yul\":5082:5087   */\n      dup4\n        /* \"#utility.yul\":5078:5094   */\n      add\n        /* \"#utility.yul\":5072:5095   */\n      mload\n        /* \"#utility.yul\":5108:5165   */\n      tag_177\n        /* \"#utility.yul\":5159:5163   */\n      0x60\n        /* \"#utility.yul\":5154:5157   */\n      dup7\n        /* \"#utility.yul\":5150:5164   */\n      add\n        /* \"#utility.yul\":5136:5148   */\n      dup3\n        /* \"#utility.yul\":5108:5165   */\n      tag_96\n      jump\t// in\n    tag_177:\n        /* \"#utility.yul\":5020:5175   */\n      pop\n        /* \"#utility.yul\":5254:5258   */\n      0x80\n        /* \"#utility.yul\":5247:5252   */\n      dup4\n        /* \"#utility.yul\":5243:5259   */\n      add\n        /* \"#utility.yul\":5237:5260   */\n      mload\n        /* \"#utility.yul\":5273:5330   */\n      tag_178\n        /* \"#utility.yul\":5324:5328   */\n      0x80\n        /* \"#utility.yul\":5319:5322   */\n      dup7\n        /* \"#utility.yul\":5315:5329   */\n      add\n        /* \"#utility.yul\":5301:5313   */\n      dup3\n        /* \"#utility.yul\":5273:5330   */\n      tag_96\n      jump\t// in\n    tag_178:\n        /* \"#utility.yul\":5185:5340   */\n      pop\n        /* \"#utility.yul\":5419:5423   */\n      0xa0\n        /* \"#utility.yul\":5412:5417   */\n      dup4\n        /* \"#utility.yul\":5408:5424   */\n      add\n        /* \"#utility.yul\":5402:5425   */\n      mload\n        /* \"#utility.yul\":5438:5495   */\n      tag_179\n        /* \"#utility.yul\":5489:5493   */\n      0xa0\n        /* \"#utility.yul\":5484:5487   */\n      dup7\n        /* \"#utility.yul\":5480:5494   */\n      add\n        /* \"#utility.yul\":5466:5478   */\n      dup3\n        /* \"#utility.yul\":5438:5495   */\n      tag_96\n      jump\t// in\n    tag_179:\n        /* \"#utility.yul\":5350:5505   */\n      pop\n        /* \"#utility.yul\":5522:5526   */\n      dup1\n        /* \"#utility.yul\":5515:5526   */\n      swap2\n      pop\n        /* \"#utility.yul\":4314:5532   */\n      pop\n        /* \"#utility.yul\":4198:5532   */\n      swap3\n      swap2\n      pop\n      pop\n      jump\t// out\n        /* \"#utility.yul\":5538:5895   */\n    tag_13:\n        /* \"#utility.yul\":5673:5677   */\n      0x00\n        /* \"#utility.yul\":5711:5713   */\n      0x20\n        /* \"#utility.yul\":5700:5709   */\n      dup3\n        /* \"#utility.yul\":5696:5714   */\n      add\n        /* \"#utility.yul\":5688:5714   */\n      swap1\n      pop\n        /* \"#utility.yul\":5760:5769   */\n      dup2\n        /* \"#utility.yul\":5754:5758   */\n      dup2\n        /* \"#utility.yul\":5750:5770   */\n      sub\n        /* \"#utility.yul\":5746:5747   */\n      0x00\n        /* \"#utility.yul\":5735:5744   */\n      dup4\n        /* \"#utility.yul\":5731:5748   */\n      add\n        /* \"#utility.yul\":5724:5771   */\n      mstore\n        /* \"#utility.yul\":5788:5888   */\n      tag_181\n        /* \"#utility.yul\":5883:5887   */\n      dup2\n        /* \"#utility.yul\":5874:5880   */\n      dup5\n        /* \"#utility.yul\":5788:5888   */\n      tag_97\n      jump\t// in\n    tag_181:\n        /* \"#utility.yul\":5780:5888   */\n      swap1\n      pop\n        /* \"#utility.yul\":5538:5895   */\n      swap3\n      swap2\n      pop\n      pop\n      jump\t// out\n        /* \"#utility.yul\":5901:6018   */\n    tag_98:\n        /* \"#utility.yul\":6010:6011   */\n      0x00\n        /* \"#utility.yul\":6007:6008   */\n      dup1\n        /* \"#utility.yul\":6000:6012   */\n      revert\n        /* \"#utility.yul\":6024:6141   */\n    tag_99:\n        /* \"#utility.yul\":6133:6134   */\n      0x00\n        /* \"#utility.yul\":6130:6131   */\n      dup1\n        /* \"#utility.yul\":6123:6135   */\n      revert\n        /* \"#utility.yul\":6147:6263   */\n    tag_100:\n        /* \"#utility.yul\":6217:6238   */\n      tag_185\n        /* \"#utility.yul\":6232:6237   */\n      dup2\n        /* \"#utility.yul\":6217:6238   */\n      tag_95\n      jump\t// in\n    tag_185:\n        /* \"#utility.yul\":6210:6215   */\n      dup2\n        /* \"#utility.yul\":6207:6239   */\n      eq\n        /* \"#utility.yul\":6197:6257   */\n      tag_186\n      jumpi\n        /* \"#utility.yul\":6253:6254   */\n      0x00\n        /* \"#utility.yul\":6250:6251   */\n      dup1\n        /* \"#utility.yul\":6243:6255   */\n      revert\n        /* \"#utility.yul\":6197:6257   */\n    tag_186:\n        /* \"#utility.yul\":6147:6263   */\n      pop\n      jump\t// out\n        /* \"#utility.yul\":6269:6402   */\n    tag_101:\n        /* \"#utility.yul\":6312:6317   */\n      0x00\n        /* \"#utility.yul\":6350:6356   */\n      dup2\n        /* \"#utility.yul\":6337:6357   */\n      calldataload\n        /* \"#utility.yul\":6328:6357   */\n      swap1\n      pop\n        /* \"#utility.yul\":6366:6396   */\n      tag_188\n        /* \"#utility.yul\":6390:6395   */\n      dup2\n        /* \"#utility.yul\":6366:6396   */\n      tag_100\n      jump\t// in\n    tag_188:\n        /* \"#utility.yul\":6269:6402   */\n      swap3\n      swap2\n      pop\n      pop\n      jump\t// out\n        /* \"#utility.yul\":6432:7969   */\n    tag_102:\n        /* \"#utility.yul\":6502:6507   */\n      0x00\n        /* \"#utility.yul\":6546:6550   */\n      0xc0\n        /* \"#utility.yul\":6534:6543   */\n      dup3\n        /* \"#utility.yul\":6529:6532   */\n      dup5\n        /* \"#utility.yul\":6525:6544   */\n      sub\n        /* \"#utility.yul\":6521:6551   */\n      slt\n        /* \"#utility.yul\":6518:6635   */\n      iszero\n      tag_190\n      jumpi\n        /* \"#utility.yul\":6554:6633   */\n      tag_191\n      tag_98\n      jump\t// in\n    tag_191:\n        /* \"#utility.yul\":6518:6635   */\n    tag_190:\n        /* \"#utility.yul\":6653:6674   */\n      tag_192\n        /* \"#utility.yul\":6669:6673   */\n      0xc0\n        /* \"#utility.yul\":6653:6674   */\n      tag_86\n      jump\t// in\n    tag_192:\n        /* \"#utility.yul\":6644:6674   */\n      swap1\n      pop\n        /* \"#utility.yul\":6762:6763   */\n      0x00\n        /* \"#utility.yul\":6751:6760   */\n      dup3\n        /* \"#utility.yul\":6747:6764   */\n      add\n        /* \"#utility.yul\":6734:6765   */\n      calldataload\n        /* \"#utility.yul\":6792:6810   */\n      0xffffffffffffffff\n        /* \"#utility.yul\":6784:6790   */\n      dup2\n        /* \"#utility.yul\":6781:6811   */\n      gt\n        /* \"#utility.yul\":6778:6895   */\n      iszero\n      tag_193\n      jumpi\n        /* \"#utility.yul\":6814:6893   */\n      tag_194\n      tag_99\n      jump\t// in\n    tag_194:\n        /* \"#utility.yul\":6778:6895   */\n    tag_193:\n        /* \"#utility.yul\":6934:6993   */\n      tag_195\n        /* \"#utility.yul\":6989:6992   */\n      dup5\n        /* \"#utility.yul\":6980:6986   */\n      dup3\n        /* \"#utility.yul\":6969:6978   */\n      dup6\n        /* \"#utility.yul\":6965:6987   */\n      add\n        /* \"#utility.yul\":6934:6993   */\n      tag_90\n      jump\t// in\n    tag_195:\n        /* \"#utility.yul\":6927:6931   */\n      0x00\n        /* \"#utility.yul\":6920:6925   */\n      dup4\n        /* \"#utility.yul\":6916:6932   */\n      add\n        /* \"#utility.yul\":6909:6994   */\n      mstore\n        /* \"#utility.yul\":6684:7005   */\n      pop\n        /* \"#utility.yul\":7096:7098   */\n      0x20\n        /* \"#utility.yul\":7085:7094   */\n      dup3\n        /* \"#utility.yul\":7081:7099   */\n      add\n        /* \"#utility.yul\":7068:7100   */\n      calldataload\n        /* \"#utility.yul\":7127:7145   */\n      0xffffffffffffffff\n        /* \"#utility.yul\":7119:7125   */\n      dup2\n        /* \"#utility.yul\":7116:7146   */\n      gt\n        /* \"#utility.yul\":7113:7230   */\n      iszero\n      tag_196\n      jumpi\n        /* \"#utility.yul\":7149:7228   */\n      tag_197\n      tag_99\n      jump\t// in\n    tag_197:\n        /* \"#utility.yul\":7113:7230   */\n    tag_196:\n        /* \"#utility.yul\":7269:7328   */\n      tag_198\n        /* \"#utility.yul\":7324:7327   */\n      dup5\n        /* \"#utility.yul\":7315:7321   */\n      dup3\n        /* \"#utility.yul\":7304:7313   */\n      dup6\n        /* \"#utility.yul\":7300:7322   */\n      add\n        /* \"#utility.yul\":7269:7328   */\n      tag_90\n      jump\t// in\n    tag_198:\n        /* \"#utility.yul\":7262:7266   */\n      0x20\n        /* \"#utility.yul\":7255:7260   */\n      dup4\n        /* \"#utility.yul\":7251:7267   */\n      add\n        /* \"#utility.yul\":7244:7329   */\n      mstore\n        /* \"#utility.yul\":7015:7340   */\n      pop\n        /* \"#utility.yul\":7396:7398   */\n      0x40\n        /* \"#utility.yul\":7437:7483   */\n      tag_199\n        /* \"#utility.yul\":7479:7482   */\n      dup5\n        /* \"#utility.yul\":7470:7476   */\n      dup3\n        /* \"#utility.yul\":7459:7468   */\n      dup6\n        /* \"#utility.yul\":7455:7477   */\n      add\n        /* \"#utility.yul\":7437:7483   */\n      tag_101\n      jump\t// in\n    tag_199:\n        /* \"#utility.yul\":7430:7434   */\n      0x40\n        /* \"#utility.yul\":7423:7428   */\n      dup4\n        /* \"#utility.yul\":7419:7435   */\n      add\n        /* \"#utility.yul\":7412:7484   */\n      mstore\n        /* \"#utility.yul\":7350:7495   */\n      pop\n        /* \"#utility.yul\":7551:7553   */\n      0x60\n        /* \"#utility.yul\":7592:7638   */\n      tag_200\n        /* \"#utility.yul\":7634:7637   */\n      dup5\n        /* \"#utility.yul\":7625:7631   */\n      dup3\n        /* \"#utility.yul\":7614:7623   */\n      dup6\n        /* \"#utility.yul\":7610:7632   */\n      add\n        /* \"#utility.yul\":7592:7638   */\n      tag_101\n      jump\t// in\n    tag_200:\n        /* \"#utility.yul\":7585:7589   */\n      0x60\n        /* \"#utility.yul\":7578:7583   */\n      dup4\n        /* \"#utility.yul\":7574:7590   */\n      add\n        /* \"#utility.yul\":7567:7639   */\n      mstore\n        /* \"#utility.yul\":7505:7650   */\n      pop\n        /* \"#utility.yul\":7706:7709   */\n      0x80\n        /* \"#utility.yul\":7748:7794   */\n      tag_201\n        /* \"#utility.yul\":7790:7793   */\n      dup5\n        /* \"#utility.yul\":7781:7787   */\n      dup3\n        /* \"#utility.yul\":7770:7779   */\n      dup6\n        /* \"#utility.yul\":7766:7788   */\n      add\n        /* \"#utility.yul\":7748:7794   */\n      tag_101\n      jump\t// in\n    tag_201:\n        /* \"#utility.yul\":7741:7745   */\n      0x80\n        /* \"#utility.yul\":7734:7739   */\n      dup4\n        /* \"#utility.yul\":7730:7746   */\n      add\n        /* \"#utility.yul\":7723:7795   */\n      mstore\n        /* \"#utility.yul\":7660:7806   */\n      pop\n        /* \"#utility.yul\":7862:7865   */\n      0xa0\n        /* \"#utility.yul\":7904:7950   */\n      tag_202\n        /* \"#utility.yul\":7946:7949   */\n      dup5\n        /* \"#utility.yul\":7937:7943   */\n      dup3\n        /* \"#utility.yul\":7926:7935   */\n      dup6\n        /* \"#utility.yul\":7922:7944   */\n      add\n        /* \"#utility.yul\":7904:7950   */\n      tag_101\n      jump\t// in\n    tag_202:\n        /* \"#utility.yul\":7897:7901   */\n      0xa0\n        /* \"#utility.yul\":7890:7895   */\n      dup4\n        /* \"#utility.yul\":7886:7902   */\n      add\n        /* \"#utility.yul\":7879:7951   */\n      mstore\n        /* \"#utility.yul\":7816:7962   */\n      pop\n        /* \"#utility.yul\":6432:7969   */\n      swap3\n      swap2\n      pop\n      pop\n      jump\t// out\n        /* \"#utility.yul\":7975:8831   */\n    tag_16:\n        /* \"#utility.yul\":8074:8080   */\n      0x00\n        /* \"#utility.yul\":8082:8088   */\n      dup1\n        /* \"#utility.yul\":8131:8133   */\n      0x40\n        /* \"#utility.yul\":8119:8128   */\n      dup4\n        /* \"#utility.yul\":8110:8117   */\n      dup6\n        /* \"#utility.yul\":8106:8129   */\n      sub\n        /* \"#utility.yul\":8102:8134   */\n      slt\n        /* \"#utility.yul\":8099:8218   */\n      iszero\n      tag_204\n      jumpi\n        /* \"#utility.yul\":8137:8216   */\n      tag_205\n      tag_79\n      jump\t// in\n    tag_205:\n        /* \"#utility.yul\":8099:8218   */\n    tag_204:\n        /* \"#utility.yul\":8285:8286   */\n      0x00\n        /* \"#utility.yul\":8274:8283   */\n      dup4\n        /* \"#utility.yul\":8270:8287   */\n      add\n        /* \"#utility.yul\":8257:8288   */\n      calldataload\n        /* \"#utility.yul\":8315:8333   */\n      0xffffffffffffffff\n        /* \"#utility.yul\":8307:8313   */\n      dup2\n        /* \"#utility.yul\":8304:8334   */\n      gt\n        /* \"#utility.yul\":8301:8418   */\n      iszero\n      tag_206\n      jumpi\n        /* \"#utility.yul\":8337:8416   */\n      tag_207\n      tag_80\n      jump\t// in\n    tag_207:\n        /* \"#utility.yul\":8301:8418   */\n    tag_206:\n        /* \"#utility.yul\":8442:8505   */\n      tag_208\n        /* \"#utility.yul\":8497:8504   */\n      dup6\n        /* \"#utility.yul\":8488:8494   */\n      dup3\n        /* \"#utility.yul\":8477:8486   */\n      dup7\n        /* \"#utility.yul\":8473:8495   */\n      add\n        /* \"#utility.yul\":8442:8505   */\n      tag_90\n      jump\t// in\n    tag_208:\n        /* \"#utility.yul\":8432:8505   */\n      swap3\n      pop\n        /* \"#utility.yul\":8228:8515   */\n      pop\n        /* \"#utility.yul\":8582:8584   */\n      0x20\n        /* \"#utility.yul\":8571:8580   */\n      dup4\n        /* \"#utility.yul\":8567:8585   */\n      add\n        /* \"#utility.yul\":8554:8586   */\n      calldataload\n        /* \"#utility.yul\":8613:8631   */\n      0xffffffffffffffff\n        /* \"#utility.yul\":8605:8611   */\n      dup2\n        /* \"#utility.yul\":8602:8632   */\n      gt\n        /* \"#utility.yul\":8599:8716   */\n      iszero\n      tag_209\n      jumpi\n        /* \"#utility.yul\":8635:8714   */\n      tag_210\n      tag_80\n      jump\t// in\n    tag_210:\n        /* \"#utility.yul\":8599:8716   */\n    tag_209:\n        /* \"#utility.yul\":8740:8814   */\n      tag_211\n        /* \"#utility.yul\":8806:8813   */\n      dup6\n        /* \"#utility.yul\":8797:8803   */\n      dup3\n        /* \"#utility.yul\":8786:8795   */\n      dup7\n        /* \"#utility.yul\":8782:8804   */\n      add\n        /* \"#utility.yul\":8740:8814   */\n      tag_102\n      jump\t// in\n    tag_211:\n        /* \"#utility.yul\":8730:8814   */\n      swap2\n      pop\n        /* \"#utility.yul\":8525:8824   */\n      pop\n        /* \"#utility.yul\":7975:8831   */\n      swap3\n      pop\n      swap3\n      swap1\n      pop\n      jump\t// out\n        /* \"#utility.yul\":8837:8946   */\n    tag_103:\n        /* \"#utility.yul\":8918:8939   */\n      tag_213\n        /* \"#utility.yul\":8933:8938   */\n      dup2\n        /* \"#utility.yul\":8918:8939   */\n      tag_95\n      jump\t// in\n    tag_213:\n        /* \"#utility.yul\":8913:8916   */\n      dup3\n        /* \"#utility.yul\":8906:8940   */\n      mstore\n        /* \"#utility.yul\":8837:8946   */\n      pop\n      pop\n      jump\t// out\n        /* \"#utility.yul\":8952:9162   */\n    tag_25:\n        /* \"#utility.yul\":9039:9043   */\n      0x00\n        /* \"#utility.yul\":9077:9079   */\n      0x20\n        /* \"#utility.yul\":9066:9075   */\n      dup3\n        /* \"#utility.yul\":9062:9080   */\n      add\n        /* \"#utility.yul\":9054:9080   */\n      swap1\n      pop\n        /* \"#utility.yul\":9090:9155   */\n      tag_215\n        /* \"#utility.yul\":9152:9153   */\n      0x00\n        /* \"#utility.yul\":9141:9150   */\n      dup4\n        /* \"#utility.yul\":9137:9154   */\n      add\n        /* \"#utility.yul\":9128:9134   */\n      dup5\n        /* \"#utility.yul\":9090:9155   */\n      tag_103\n      jump\t// in\n    tag_215:\n        /* \"#utility.yul\":8952:9162   */\n      swap3\n      swap2\n      pop\n      pop\n      jump\t// out\n        /* \"#utility.yul\":9168:9316   */\n    tag_104:\n        /* \"#utility.yul\":9270:9281   */\n      0x00\n        /* \"#utility.yul\":9307:9310   */\n      dup2\n        /* \"#utility.yul\":9292:9310   */\n      swap1\n      pop\n        /* \"#utility.yul\":9168:9316   */\n      swap3\n      swap2\n      pop\n      pop\n      jump\t// out\n        /* \"#utility.yul\":9322:9712   */\n    tag_105:\n        /* \"#utility.yul\":9428:9431   */\n      0x00\n        /* \"#utility.yul\":9456:9495   */\n      tag_218\n        /* \"#utility.yul\":9489:9494   */\n      dup3\n        /* \"#utility.yul\":9456:9495   */\n      tag_91\n      jump\t// in\n    tag_218:\n        /* \"#utility.yul\":9511:9600   */\n      tag_219\n        /* \"#utility.yul\":9593:9599   */\n      dup2\n        /* \"#utility.yul\":9588:9591   */\n      dup6\n        /* \"#utility.yul\":9511:9600   */\n      tag_104\n      jump\t// in\n    tag_219:\n        /* \"#utility.yul\":9504:9600   */\n      swap4\n      pop\n        /* \"#utility.yul\":9609:9674   */\n      tag_220\n        /* \"#utility.yul\":9667:9673   */\n      dup2\n        /* \"#utility.yul\":9662:9665   */\n      dup6\n        /* \"#utility.yul\":9655:9659   */\n      0x20\n        /* \"#utility.yul\":9648:9653   */\n      dup7\n        /* \"#utility.yul\":9644:9660   */\n      add\n        /* \"#utility.yul\":9609:9674   */\n      tag_93\n      jump\t// in\n    tag_220:\n        /* \"#utility.yul\":9699:9705   */\n      dup1\n        /* \"#utility.yul\":9694:9697   */\n      dup5\n        /* \"#utility.yul\":9690:9706   */\n      add\n        /* \"#utility.yul\":9683:9706   */\n      swap2\n      pop\n        /* \"#utility.yul\":9432:9712   */\n      pop\n        /* \"#utility.yul\":9322:9712   */\n      swap3\n      swap2\n      pop\n      pop\n      jump\t// out\n        /* \"#utility.yul\":9718:9993   */\n    tag_33:\n        /* \"#utility.yul\":9850:9853   */\n      0x00\n        /* \"#utility.yul\":9872:9967   */\n      tag_222\n        /* \"#utility.yul\":9963:9966   */\n      dup3\n        /* \"#utility.yul\":9954:9960   */\n      dup5\n        /* \"#utility.yul\":9872:9967   */\n      tag_105\n      jump\t// in\n    tag_222:\n        /* \"#utility.yul\":9865:9967   */\n      swap2\n      pop\n        /* \"#utility.yul\":9984:9987   */\n      dup2\n        /* \"#utility.yul\":9977:9987   */\n      swap1\n      pop\n        /* \"#utility.yul\":9718:9993   */\n      swap3\n      swap2\n      pop\n      pop\n      jump\t// out\n        /* \"#utility.yul\":9999:10179   */\n    tag_106:\n        /* \"#utility.yul\":10047:10124   */\n      0x4e487b7100000000000000000000000000000000000000000000000000000000\n        /* \"#utility.yul\":10044:10045   */\n      0x00\n        /* \"#utility.yul\":10037:10125   */\n      mstore\n        /* \"#utility.yul\":10144:10148   */\n      0x22\n        /* \"#utility.yul\":10141:10142   */\n      0x04\n        /* \"#utility.yul\":10134:10149   */\n      mstore\n        /* \"#utility.yul\":10168:10172   */\n      0x24\n        /* \"#utility.yul\":10165:10166   */\n      0x00\n        /* \"#utility.yul\":10158:10173   */\n      revert\n        /* \"#utility.yul\":10185:10505   */\n    tag_35:\n        /* \"#utility.yul\":10229:10235   */\n      0x00\n        /* \"#utility.yul\":10266:10267   */\n      0x02\n        /* \"#utility.yul\":10260:10264   */\n      dup3\n        /* \"#utility.yul\":10256:10268   */\n      div\n        /* \"#utility.yul\":10246:10268   */\n      swap1\n      pop\n        /* \"#utility.yul\":10313:10314   */\n      0x01\n        /* \"#utility.yul\":10307:10311   */\n      dup3\n        /* \"#utility.yul\":10303:10315   */\n      and\n        /* \"#utility.yul\":10334:10352   */\n      dup1\n        /* \"#utility.yul\":10324:10405   */\n      tag_225\n      jumpi\n        /* \"#utility.yul\":10390:10394   */\n      0x7f\n        /* \"#utility.yul\":10382:10388   */\n      dup3\n        /* \"#utility.yul\":10378:10395   */\n      and\n        /* \"#utility.yul\":10368:10395   */\n      swap2\n      pop\n        /* \"#utility.yul\":10324:10405   */\n    tag_225:\n        /* \"#utility.yul\":10452:10454   */\n      0x20\n        /* \"#utility.yul\":10444:10450   */\n      dup3\n        /* \"#utility.yul\":10441:10455   */\n      lt\n        /* \"#utility.yul\":10421:10439   */\n      dup2\n        /* \"#utility.yul\":10418:10456   */\n      sub\n        /* \"#utility.yul\":10415:10499   */\n      tag_226\n      jumpi\n        /* \"#utility.yul\":10471:10489   */\n      tag_227\n      tag_106\n      jump\t// in\n    tag_227:\n        /* \"#utility.yul\":10415:10499   */\n    tag_226:\n        /* \"#utility.yul\":10236:10505   */\n      pop\n        /* \"#utility.yul\":10185:10505   */\n      swap2\n      swap1\n      pop\n      jump\t// out\n        /* \"#utility.yul\":10511:10652   */\n    tag_107:\n        /* \"#utility.yul\":10560:10564   */\n      0x00\n        /* \"#utility.yul\":10583:10586   */\n      dup2\n        /* \"#utility.yul\":10575:10586   */\n      swap1\n      pop\n        /* \"#utility.yul\":10606:10609   */\n      dup2\n        /* \"#utility.yul\":10603:10604   */\n      0x00\n        /* \"#utility.yul\":10596:10610   */\n      mstore\n        /* \"#utility.yul\":10640:10644   */\n      0x20\n        /* \"#utility.yul\":10637:10638   */\n      0x00\n        /* \"#utility.yul\":10627:10645   */\n      keccak256\n        /* \"#utility.yul\":10619:10645   */\n      swap1\n      pop\n        /* \"#utility.yul\":10511:10652   */\n      swap2\n      swap1\n      pop\n      jump\t// out\n        /* \"#utility.yul\":10658:10751   */\n    tag_108:\n        /* \"#utility.yul\":10695:10701   */\n      0x00\n        /* \"#utility.yul\":10742:10744   */\n      0x20\n        /* \"#utility.yul\":10737:10739   */\n      0x1f\n        /* \"#utility.yul\":10730:10735   */\n      dup4\n        /* \"#utility.yul\":10726:10740   */\n      add\n        /* \"#utility.yul\":10722:10745   */\n      div\n        /* \"#utility.yul\":10712:10745   */\n      swap1\n      pop\n        /* \"#utility.yul\":10658:10751   */\n      swap2\n      swap1\n      pop\n      jump\t// out\n        /* \"#utility.yul\":10757:10864   */\n    tag_109:\n        /* \"#utility.yul\":10801:10809   */\n      0x00\n        /* \"#utility.yul\":10851:10856   */\n      dup3\n        /* \"#utility.yul\":10845:10849   */\n      dup3\n        /* \"#utility.yul\":10841:10857   */\n      shl\n        /* \"#utility.yul\":10820:10857   */\n      swap1\n      pop\n        /* \"#utility.yul\":10757:10864   */\n      swap3\n      swap2\n      pop\n      pop\n      jump\t// out\n        /* \"#utility.yul\":10870:11263   */\n    tag_110:\n        /* \"#utility.yul\":10939:10945   */\n      0x00\n        /* \"#utility.yul\":10989:10990   */\n      0x08\n        /* \"#utility.yul\":10977:10987   */\n      dup4\n        /* \"#utility.yul\":10973:10991   */\n      mul\n        /* \"#utility.yul\":11012:11109   */\n      tag_232\n        /* \"#utility.yul\":11042:11108   */\n      0xffffffffffffffffffffffffffffffffffffffffffffffffffffffffffffffff\n        /* \"#utility.yul\":11031:11040   */\n      dup3\n        /* \"#utility.yul\":11012:11109   */\n      tag_109\n      jump\t// in\n    tag_232:\n        /* \"#utility.yul\":11130:11169   */\n      tag_233\n        /* \"#utility.yul\":11160:11168   */\n      dup7\n        /* \"#utility.yul\":11149:11158   */\n      dup4\n        /* \"#utility.yul\":11130:11169   */\n      tag_109\n      jump\t// in\n    tag_233:\n        /* \"#utility.yul\":11118:11169   */\n      swap6\n      pop\n        /* \"#utility.yul\":11202:11206   */\n      dup1\n        /* \"#utility.yul\":11198:11207   */\n      not\n        /* \"#utility.yul\":11191:11196   */\n      dup5\n        /* \"#utility.yul\":11187:11208   */\n      and\n        /* \"#utility.yul\":11178:11208   */\n      swap4\n      pop\n        /* \"#utility.yul\":11251:11255   */\n      dup1\n        /* \"#utility.yul\":11241:11249   */\n      dup7\n        /* \"#utility.yul\":11237:11256   */\n      and\n        /* \"#utility.yul\":11230:11235   */\n      dup5\n        /* \"#utility.yul\":11227:11257   */\n      or\n        /* \"#utility.yul\":11217:11257   */\n      swap3\n      pop\n        /* \"#utility.yul\":10946:11263   */\n      pop\n      pop\n        /* \"#utility.yul\":10870:11263   */\n      swap4\n      swap3\n      pop\n      pop\n      pop\n      jump\t// out\n        /* \"#utility.yul\":11269:11346   */\n    tag_111:\n        /* \"#utility.yul\":11306:11313   */\n      0x00\n        /* \"#utility.yul\":11335:11340   */\n      dup2\n        /* \"#utility.yul\":11324:11340   */\n      swap1\n      pop\n        /* \"#utility.yul\":11269:11346   */\n      swap2\n      swap1\n      pop\n      jump\t// out\n        /* \"#utility.yul\":11352:11412   */\n    tag_112:\n        /* \"#utility.yul\":11380:11383   */\n      0x00\n        /* \"#utility.yul\":11401:11406   */\n      dup2\n        /* \"#utility.yul\":11394:11406   */\n      swap1\n      pop\n        /* \"#utility.yul\":11352:11412   */\n      swap2\n      swap1\n      pop\n      jump\t// out\n        /* \"#utility.yul\":11418:11560   */\n    tag_113:\n        /* \"#utility.yul\":11468:11477   */\n      0x00\n        /* \"#utility.yul\":11501:11554   */\n      tag_237\n        /* \"#utility.yul\":11519:11553   */\n      tag_238\n        /* \"#utility.yul\":11528:11552   */\n      tag_239\n        /* \"#utility.yul\":11546:11551   */\n      dup5\n        /* \"#utility.yul\":11528:11552   */\n      tag_111\n      jump\t// in\n    tag_239:\n        /* \"#utility.yul\":11519:11553   */\n      tag_112\n      jump\t// in\n    tag_238:\n        /* \"#utility.yul\":11501:11554   */\n      tag_111\n      jump\t// in\n    tag_237:\n        /* \"#utility.yul\":11488:11554   */\n      swap1\n      pop\n        /* \"#utility.yul\":11418:11560   */\n      swap2\n      swap1\n      pop\n      jump\t// out\n        /* \"#utility.yul\":11566:11641   */\n    tag_114:\n        /* \"#utility.yul\":11609:11612   */\n      0x00\n        /* \"#utility.yul\":11630:11635   */\n      dup2\n        /* \"#utility.yul\":11623:11635   */\n      swap1\n      pop\n        /* \"#utility.yul\":11566:11641   */\n      swap2\n      swap1\n      pop\n      jump\t// out\n        /* \"#utility.yul\":11647:11916   */\n    tag_115:\n        /* \"#utility.yul\":11757:11796   */\n      tag_242\n        /* \"#utility.yul\":11788:11795   */\n      dup4\n        /* \"#utility.yul\":11757:11796   */\n      tag_113\n      jump\t// in\n    tag_242:\n        /* \"#utility.yul\":11818:11909   */\n      tag_243\n        /* \"#utility.yul\":11867:11908   */\n      tag_244\n        /* \"#utility.yul\":11891:11907   */\n      dup3\n        /* \"#utility.yul\":11867:11908   */\n      tag_114\n      jump\t// in\n    tag_244:\n        /* \"#utility.yul\":11859:11865   */\n      dup5\n        /* \"#utility.yul\":11852:11856   */\n      dup5\n        /* \"#utility.yul\":11846:11857   */\n      sload\n        /* \"#utility.yul\":11818:11909   */\n      tag_110\n      jump\t// in\n    tag_243:\n        /* \"#utility.yul\":11812:11816   */\n      dup3\n        /* \"#utility.yul\":11805:11910   */\n      sstore\n        /* \"#utility.yul\":11723:11916   */\n      pop\n        /* \"#utility.yul\":11647:11916   */\n      pop\n      pop\n      pop\n      jump\t// out\n        /* \"#utility.yul\":11922:11995   */\n    tag_116:\n        /* \"#utility.yul\":11967:11970   */\n      0x00\n        /* \"#utility.yul\":11922:11995   */\n      swap1\n      jump\t// out\n        /* \"#utility.yul\":12001:12190   */\n    tag_117:\n        /* \"#utility.yul\":12078:12110   */\n      tag_247\n      tag_116\n      jump\t// in\n    tag_247:\n        /* \"#utility.yul\":12119:12184   */\n      tag_248\n        /* \"#utility.yul\":12177:12183   */\n      dup2\n        /* \"#utility.yul\":12169:12175   */\n      dup5\n        /* \"#utility.yul\":12163:12167   */\n      dup5\n        /* \"#utility.yul\":12119:12184   */\n      tag_115\n      jump\t// in\n    tag_248:\n        /* \"#utility.yul\":12054:12190   */\n      pop\n        /* \"#utility.yul\":12001:12190   */\n      pop\n      pop\n      jump\t// out\n        /* \"#utility.yul\":12196:12382   */\n    tag_118:\n        /* \"#utility.yul\":12256:12376   */\n    tag_250:\n        /* \"#utility.yul\":12273:12276   */\n      dup2\n        /* \"#utility.yul\":12266:12271   */\n      dup2\n        /* \"#utility.yul\":12263:12277   */\n      lt\n        /* \"#utility.yul\":12256:12376   */\n      iszero\n      tag_252\n      jumpi\n        /* \"#utility.yul\":12327:12366   */\n      tag_253\n        /* \"#utility.yul\":12364:12365   */\n      0x00\n        /* \"#utility.yul\":12357:12362   */\n      dup3\n        /* \"#utility.yul\":12327:12366   */\n      tag_117\n      jump\t// in\n    tag_253:\n        /* \"#utility.yul\":12300:12301   */\n      0x01\n        /* \"#utility.yul\":12293:12298   */\n      dup2\n        /* \"#utility.yul\":12289:12302   */\n      add\n        /* \"#utility.yul\":12280:12302   */\n      swap1\n      pop\n        /* \"#utility.yul\":12256:12376   */\n      jump(tag_250)\n    tag_252:\n        /* \"#utility.yul\":12196:12382   */\n      pop\n      pop\n      jump\t// out\n        /* \"#utility.yul\":12388:12931   */\n    tag_119:\n        /* \"#utility.yul\":12489:12491   */\n      0x1f\n        /* \"#utility.yul\":12484:12487   */\n      dup3\n        /* \"#utility.yul\":12481:12492   */\n      gt\n        /* \"#utility.yul\":12478:12924   */\n      iszero\n      tag_255\n      jumpi\n        /* \"#utility.yul\":12523:12561   */\n      tag_256\n        /* \"#utility.yul\":12555:12560   */\n      dup2\n        /* \"#utility.yul\":12523:12561   */\n      tag_107\n      jump\t// in\n    tag_256:\n        /* \"#utility.yul\":12607:12636   */\n      tag_257\n        /* \"#utility.yul\":12625:12635   */\n      dup5\n        /* \"#utility.yul\":12607:12636   */\n      tag_108\n      jump\t// in\n    tag_257:\n        /* \"#utility.yul\":12597:12605   */\n      dup2\n        /* \"#utility.yul\":12593:12637   */\n      add\n        /* \"#utility.yul\":12790:12792   */\n      0x20\n        /* \"#utility.yul\":12778:12788   */\n      dup6\n        /* \"#utility.yul\":12775:12793   */\n      lt\n        /* \"#utility.yul\":12772:12821   */\n      iszero\n      tag_258\n      jumpi\n        /* \"#utility.yul\":12811:12819   */\n      dup2\n        /* \"#utility.yul\":12796:12819   */\n      swap1\n      pop\n        /* \"#utility.yul\":12772:12821   */\n    tag_258:\n        /* \"#utility.yul\":12834:12914   */\n      tag_259\n        /* \"#utility.yul\":12890:12912   */\n      tag_260\n        /* \"#utility.yul\":12908:12911   */\n      dup6\n        /* \"#utility.yul\":12890:12912   */\n      tag_108\n      jump\t// in\n    tag_260:\n        /* \"#utility.yul\":12880:12888   */\n      dup4\n        /* \"#utility.yul\":12876:12913   */\n      add\n        /* \"#utility.yul\":12863:12874   */\n      dup3\n        /* \"#utility.yul\":12834:12914   */\n      tag_118\n      jump\t// in\n    tag_259:\n        /* \"#utility.yul\":12493:12924   */\n      pop\n      pop\n        /* \"#utility.yul\":12478:12924   */\n    tag_255:\n        /* \"#utility.yul\":12388:12931   */\n      pop\n      pop\n      pop\n      jump\t// out\n        /* \"#utility.yul\":12937:13054   */\n    tag_120:\n        /* \"#utility.yul\":12991:12999   */\n      0x00\n        /* \"#utility.yul\":13041:13046   */\n      dup3\n        /* \"#utility.yul\":13035:13039   */\n      dup3\n        /* \"#utility.yul\":13031:13047   */\n      shr\n        /* \"#utility.yul\":13010:13047   */\n      swap1\n      pop\n        /* \"#utility.yul\":12937:13054   */\n      swap3\n      swap2\n      pop\n      pop\n      jump\t// out\n        /* \"#utility.yul\":13060:13229   */\n    tag_121:\n        /* \"#utility.yul\":13104:13110   */\n      0x00\n        /* \"#utility.yul\":13137:13188   */\n      tag_263\n        /* \"#utility.yul\":13185:13186   */\n      0x00\n        /* \"#utility.yul\":13181:13187   */\n      not\n        /* \"#utility.yul\":13173:13178   */\n      dup5\n        /* \"#utility.yul\":13170:13171   */\n      0x08\n        /* \"#utility.yul\":13166:13179   */\n      mul\n        /* \"#utility.yul\":13137:13188   */\n      tag_120\n      jump\t// in\n    tag_263:\n        /* \"#utility.yul\":13133:13189   */\n      not\n        /* \"#utility.yul\":13218:13222   */\n      dup1\n        /* \"#utility.yul\":13212:13216   */\n      dup4\n        /* \"#utility.yul\":13208:13223   */\n      and\n        /* \"#utility.yul\":13198:13223   */\n      swap2\n      pop\n        /* \"#utility.yul\":13111:13229   */\n      pop\n        /* \"#utility.yul\":13060:13229   */\n      swap3\n      swap2\n      pop\n      pop\n      jump\t// out\n        /* \"#utility.yul\":13234:13529   */\n    tag_122:\n        /* \"#utility.yul\":13310:13314   */\n      0x00\n        /* \"#utility.yul\":13456:13485   */\n      tag_265\n        /* \"#utility.yul\":13481:13484   */\n      dup4\n        /* \"#utility.yul\":13475:13479   */\n      dup4\n        /* \"#utility.yul\":13456:13485   */\n      tag_121\n      jump\t// in\n    tag_265:\n        /* \"#utility.yul\":13448:13485   */\n      swap2\n      pop\n        /* \"#utility.yul\":13518:13521   */\n      dup3\n        /* \"#utility.yul\":13515:13516   */\n      0x02\n        /* \"#utility.yul\":13511:13522   */\n      mul\n        /* \"#utility.yul\":13505:13509   */\n      dup3\n        /* \"#utility.yul\":13502:13523   */\n      or\n        /* \"#utility.yul\":13494:13523   */\n      swap1\n      pop\n        /* \"#utility.yul\":13234:13529   */\n      swap3\n      swap2\n      pop\n      pop\n      jump\t// out\n        /* \"#utility.yul\":13534:14929   */\n    tag_51:\n        /* \"#utility.yul\":13651:13688   */\n      tag_267\n        /* \"#utility.yul\":13684:13687   */\n      dup3\n        /* \"#utility.yul\":13651:13688   */\n      tag_91\n      jump\t// in\n    tag_267:\n        /* \"#utility.yul\":13753:13771   */\n      0xffffffffffffffff\n        /* \"#utility.yul\":13745:13751   */\n      dup2\n        /* \"#utility.yul\":13742:13772   */\n      gt\n        /* \"#utility.yul\":13739:13795   */\n      iszero\n      tag_268\n      jumpi\n        /* \"#utility.yul\":13775:13793   */\n      tag_269\n      tag_84\n      jump\t// in\n    tag_269:\n        /* \"#utility.yul\":13739:13795   */\n    tag_268:\n        /* \"#utility.yul\":13819:13857   */\n      tag_270\n        /* \"#utility.yul\":13851:13855   */\n      dup3\n        /* \"#utility.yul\":13845:13856   */\n      sload\n        /* \"#utility.yul\":13819:13857   */\n      tag_35\n      jump\t// in\n    tag_270:\n        /* \"#utility.yul\":13904:13971   */\n      tag_271\n        /* \"#utility.yul\":13964:13970   */\n      dup3\n        /* \"#utility.yul\":13956:13962   */\n      dup3\n        /* \"#utility.yul\":13950:13954   */\n      dup6\n        /* \"#utility.yul\":13904:13971   */\n      tag_119\n      jump\t// in\n    tag_271:\n        /* \"#utility.yul\":13998:13999   */\n      0x00\n        /* \"#utility.yul\":14022:14026   */\n      0x20\n        /* \"#utility.yul\":14009:14026   */\n      swap1\n      pop\n        /* \"#utility.yul\":14054:14056   */\n      0x1f\n        /* \"#utility.yul\":14046:14052   */\n      dup4\n        /* \"#utility.yul\":14043:14057   */\n      gt\n        /* \"#utility.yul\":14071:14072   */\n      0x01\n        /* \"#utility.yul\":14066:14684   */\n      dup2\n      eq\n      tag_273\n      jumpi\n        /* \"#utility.yul\":14728:14729   */\n      0x00\n        /* \"#utility.yul\":14745:14751   */\n      dup5\n        /* \"#utility.yul\":14742:14819   */\n      iszero\n      tag_274\n      jumpi\n        /* \"#utility.yul\":14794:14803   */\n      dup3\n        /* \"#utility.yul\":14789:14792   */\n      dup8\n        /* \"#utility.yul\":14785:14804   */\n      add\n        /* \"#utility.yul\":14779:14805   */\n      mload\n        /* \"#utility.yul\":14770:14805   */\n      swap1\n      pop\n        /* \"#utility.yul\":14742:14819   */\n    tag_274:\n        /* \"#utility.yul\":14845:14912   */\n      tag_275\n        /* \"#utility.yul\":14905:14911   */\n      dup6\n        /* \"#utility.yul\":14898:14903   */\n      dup3\n        /* \"#utility.yul\":14845:14912   */\n      tag_122\n      jump\t// in\n    tag_275:\n        /* \"#utility.yul\":14839:14843   */\n      dup7\n        /* \"#utility.yul\":14832:14913   */\n      sstore\n        /* \"#utility.yul\":14701:14923   */\n      pop\n        /* \"#utility.yul\":14036:14923   */\n      jump(tag_272)\n        /* \"#utility.yul\":14066:14684   */\n    tag_273:\n        /* \"#utility.yul\":14118:14122   */\n      0x1f\n        /* \"#utility.yul\":14114:14123   */\n      not\n        /* \"#utility.yul\":14106:14112   */\n      dup5\n        /* \"#utility.yul\":14102:14124   */\n      and\n        /* \"#utility.yul\":14152:14189   */\n      tag_276\n        /* \"#utility.yul\":14184:14188   */\n      dup7\n        /* \"#utility.yul\":14152:14189   */\n      tag_107\n      jump\t// in\n    tag_276:\n        /* \"#utility.yul\":14211:14212   */\n      0x00\n        /* \"#utility.yul\":14225:14433   */\n    tag_277:\n        /* \"#utility.yul\":14239:14246   */\n      dup3\n        /* \"#utility.yul\":14236:14237   */\n      dup2\n        /* \"#utility.yul\":14233:14247   */\n      lt\n        /* \"#utility.yul\":14225:14433   */\n      iszero\n      tag_279\n      jumpi\n        /* \"#utility.yul\":14318:14327   */\n      dup5\n        /* \"#utility.yul\":14313:14316   */\n      dup10\n        /* \"#utility.yul\":14309:14328   */\n      add\n        /* \"#utility.yul\":14303:14329   */\n      mload\n        /* \"#utility.yul\":14295:14301   */\n      dup3\n        /* \"#utility.yul\":14288:14330   */\n      sstore\n        /* \"#utility.yul\":14369:14370   */\n      0x01\n        /* \"#utility.yul\":14361:14367   */\n      dup3\n        /* \"#utility.yul\":14357:14371   */\n      add\n        /* \"#utility.yul\":14347:14371   */\n      swap2\n      pop\n        /* \"#utility.yul\":14416:14418   */\n      0x20\n        /* \"#utility.yul\":14405:14414   */\n      dup6\n        /* \"#utility.yul\":14401:14419   */\n      add\n        /* \"#utility.yul\":14388:14419   */\n      swap5\n      pop\n        /* \"#utility.yul\":14262:14266   */\n      0x20\n        /* \"#utility.yul\":14259:14260   */\n      dup2\n        /* \"#utility.yul\":14255:14267   */\n      add\n        /* \"#utility.yul\":14250:14267   */\n      swap1\n      pop\n        /* \"#utility.yul\":14225:14433   */\n      jump(tag_277)\n    tag_279:\n        /* \"#utility.yul\":14461:14467   */\n      dup7\n        /* \"#utility.yul\":14452:14459   */\n      dup4\n        /* \"#utility.yul\":14449:14468   */\n      lt\n        /* \"#utility.yul\":14446:14625   */\n      iszero\n      tag_280\n      jumpi\n        /* \"#utility.yul\":14519:14528   */\n      dup5\n        /* \"#utility.yul\":14514:14517   */\n      dup10\n        /* \"#utility.yul\":14510:14529   */\n      add\n        /* \"#utility.yul\":14504:14530   */\n      mload\n        /* \"#utility.yul\":14562:14610   */\n      tag_281\n        /* \"#utility.yul\":14604:14608   */\n      0x1f\n        /* \"#utility.yul\":14596:14602   */\n      dup10\n        /* \"#utility.yul\":14592:14609   */\n      and\n        /* \"#utility.yul\":14581:14590   */\n      dup3\n        /* \"#utility.yul\":14562:14610   */\n      tag_121\n      jump\t// in\n    tag_281:\n        /* \"#utility.yul\":14554:14560   */\n      dup4\n        /* \"#utility.yul\":14547:14611   */\n      sstore\n        /* \"#utility.yul\":14469:14625   */\n      pop\n        /* \"#utility.yul\":14446:14625   */\n    tag_280:\n        /* \"#utility.yul\":14671:14672   */\n      0x01\n        /* \"#utility.yul\":14667:14668   */\n      0x02\n        /* \"#utility.yul\":14659:14665   */\n      dup9\n        /* \"#utility.yul\":14655:14669   */\n      mul\n        /* \"#utility.yul\":14651:14673   */\n      add\n        /* \"#utility.yul\":14645:14649   */\n      dup9\n        /* \"#utility.yul\":14638:14674   */\n      sstore\n        /* \"#utility.yul\":14073:14684   */\n      pop\n      pop\n      pop\n        /* \"#utility.yul\":14036:14923   */\n    tag_272:\n      pop\n        /* \"#utility.yul\":13626:14929   */\n      pop\n      pop\n      pop\n        /* \"#utility.yul\":13534:14929   */\n      pop\n      pop\n      jump\t// out\n\n    auxdata: 0xa264697066735822122021dc9e91ca7161b96f4fe83060713600de6eea8c16d318ddaf37f96369b8752964736f6c63430008100033\n}\n",
				"bytecode": {
					"linkReferences": {},
					"object": "60806040523480156200001157600080fd5b506040516200171838038062001718833981810160405281019062000037919062000347565b6040518060c001604052806040518060400160405280601281526020017f79656c6c6f775f7740676d61696c2e636f6d000000000000000000000000000081525081526020016040518060400160405280600481526020017f3132333400000000000000000000000000000000000000000000000000000000815250815260200160001515815260200160001515815260200160001515815260200160001515815250600082604051620000ec9190620003e5565b908152602001604051809103902060008201518160000190816200011191906200063e565b5060208201518160010190816200012991906200063e565b5060408201518160020160006101000a81548160ff02191690831515021790555060608201518160020160016101000a81548160ff02191690831515021790555060808201518160020160026101000a81548160ff02191690831515021790555060a08201518160020160036101000a81548160ff0219169083151502179055509050505062000725565b6000604051905090565b600080fd5b600080fd5b600080fd5b600080fd5b6000601f19601f8301169050919050565b7f4e487b7100000000000000000000000000000000000000000000000000000000600052604160045260246000fd5b6200021d82620001d2565b810181811067ffffffffffffffff821117156200023f576200023e620001e3565b5b80604052505050565b600062000254620001b4565b905062000262828262000212565b919050565b600067ffffffffffffffff821115620002855762000284620001e3565b5b6200029082620001d2565b9050602081019050919050565b60005b83811015620002bd578082015181840152602081019050620002a0565b60008484015250505050565b6000620002e0620002da8462000267565b62000248565b905082815260208101848484011115620002ff57620002fe620001cd565b5b6200030c8482856200029d565b509392505050565b600082601f8301126200032c576200032b620001c8565b5b81516200033e848260208601620002c9565b91505092915050565b60006020828403121562000360576200035f620001be565b5b600082015167ffffffffffffffff811115620003815762000380620001c3565b5b6200038f8482850162000314565b91505092915050565b600081519050919050565b600081905092915050565b6000620003bb8262000398565b620003c78185620003a3565b9350620003d98185602086016200029d565b80840191505092915050565b6000620003f38284620003ae565b915081905092915050565b7f4e487b7100000000000000000000000000000000000000000000000000000000600052602260045260246000fd5b600060028204905060018216806200044657607f821691505b6020821081036200045c576200045b620003fe565b5b50919050565b60008190508160005260206000209050919050565b60006020601f8301049050919050565b600082821b905092915050565b600060088302620004c67fffffffffffffffffffffffffffffffffffffffffffffffffffffffffffffffff8262000487565b620004d2868362000487565b95508019841693508086168417925050509392505050565b6000819050919050565b6000819050919050565b60006200051f620005196200051384620004ea565b620004f4565b620004ea565b9050919050565b6000819050919050565b6200053b83620004fe565b620005536200054a8262000526565b84845462000494565b825550505050565b600090565b6200056a6200055b565b6200057781848462000530565b505050565b5b818110156200059f576200059360008262000560565b6001810190506200057d565b5050565b601f821115620005ee57620005b88162000462565b620005c38462000477565b81016020851015620005d3578190505b620005eb620005e28562000477565b8301826200057c565b50505b505050565b600082821c905092915050565b60006200061360001984600802620005f3565b1980831691505092915050565b60006200062e838362000600565b9150826002028217905092915050565b620006498262000398565b67ffffffffffffffff811115620006655762000664620001e3565b5b6200067182546200042d565b6200067e828285620005a3565b600060209050601f831160018114620006b65760008415620006a1578287015190505b620006ad858262000620565b8655506200071d565b601f198416620006c68662000462565b60005b82811015620006f057848901518255600182019150602085019450602081019050620006c9565b868310156200071057848901516200070c601f89168262000600565b8355505b6001600288020188555050505b505050505050565b610fe380620007356000396000f3fe608060405234801561001057600080fd5b50600436106100575760003560e01c806331feb6711461005c5780639cb4a5b31461008c578063aeec5fc9146100a8578063c822d7f0146100c4578063d3695161146100f4575b600080fd5b6100766004803603810190610071919061092d565b610110565b6040516100839190610aa0565b60405180910390f35b6100a660048036038101906100a19190610bd0565b6102d8565b005b6100c260048036038101906100bd9190610bd0565b610452565b005b6100de60048036038101906100d9919061092d565b610603565b6040516100eb9190610c57565b60405180910390f35b61010e6004803603810190610109919061092d565b610638565b005b610118610738565b6000826040516101289190610cae565b90815260200160405180910390206040518060c001604052908160008201805461015190610cf4565b80601f016020809104026020016040519081016040528092919081815260200182805461017d90610cf4565b80156101ca5780601f1061019f576101008083540402835291602001916101ca565b820191906000526020600020905b8154815290600101906020018083116101ad57829003601f168201915b505050505081526020016001820180546101e390610cf4565b80601f016020809104026020016040519081016040528092919081815260200182805461020f90610cf4565b801561025c5780601f106102315761010080835404028352916020019161025c565b820191906000526020600020905b81548152906001019060200180831161023f57829003601f168201915b505050505081526020016002820160009054906101000a900460ff161515151581526020016002820160019054906101000a900460ff161515151581526020016002820160029054906101000a900460ff161515151581526020016002820160039054906101000a900460ff1615151515815250509050919050565b6001826040516102e89190610cae565b908152602001604051809103902060009054906101000a900460ff1661030d57600080fd5b610315610738565b81600001518160000181905250816020015181602001819052508160400151816040019015159081151581525050816060015181606001901515908115158152505081608001518160800190151590811515815250508160a001518160a0019015159081151581525050806000846040516103909190610cae565b908152602001604051809103902060008201518160000190816103b39190610edb565b5060208201518160010190816103c99190610edb565b5060408201518160020160006101000a81548160ff02191690831515021790555060608201518160020160016101000a81548160ff02191690831515021790555060808201518160020160026101000a81548160ff02191690831515021790555060a08201518160020160036101000a81548160ff021916908315150217905550905050505050565b6001826040516104629190610cae565b908152602001604051809103902060009054906101000a900460ff161561048857600080fd5b610490610738565b81600001518160000181905250816020015181602001819052508160400151816040019015159081151581525050816060015181606001901515908115158152505081608001518160800190151590811515815250508160a001518160a00190151590811515815250508060008460405161050b9190610cae565b9081526020016040518091039020600082015181600001908161052e9190610edb565b5060208201518160010190816105449190610edb565b5060408201518160020160006101000a81548160ff02191690831515021790555060608201518160020160016101000a81548160ff02191690831515021790555060808201518160020160026101000a81548160ff02191690831515021790555060a08201518160020160036101000a81548160ff021916908315150217905550905050600180846040516105d99190610cae565b908152602001604051809103902060006101000a81548160ff021916908315150217905550505050565b60006001826040516106159190610cae565b908152602001604051809103902060009054906101000a900460ff169050919050565b6001816040516106489190610cae565b908152602001604051809103902060009054906101000a900460ff1661066d57600080fd5b60008160405161067d9190610cae565b90815260200160405180910390206000808201600061069c9190610776565b6001820160006106ac9190610776565b6002820160006101000a81549060ff02191690556002820160016101000a81549060ff02191690556002820160026101000a81549060ff02191690556002820160036101000a81549060ff0219169055505060006001826040516107109190610cae565b908152602001604051809103902060006101000a81548160ff02191690831515021790555050565b6040518060c0016040528060608152602001606081526020016000151581526020016000151581526020016000151581526020016000151581525090565b50805461078290610cf4565b6000825580601f1061079457506107b3565b601f0160209004906000526020600020908101906107b291906107b6565b5b50565b5b808211156107cf5760008160009055506001016107b7565b5090565b6000604051905090565b600080fd5b600080fd5b600080fd5b600080fd5b6000601f19601f8301169050919050565b7f4e487b7100000000000000000000000000000000000000000000000000000000600052604160045260246000fd5b61083a826107f1565b810181811067ffffffffffffffff8211171561085957610858610802565b5b80604052505050565b600061086c6107d3565b90506108788282610831565b919050565b600067ffffffffffffffff82111561089857610897610802565b5b6108a1826107f1565b9050602081019050919050565b82818337600083830152505050565b60006108d06108cb8461087d565b610862565b9050828152602081018484840111156108ec576108eb6107ec565b5b6108f78482856108ae565b509392505050565b600082601f830112610914576109136107e7565b5b81356109248482602086016108bd565b91505092915050565b600060208284031215610943576109426107dd565b5b600082013567ffffffffffffffff811115610961576109606107e2565b5b61096d848285016108ff565b91505092915050565b600081519050919050565b600082825260208201905092915050565b60005b838110156109b0578082015181840152602081019050610995565b60008484015250505050565b60006109c782610976565b6109d18185610981565b93506109e1818560208601610992565b6109ea816107f1565b840191505092915050565b60008115159050919050565b610a0a816109f5565b82525050565b600060c0830160008301518482036000860152610a2d82826109bc565b91505060208301518482036020860152610a4782826109bc565b9150506040830151610a5c6040860182610a01565b506060830151610a6f6060860182610a01565b506080830151610a826080860182610a01565b5060a0830151610a9560a0860182610a01565b508091505092915050565b60006020820190508181036000830152610aba8184610a10565b905092915050565b600080fd5b600080fd5b610ad5816109f5565b8114610ae057600080fd5b50565b600081359050610af281610acc565b92915050565b600060c08284031215610b0e57610b0d610ac2565b5b610b1860c0610862565b9050600082013567ffffffffffffffff811115610b3857610b37610ac7565b5b610b44848285016108ff565b600083015250602082013567ffffffffffffffff811115610b6857610b67610ac7565b5b610b74848285016108ff565b6020830152506040610b8884828501610ae3565b6040830152506060610b9c84828501610ae3565b6060830152506080610bb084828501610ae3565b60808301525060a0610bc484828501610ae3565b60a08301525092915050565b60008060408385031215610be757610be66107dd565b5b600083013567ffffffffffffffff811115610c0557610c046107e2565b5b610c11858286016108ff565b925050602083013567ffffffffffffffff811115610c3257610c316107e2565b5b610c3e85828601610af8565b9150509250929050565b610c51816109f5565b82525050565b6000602082019050610c6c6000830184610c48565b92915050565b600081905092915050565b6000610c8882610976565b610c928185610c72565b9350610ca2818560208601610992565b80840191505092915050565b6000610cba8284610c7d565b915081905092915050565b7f4e487b7100000000000000000000000000000000000000000000000000000000600052602260045260246000fd5b60006002820490506001821680610d0c57607f821691505b602082108103610d1f57610d1e610cc5565b5b50919050565b60008190508160005260206000209050919050565b60006020601f8301049050919050565b600082821b905092915050565b600060088302610d877fffffffffffffffffffffffffffffffffffffffffffffffffffffffffffffffff82610d4a565b610d918683610d4a565b95508019841693508086168417925050509392505050565b6000819050919050565b6000819050919050565b6000610dd8610dd3610dce84610da9565b610db3565b610da9565b9050919050565b6000819050919050565b610df283610dbd565b610e06610dfe82610ddf565b848454610d57565b825550505050565b600090565b610e1b610e0e565b610e26818484610de9565b505050565b5b81811015610e4a57610e3f600082610e13565b600181019050610e2c565b5050565b601f821115610e8f57610e6081610d25565b610e6984610d3a565b81016020851015610e78578190505b610e8c610e8485610d3a565b830182610e2b565b50505b505050565b600082821c905092915050565b6000610eb260001984600802610e94565b1980831691505092915050565b6000610ecb8383610ea1565b9150826002028217905092915050565b610ee482610976565b67ffffffffffffffff811115610efd57610efc610802565b5b610f078254610cf4565b610f12828285610e4e565b600060209050601f831160018114610f455760008415610f33578287015190505b610f3d8582610ebf565b865550610fa5565b601f198416610f5386610d25565b60005b82811015610f7b57848901518255600182019150602085019450602081019050610f56565b86831015610f985784890151610f94601f891682610ea1565b8355505b6001600288020188555050505b50505050505056fea264697066735822122021dc9e91ca7161b96f4fe83060713600de6eea8c16d318ddaf37f96369b8752964736f6c63430008100033",
					"opcodes": "PUSH1 0x80 PUSH1 0x40 MSTORE CALLVALUE DUP1 ISZERO PUSH3 0x11 JUMPI PUSH1 0x0 DUP1 REVERT JUMPDEST POP PUSH1 0x40 MLOAD PUSH3 0x1718 CODESIZE SUB DUP1 PUSH3 0x1718 DUP4 CODECOPY DUP2 DUP2 ADD PUSH1 0x40 MSTORE DUP2 ADD SWAP1 PUSH3 0x37 SWAP2 SWAP1 PUSH3 0x347 JUMP JUMPDEST PUSH1 0x40 MLOAD DUP1 PUSH1 0xC0 ADD PUSH1 0x40 MSTORE DUP1 PUSH1 0x40 MLOAD DUP1 PUSH1 0x40 ADD PUSH1 0x40 MSTORE DUP1 PUSH1 0x12 DUP2 MSTORE PUSH1 0x20 ADD PUSH32 0x79656C6C6F775F7740676D61696C2E636F6D0000000000000000000000000000 DUP2 MSTORE POP DUP2 MSTORE PUSH1 0x20 ADD PUSH1 0x40 MLOAD DUP1 PUSH1 0x40 ADD PUSH1 0x40 MSTORE DUP1 PUSH1 0x4 DUP2 MSTORE PUSH1 0x20 ADD PUSH32 0x3132333400000000000000000000000000000000000000000000000000000000 DUP2 MSTORE POP DUP2 MSTORE PUSH1 0x20 ADD PUSH1 0x0 ISZERO ISZERO DUP2 MSTORE PUSH1 0x20 ADD PUSH1 0x0 ISZERO ISZERO DUP2 MSTORE PUSH1 0x20 ADD PUSH1 0x0 ISZERO ISZERO DUP2 MSTORE PUSH1 0x20 ADD PUSH1 0x0 ISZERO ISZERO DUP2 MSTORE POP PUSH1 0x0 DUP3 PUSH1 0x40 MLOAD PUSH3 0xEC SWAP2 SWAP1 PUSH3 0x3E5 JUMP JUMPDEST SWAP1 DUP2 MSTORE PUSH1 0x20 ADD PUSH1 0x40 MLOAD DUP1 SWAP2 SUB SWAP1 KECCAK256 PUSH1 0x0 DUP3 ADD MLOAD DUP2 PUSH1 0x0 ADD SWAP1 DUP2 PUSH3 0x111 SWAP2 SWAP1 PUSH3 0x63E JUMP JUMPDEST POP PUSH1 0x20 DUP3 ADD MLOAD DUP2 PUSH1 0x1 ADD SWAP1 DUP2 PUSH3 0x129 SWAP2 SWAP1 PUSH3 0x63E JUMP JUMPDEST POP PUSH1 0x40 DUP3 ADD MLOAD DUP2 PUSH1 0x2 ADD PUSH1 0x0 PUSH2 0x100 EXP DUP2 SLOAD DUP2 PUSH1 0xFF MUL NOT AND SWAP1 DUP4 ISZERO ISZERO MUL OR SWAP1 SSTORE POP PUSH1 0x60 DUP3 ADD MLOAD DUP2 PUSH1 0x2 ADD PUSH1 0x1 PUSH2 0x100 EXP DUP2 SLOAD DUP2 PUSH1 0xFF MUL NOT AND SWAP1 DUP4 ISZERO ISZERO MUL OR SWAP1 SSTORE POP PUSH1 0x80 DUP3 ADD MLOAD DUP2 PUSH1 0x2 ADD PUSH1 0x2 PUSH2 0x100 EXP DUP2 SLOAD DUP2 PUSH1 0xFF MUL NOT AND SWAP1 DUP4 ISZERO ISZERO MUL OR SWAP1 SSTORE POP PUSH1 0xA0 DUP3 ADD MLOAD DUP2 PUSH1 0x2 ADD PUSH1 0x3 PUSH2 0x100 EXP DUP2 SLOAD DUP2 PUSH1 0xFF MUL NOT AND SWAP1 DUP4 ISZERO ISZERO MUL OR SWAP1 SSTORE POP SWAP1 POP POP POP PUSH3 0x725 JUMP JUMPDEST PUSH1 0x0 PUSH1 0x40 MLOAD SWAP1 POP SWAP1 JUMP JUMPDEST PUSH1 0x0 DUP1 REVERT JUMPDEST PUSH1 0x0 DUP1 REVERT JUMPDEST PUSH1 0x0 DUP1 REVERT JUMPDEST PUSH1 0x0 DUP1 REVERT JUMPDEST PUSH1 0x0 PUSH1 0x1F NOT PUSH1 0x1F DUP4 ADD AND SWAP1 POP SWAP2 SWAP1 POP JUMP JUMPDEST PUSH32 0x4E487B7100000000000000000000000000000000000000000000000000000000 PUSH1 0x0 MSTORE PUSH1 0x41 PUSH1 0x4 MSTORE PUSH1 0x24 PUSH1 0x0 REVERT JUMPDEST PUSH3 0x21D DUP3 PUSH3 0x1D2 JUMP JUMPDEST DUP2 ADD DUP2 DUP2 LT PUSH8 0xFFFFFFFFFFFFFFFF DUP3 GT OR ISZERO PUSH3 0x23F JUMPI PUSH3 0x23E PUSH3 0x1E3 JUMP JUMPDEST JUMPDEST DUP1 PUSH1 0x40 MSTORE POP POP POP JUMP JUMPDEST PUSH1 0x0 PUSH3 0x254 PUSH3 0x1B4 JUMP JUMPDEST SWAP1 POP PUSH3 0x262 DUP3 DUP3 PUSH3 0x212 JUMP JUMPDEST SWAP2 SWAP1 POP JUMP JUMPDEST PUSH1 0x0 PUSH8 0xFFFFFFFFFFFFFFFF DUP3 GT ISZERO PUSH3 0x285 JUMPI PUSH3 0x284 PUSH3 0x1E3 JUMP JUMPDEST JUMPDEST PUSH3 0x290 DUP3 PUSH3 0x1D2 JUMP JUMPDEST SWAP1 POP PUSH1 0x20 DUP2 ADD SWAP1 POP SWAP2 SWAP1 POP JUMP JUMPDEST PUSH1 0x0 JUMPDEST DUP4 DUP2 LT ISZERO PUSH3 0x2BD JUMPI DUP1 DUP3 ADD MLOAD DUP2 DUP5 ADD MSTORE PUSH1 0x20 DUP2 ADD SWAP1 POP PUSH3 0x2A0 JUMP JUMPDEST PUSH1 0x0 DUP5 DUP5 ADD MSTORE POP POP POP POP JUMP JUMPDEST PUSH1 0x0 PUSH3 0x2E0 PUSH3 0x2DA DUP5 PUSH3 0x267 JUMP JUMPDEST PUSH3 0x248 JUMP JUMPDEST SWAP1 POP DUP3 DUP2 MSTORE PUSH1 0x20 DUP2 ADD DUP5 DUP5 DUP5 ADD GT ISZERO PUSH3 0x2FF JUMPI PUSH3 0x2FE PUSH3 0x1CD JUMP JUMPDEST JUMPDEST PUSH3 0x30C DUP5 DUP3 DUP6 PUSH3 0x29D JUMP JUMPDEST POP SWAP4 SWAP3 POP POP POP JUMP JUMPDEST PUSH1 0x0 DUP3 PUSH1 0x1F DUP4 ADD SLT PUSH3 0x32C JUMPI PUSH3 0x32B PUSH3 0x1C8 JUMP JUMPDEST JUMPDEST DUP2 MLOAD PUSH3 0x33E DUP5 DUP3 PUSH1 0x20 DUP7 ADD PUSH3 0x2C9 JUMP JUMPDEST SWAP2 POP POP SWAP3 SWAP2 POP POP JUMP JUMPDEST PUSH1 0x0 PUSH1 0x20 DUP3 DUP5 SUB SLT ISZERO PUSH3 0x360 JUMPI PUSH3 0x35F PUSH3 0x1BE JUMP JUMPDEST JUMPDEST PUSH1 0x0 DUP3 ADD MLOAD PUSH8 0xFFFFFFFFFFFFFFFF DUP2 GT ISZERO PUSH3 0x381 JUMPI PUSH3 0x380 PUSH3 0x1C3 JUMP JUMPDEST JUMPDEST PUSH3 0x38F DUP5 DUP3 DUP6 ADD PUSH3 0x314 JUMP JUMPDEST SWAP2 POP POP SWAP3 SWAP2 POP POP JUMP JUMPDEST PUSH1 0x0 DUP2 MLOAD SWAP1 POP SWAP2 SWAP1 POP JUMP JUMPDEST PUSH1 0x0 DUP2 SWAP1 POP SWAP3 SWAP2 POP POP JUMP JUMPDEST PUSH1 0x0 PUSH3 0x3BB DUP3 PUSH3 0x398 JUMP JUMPDEST PUSH3 0x3C7 DUP2 DUP6 PUSH3 0x3A3 JUMP JUMPDEST SWAP4 POP PUSH3 0x3D9 DUP2 DUP6 PUSH1 0x20 DUP7 ADD PUSH3 0x29D JUMP JUMPDEST DUP1 DUP5 ADD SWAP2 POP POP SWAP3 SWAP2 POP POP JUMP JUMPDEST PUSH1 0x0 PUSH3 0x3F3 DUP3 DUP5 PUSH3 0x3AE JUMP JUMPDEST SWAP2 POP DUP2 SWAP1 POP SWAP3 SWAP2 POP POP JUMP JUMPDEST PUSH32 0x4E487B7100000000000000000000000000000000000000000000000000000000 PUSH1 0x0 MSTORE PUSH1 0x22 PUSH1 0x4 MSTORE PUSH1 0x24 PUSH1 0x0 REVERT JUMPDEST PUSH1 0x0 PUSH1 0x2 DUP3 DIV SWAP1 POP PUSH1 0x1 DUP3 AND DUP1 PUSH3 0x446 JUMPI PUSH1 0x7F DUP3 AND SWAP2 POP JUMPDEST PUSH1 0x20 DUP3 LT DUP2 SUB PUSH3 0x45C JUMPI PUSH3 0x45B PUSH3 0x3FE JUMP JUMPDEST JUMPDEST POP SWAP2 SWAP1 POP JUMP JUMPDEST PUSH1 0x0 DUP2 SWAP1 POP DUP2 PUSH1 0x0 MSTORE PUSH1 0x20 PUSH1 0x0 KECCAK256 SWAP1 POP SWAP2 SWAP1 POP JUMP JUMPDEST PUSH1 0x0 PUSH1 0x20 PUSH1 0x1F DUP4 ADD DIV SWAP1 POP SWAP2 SWAP1 POP JUMP JUMPDEST PUSH1 0x0 DUP3 DUP3 SHL SWAP1 POP SWAP3 SWAP2 POP POP JUMP JUMPDEST PUSH1 0x0 PUSH1 0x8 DUP4 MUL PUSH3 0x4C6 PUSH32 0xFFFFFFFFFFFFFFFFFFFFFFFFFFFFFFFFFFFFFFFFFFFFFFFFFFFFFFFFFFFFFFFF DUP3 PUSH3 0x487 JUMP JUMPDEST PUSH3 0x4D2 DUP7 DUP4 PUSH3 0x487 JUMP JUMPDEST SWAP6 POP DUP1 NOT DUP5 AND SWAP4 POP DUP1 DUP7 AND DUP5 OR SWAP3 POP POP POP SWAP4 SWAP3 POP POP POP JUMP JUMPDEST PUSH1 0x0 DUP2 SWAP1 POP SWAP2 SWAP1 POP JUMP JUMPDEST PUSH1 0x0 DUP2 SWAP1 POP SWAP2 SWAP1 POP JUMP JUMPDEST PUSH1 0x0 PUSH3 0x51F PUSH3 0x519 PUSH3 0x513 DUP5 PUSH3 0x4EA JUMP JUMPDEST PUSH3 0x4F4 JUMP JUMPDEST PUSH3 0x4EA JUMP JUMPDEST SWAP1 POP SWAP2 SWAP1 POP JUMP JUMPDEST PUSH1 0x0 DUP2 SWAP1 POP SWAP2 SWAP1 POP JUMP JUMPDEST PUSH3 0x53B DUP4 PUSH3 0x4FE JUMP JUMPDEST PUSH3 0x553 PUSH3 0x54A DUP3 PUSH3 0x526 JUMP JUMPDEST DUP5 DUP5 SLOAD PUSH3 0x494 JUMP JUMPDEST DUP3 SSTORE POP POP POP POP JUMP JUMPDEST PUSH1 0x0 SWAP1 JUMP JUMPDEST PUSH3 0x56A PUSH3 0x55B JUMP JUMPDEST PUSH3 0x577 DUP2 DUP5 DUP5 PUSH3 0x530 JUMP JUMPDEST POP POP POP JUMP JUMPDEST JUMPDEST DUP2 DUP2 LT ISZERO PUSH3 0x59F JUMPI PUSH3 0x593 PUSH1 0x0 DUP3 PUSH3 0x560 JUMP JUMPDEST PUSH1 0x1 DUP2 ADD SWAP1 POP PUSH3 0x57D JUMP JUMPDEST POP POP JUMP JUMPDEST PUSH1 0x1F DUP3 GT ISZERO PUSH3 0x5EE JUMPI PUSH3 0x5B8 DUP2 PUSH3 0x462 JUMP JUMPDEST PUSH3 0x5C3 DUP5 PUSH3 0x477 JUMP JUMPDEST DUP2 ADD PUSH1 0x20 DUP6 LT ISZERO PUSH3 0x5D3 JUMPI DUP2 SWAP1 POP JUMPDEST PUSH3 0x5EB PUSH3 0x5E2 DUP6 PUSH3 0x477 JUMP JUMPDEST DUP4 ADD DUP3 PUSH3 0x57C JUMP JUMPDEST POP POP JUMPDEST POP POP POP JUMP JUMPDEST PUSH1 0x0 DUP3 DUP3 SHR SWAP1 POP SWAP3 SWAP2 POP POP JUMP JUMPDEST PUSH1 0x0 PUSH3 0x613 PUSH1 0x0 NOT DUP5 PUSH1 0x8 MUL PUSH3 0x5F3 JUMP JUMPDEST NOT DUP1 DUP4 AND SWAP2 POP POP SWAP3 SWAP2 POP POP JUMP JUMPDEST PUSH1 0x0 PUSH3 0x62E DUP4 DUP4 PUSH3 0x600 JUMP JUMPDEST SWAP2 POP DUP3 PUSH1 0x2 MUL DUP3 OR SWAP1 POP SWAP3 SWAP2 POP POP JUMP JUMPDEST PUSH3 0x649 DUP3 PUSH3 0x398 JUMP JUMPDEST PUSH8 0xFFFFFFFFFFFFFFFF DUP2 GT ISZERO PUSH3 0x665 JUMPI PUSH3 0x664 PUSH3 0x1E3 JUMP JUMPDEST JUMPDEST PUSH3 0x671 DUP3 SLOAD PUSH3 0x42D JUMP JUMPDEST PUSH3 0x67E DUP3 DUP3 DUP6 PUSH3 0x5A3 JUMP JUMPDEST PUSH1 0x0 PUSH1 0x20 SWAP1 POP PUSH1 0x1F DUP4 GT PUSH1 0x1 DUP2 EQ PUSH3 0x6B6 JUMPI PUSH1 0x0 DUP5 ISZERO PUSH3 0x6A1 JUMPI DUP3 DUP8 ADD MLOAD SWAP1 POP JUMPDEST PUSH3 0x6AD DUP6 DUP3 PUSH3 0x620 JUMP JUMPDEST DUP7 SSTORE POP PUSH3 0x71D JUMP JUMPDEST PUSH1 0x1F NOT DUP5 AND PUSH3 0x6C6 DUP7 PUSH3 0x462 JUMP JUMPDEST PUSH1 0x0 JUMPDEST DUP3 DUP2 LT ISZERO PUSH3 0x6F0 JUMPI DUP5 DUP10 ADD MLOAD DUP3 SSTORE PUSH1 0x1 DUP3 ADD SWAP2 POP PUSH1 0x20 DUP6 ADD SWAP5 POP PUSH1 0x20 DUP2 ADD SWAP1 POP PUSH3 0x6C9 JUMP JUMPDEST DUP7 DUP4 LT ISZERO PUSH3 0x710 JUMPI DUP5 DUP10 ADD MLOAD PUSH3 0x70C PUSH1 0x1F DUP10 AND DUP3 PUSH3 0x600 JUMP JUMPDEST DUP4 SSTORE POP JUMPDEST PUSH1 0x1 PUSH1 0x2 DUP9 MUL ADD DUP9 SSTORE POP POP POP JUMPDEST POP POP POP POP POP POP JUMP JUMPDEST PUSH2 0xFE3 DUP1 PUSH3 0x735 PUSH1 0x0 CODECOPY PUSH1 0x0 RETURN INVALID PUSH1 0x80 PUSH1 0x40 MSTORE CALLVALUE DUP1 ISZERO PUSH2 0x10 JUMPI PUSH1 0x0 DUP1 REVERT JUMPDEST POP PUSH1 0x4 CALLDATASIZE LT PUSH2 0x57 JUMPI PUSH1 0x0 CALLDATALOAD PUSH1 0xE0 SHR DUP1 PUSH4 0x31FEB671 EQ PUSH2 0x5C JUMPI DUP1 PUSH4 0x9CB4A5B3 EQ PUSH2 0x8C JUMPI DUP1 PUSH4 0xAEEC5FC9 EQ PUSH2 0xA8 JUMPI DUP1 PUSH4 0xC822D7F0 EQ PUSH2 0xC4 JUMPI DUP1 PUSH4 0xD3695161 EQ PUSH2 0xF4 JUMPI JUMPDEST PUSH1 0x0 DUP1 REVERT JUMPDEST PUSH2 0x76 PUSH1 0x4 DUP1 CALLDATASIZE SUB DUP2 ADD SWAP1 PUSH2 0x71 SWAP2 SWAP1 PUSH2 0x92D JUMP JUMPDEST PUSH2 0x110 JUMP JUMPDEST PUSH1 0x40 MLOAD PUSH2 0x83 SWAP2 SWAP1 PUSH2 0xAA0 JUMP JUMPDEST PUSH1 0x40 MLOAD DUP1 SWAP2 SUB SWAP1 RETURN JUMPDEST PUSH2 0xA6 PUSH1 0x4 DUP1 CALLDATASIZE SUB DUP2 ADD SWAP1 PUSH2 0xA1 SWAP2 SWAP1 PUSH2 0xBD0 JUMP JUMPDEST PUSH2 0x2D8 JUMP JUMPDEST STOP JUMPDEST PUSH2 0xC2 PUSH1 0x4 DUP1 CALLDATASIZE SUB DUP2 ADD SWAP1 PUSH2 0xBD SWAP2 SWAP1 PUSH2 0xBD0 JUMP JUMPDEST PUSH2 0x452 JUMP JUMPDEST STOP JUMPDEST PUSH2 0xDE PUSH1 0x4 DUP1 CALLDATASIZE SUB DUP2 ADD SWAP1 PUSH2 0xD9 SWAP2 SWAP1 PUSH2 0x92D JUMP JUMPDEST PUSH2 0x603 JUMP JUMPDEST PUSH1 0x40 MLOAD PUSH2 0xEB SWAP2 SWAP1 PUSH2 0xC57 JUMP JUMPDEST PUSH1 0x40 MLOAD DUP1 SWAP2 SUB SWAP1 RETURN JUMPDEST PUSH2 0x10E PUSH1 0x4 DUP1 CALLDATASIZE SUB DUP2 ADD SWAP1 PUSH2 0x109 SWAP2 SWAP1 PUSH2 0x92D JUMP JUMPDEST PUSH2 0x638 JUMP JUMPDEST STOP JUMPDEST PUSH2 0x118 PUSH2 0x738 JUMP JUMPDEST PUSH1 0x0 DUP3 PUSH1 0x40 MLOAD PUSH2 0x128 SWAP2 SWAP1 PUSH2 0xCAE JUMP JUMPDEST SWAP1 DUP2 MSTORE PUSH1 0x20 ADD PUSH1 0x40 MLOAD DUP1 SWAP2 SUB SWAP1 KECCAK256 PUSH1 0x40 MLOAD DUP1 PUSH1 0xC0 ADD PUSH1 0x40 MSTORE SWAP1 DUP2 PUSH1 0x0 DUP3 ADD DUP1 SLOAD PUSH2 0x151 SWAP1 PUSH2 0xCF4 JUMP JUMPDEST DUP1 PUSH1 0x1F ADD PUSH1 0x20 DUP1 SWAP2 DIV MUL PUSH1 0x20 ADD PUSH1 0x40 MLOAD SWAP1 DUP2 ADD PUSH1 0x40 MSTORE DUP1 SWAP3 SWAP2 SWAP1 DUP2 DUP2 MSTORE PUSH1 0x20 ADD DUP3 DUP1 SLOAD PUSH2 0x17D SWAP1 PUSH2 0xCF4 JUMP JUMPDEST DUP1 ISZERO PUSH2 0x1CA JUMPI DUP1 PUSH1 0x1F LT PUSH2 0x19F JUMPI PUSH2 0x100 DUP1 DUP4 SLOAD DIV MUL DUP4 MSTORE SWAP2 PUSH1 0x20 ADD SWAP2 PUSH2 0x1CA JUMP JUMPDEST DUP3 ADD SWAP2 SWAP1 PUSH1 0x0 MSTORE PUSH1 0x20 PUSH1 0x0 KECCAK256 SWAP1 JUMPDEST DUP2 SLOAD DUP2 MSTORE SWAP1 PUSH1 0x1 ADD SWAP1 PUSH1 0x20 ADD DUP1 DUP4 GT PUSH2 0x1AD JUMPI DUP3 SWAP1 SUB PUSH1 0x1F AND DUP3 ADD SWAP2 JUMPDEST POP POP POP POP POP DUP2 MSTORE PUSH1 0x20 ADD PUSH1 0x1 DUP3 ADD DUP1 SLOAD PUSH2 0x1E3 SWAP1 PUSH2 0xCF4 JUMP JUMPDEST DUP1 PUSH1 0x1F ADD PUSH1 0x20 DUP1 SWAP2 DIV MUL PUSH1 0x20 ADD PUSH1 0x40 MLOAD SWAP1 DUP2 ADD PUSH1 0x40 MSTORE DUP1 SWAP3 SWAP2 SWAP1 DUP2 DUP2 MSTORE PUSH1 0x20 ADD DUP3 DUP1 SLOAD PUSH2 0x20F SWAP1 PUSH2 0xCF4 JUMP JUMPDEST DUP1 ISZERO PUSH2 0x25C JUMPI DUP1 PUSH1 0x1F LT PUSH2 0x231 JUMPI PUSH2 0x100 DUP1 DUP4 SLOAD DIV MUL DUP4 MSTORE SWAP2 PUSH1 0x20 ADD SWAP2 PUSH2 0x25C JUMP JUMPDEST DUP3 ADD SWAP2 SWAP1 PUSH1 0x0 MSTORE PUSH1 0x20 PUSH1 0x0 KECCAK256 SWAP1 JUMPDEST DUP2 SLOAD DUP2 MSTORE SWAP1 PUSH1 0x1 ADD SWAP1 PUSH1 0x20 ADD DUP1 DUP4 GT PUSH2 0x23F JUMPI DUP3 SWAP1 SUB PUSH1 0x1F AND DUP3 ADD SWAP2 JUMPDEST POP POP POP POP POP DUP2 MSTORE PUSH1 0x20 ADD PUSH1 0x2 DUP3 ADD PUSH1 0x0 SWAP1 SLOAD SWAP1 PUSH2 0x100 EXP SWAP1 DIV PUSH1 0xFF AND ISZERO ISZERO ISZERO ISZERO DUP2 MSTORE PUSH1 0x20 ADD PUSH1 0x2 DUP3 ADD PUSH1 0x1 SWAP1 SLOAD SWAP1 PUSH2 0x100 EXP SWAP1 DIV PUSH1 0xFF AND ISZERO ISZERO ISZERO ISZERO DUP2 MSTORE PUSH1 0x20 ADD PUSH1 0x2 DUP3 ADD PUSH1 0x2 SWAP1 SLOAD SWAP1 PUSH2 0x100 EXP SWAP1 DIV PUSH1 0xFF AND ISZERO ISZERO ISZERO ISZERO DUP2 MSTORE PUSH1 0x20 ADD PUSH1 0x2 DUP3 ADD PUSH1 0x3 SWAP1 SLOAD SWAP1 PUSH2 0x100 EXP SWAP1 DIV PUSH1 0xFF AND ISZERO ISZERO ISZERO ISZERO DUP2 MSTORE POP POP SWAP1 POP SWAP2 SWAP1 POP JUMP JUMPDEST PUSH1 0x1 DUP3 PUSH1 0x40 MLOAD PUSH2 0x2E8 SWAP2 SWAP1 PUSH2 0xCAE JUMP JUMPDEST SWAP1 DUP2 MSTORE PUSH1 0x20 ADD PUSH1 0x40 MLOAD DUP1 SWAP2 SUB SWAP1 KECCAK256 PUSH1 0x0 SWAP1 SLOAD SWAP1 PUSH2 0x100 EXP SWAP1 DIV PUSH1 0xFF AND PUSH2 0x30D JUMPI PUSH1 0x0 DUP1 REVERT JUMPDEST PUSH2 0x315 PUSH2 0x738 JUMP JUMPDEST DUP2 PUSH1 0x0 ADD MLOAD DUP2 PUSH1 0x0 ADD DUP2 SWAP1 MSTORE POP DUP2 PUSH1 0x20 ADD MLOAD DUP2 PUSH1 0x20 ADD DUP2 SWAP1 MSTORE POP DUP2 PUSH1 0x40 ADD MLOAD DUP2 PUSH1 0x40 ADD SWAP1 ISZERO ISZERO SWAP1 DUP2 ISZERO ISZERO DUP2 MSTORE POP POP DUP2 PUSH1 0x60 ADD MLOAD DUP2 PUSH1 0x60 ADD SWAP1 ISZERO ISZERO SWAP1 DUP2 ISZERO ISZERO DUP2 MSTORE POP POP DUP2 PUSH1 0x80 ADD MLOAD DUP2 PUSH1 0x80 ADD SWAP1 ISZERO ISZERO SWAP1 DUP2 ISZERO ISZERO DUP2 MSTORE POP POP DUP2 PUSH1 0xA0 ADD MLOAD DUP2 PUSH1 0xA0 ADD SWAP1 ISZERO ISZERO SWAP1 DUP2 ISZERO ISZERO DUP2 MSTORE POP POP DUP1 PUSH1 0x0 DUP5 PUSH1 0x40 MLOAD PUSH2 0x390 SWAP2 SWAP1 PUSH2 0xCAE JUMP JUMPDEST SWAP1 DUP2 MSTORE PUSH1 0x20 ADD PUSH1 0x40 MLOAD DUP1 SWAP2 SUB SWAP1 KECCAK256 PUSH1 0x0 DUP3 ADD MLOAD DUP2 PUSH1 0x0 ADD SWAP1 DUP2 PUSH2 0x3B3 SWAP2 SWAP1 PUSH2 0xEDB JUMP JUMPDEST POP PUSH1 0x20 DUP3 ADD MLOAD DUP2 PUSH1 0x1 ADD SWAP1 DUP2 PUSH2 0x3C9 SWAP2 SWAP1 PUSH2 0xEDB JUMP JUMPDEST POP PUSH1 0x40 DUP3 ADD MLOAD DUP2 PUSH1 0x2 ADD PUSH1 0x0 PUSH2 0x100 EXP DUP2 SLOAD DUP2 PUSH1 0xFF MUL NOT AND SWAP1 DUP4 ISZERO ISZERO MUL OR SWAP1 SSTORE POP PUSH1 0x60 DUP3 ADD MLOAD DUP2 PUSH1 0x2 ADD PUSH1 0x1 PUSH2 0x100 EXP DUP2 SLOAD DUP2 PUSH1 0xFF MUL NOT AND SWAP1 DUP4 ISZERO ISZERO MUL OR SWAP1 SSTORE POP PUSH1 0x80 DUP3 ADD MLOAD DUP2 PUSH1 0x2 ADD PUSH1 0x2 PUSH2 0x100 EXP DUP2 SLOAD DUP2 PUSH1 0xFF MUL NOT AND SWAP1 DUP4 ISZERO ISZERO MUL OR SWAP1 SSTORE POP PUSH1 0xA0 DUP3 ADD MLOAD DUP2 PUSH1 0x2 ADD PUSH1 0x3 PUSH2 0x100 EXP DUP2 SLOAD DUP2 PUSH1 0xFF MUL NOT AND SWAP1 DUP4 ISZERO ISZERO MUL OR SWAP1 SSTORE POP SWAP1 POP POP POP POP POP JUMP JUMPDEST PUSH1 0x1 DUP3 PUSH1 0x40 MLOAD PUSH2 0x462 SWAP2 SWAP1 PUSH2 0xCAE JUMP JUMPDEST SWAP1 DUP2 MSTORE PUSH1 0x20 ADD PUSH1 0x40 MLOAD DUP1 SWAP2 SUB SWAP1 KECCAK256 PUSH1 0x0 SWAP1 SLOAD SWAP1 PUSH2 0x100 EXP SWAP1 DIV PUSH1 0xFF AND ISZERO PUSH2 0x488 JUMPI PUSH1 0x0 DUP1 REVERT JUMPDEST PUSH2 0x490 PUSH2 0x738 JUMP JUMPDEST DUP2 PUSH1 0x0 ADD MLOAD DUP2 PUSH1 0x0 ADD DUP2 SWAP1 MSTORE POP DUP2 PUSH1 0x20 ADD MLOAD DUP2 PUSH1 0x20 ADD DUP2 SWAP1 MSTORE POP DUP2 PUSH1 0x40 ADD MLOAD DUP2 PUSH1 0x40 ADD SWAP1 ISZERO ISZERO SWAP1 DUP2 ISZERO ISZERO DUP2 MSTORE POP POP DUP2 PUSH1 0x60 ADD MLOAD DUP2 PUSH1 0x60 ADD SWAP1 ISZERO ISZERO SWAP1 DUP2 ISZERO ISZERO DUP2 MSTORE POP POP DUP2 PUSH1 0x80 ADD MLOAD DUP2 PUSH1 0x80 ADD SWAP1 ISZERO ISZERO SWAP1 DUP2 ISZERO ISZERO DUP2 MSTORE POP POP DUP2 PUSH1 0xA0 ADD MLOAD DUP2 PUSH1 0xA0 ADD SWAP1 ISZERO ISZERO SWAP1 DUP2 ISZERO ISZERO DUP2 MSTORE POP POP DUP1 PUSH1 0x0 DUP5 PUSH1 0x40 MLOAD PUSH2 0x50B SWAP2 SWAP1 PUSH2 0xCAE JUMP JUMPDEST SWAP1 DUP2 MSTORE PUSH1 0x20 ADD PUSH1 0x40 MLOAD DUP1 SWAP2 SUB SWAP1 KECCAK256 PUSH1 0x0 DUP3 ADD MLOAD DUP2 PUSH1 0x0 ADD SWAP1 DUP2 PUSH2 0x52E SWAP2 SWAP1 PUSH2 0xEDB JUMP JUMPDEST POP PUSH1 0x20 DUP3 ADD MLOAD DUP2 PUSH1 0x1 ADD SWAP1 DUP2 PUSH2 0x544 SWAP2 SWAP1 PUSH2 0xEDB JUMP JUMPDEST POP PUSH1 0x40 DUP3 ADD MLOAD DUP2 PUSH1 0x2 ADD PUSH1 0x0 PUSH2 0x100 EXP DUP2 SLOAD DUP2 PUSH1 0xFF MUL NOT AND SWAP1 DUP4 ISZERO ISZERO MUL OR SWAP1 SSTORE POP PUSH1 0x60 DUP3 ADD MLOAD DUP2 PUSH1 0x2 ADD PUSH1 0x1 PUSH2 0x100 EXP DUP2 SLOAD DUP2 PUSH1 0xFF MUL NOT AND SWAP1 DUP4 ISZERO ISZERO MUL OR SWAP1 SSTORE POP PUSH1 0x80 DUP3 ADD MLOAD DUP2 PUSH1 0x2 ADD PUSH1 0x2 PUSH2 0x100 EXP DUP2 SLOAD DUP2 PUSH1 0xFF MUL NOT AND SWAP1 DUP4 ISZERO ISZERO MUL OR SWAP1 SSTORE POP PUSH1 0xA0 DUP3 ADD MLOAD DUP2 PUSH1 0x2 ADD PUSH1 0x3 PUSH2 0x100 EXP DUP2 SLOAD DUP2 PUSH1 0xFF MUL NOT AND SWAP1 DUP4 ISZERO ISZERO MUL OR SWAP1 SSTORE POP SWAP1 POP POP PUSH1 0x1 DUP1 DUP5 PUSH1 0x40 MLOAD PUSH2 0x5D9 SWAP2 SWAP1 PUSH2 0xCAE JUMP JUMPDEST SWAP1 DUP2 MSTORE PUSH1 0x20 ADD PUSH1 0x40 MLOAD DUP1 SWAP2 SUB SWAP1 KECCAK256 PUSH1 0x0 PUSH2 0x100 EXP DUP2 SLOAD DUP2 PUSH1 0xFF MUL NOT AND SWAP1 DUP4 ISZERO ISZERO MUL OR SWAP1 SSTORE POP POP POP POP JUMP JUMPDEST PUSH1 0x0 PUSH1 0x1 DUP3 PUSH1 0x40 MLOAD PUSH2 0x615 SWAP2 SWAP1 PUSH2 0xCAE JUMP JUMPDEST SWAP1 DUP2 MSTORE PUSH1 0x20 ADD PUSH1 0x40 MLOAD DUP1 SWAP2 SUB SWAP1 KECCAK256 PUSH1 0x0 SWAP1 SLOAD SWAP1 PUSH2 0x100 EXP SWAP1 DIV PUSH1 0xFF AND SWAP1 POP SWAP2 SWAP1 POP JUMP JUMPDEST PUSH1 0x1 DUP2 PUSH1 0x40 MLOAD PUSH2 0x648 SWAP2 SWAP1 PUSH2 0xCAE JUMP JUMPDEST SWAP1 DUP2 MSTORE PUSH1 0x20 ADD PUSH1 0x40 MLOAD DUP1 SWAP2 SUB SWAP1 KECCAK256 PUSH1 0x0 SWAP1 SLOAD SWAP1 PUSH2 0x100 EXP SWAP1 DIV PUSH1 0xFF AND PUSH2 0x66D JUMPI PUSH1 0x0 DUP1 REVERT JUMPDEST PUSH1 0x0 DUP2 PUSH1 0x40 MLOAD PUSH2 0x67D SWAP2 SWAP1 PUSH2 0xCAE JUMP JUMPDEST SWAP1 DUP2 MSTORE PUSH1 0x20 ADD PUSH1 0x40 MLOAD DUP1 SWAP2 SUB SWAP1 KECCAK256 PUSH1 0x0 DUP1 DUP3 ADD PUSH1 0x0 PUSH2 0x69C SWAP2 SWAP1 PUSH2 0x776 JUMP JUMPDEST PUSH1 0x1 DUP3 ADD PUSH1 0x0 PUSH2 0x6AC SWAP2 SWAP1 PUSH2 0x776 JUMP JUMPDEST PUSH1 0x2 DUP3 ADD PUSH1 0x0 PUSH2 0x100 EXP DUP2 SLOAD SWAP1 PUSH1 0xFF MUL NOT AND SWAP1 SSTORE PUSH1 0x2 DUP3 ADD PUSH1 0x1 PUSH2 0x100 EXP DUP2 SLOAD SWAP1 PUSH1 0xFF MUL NOT AND SWAP1 SSTORE PUSH1 0x2 DUP3 ADD PUSH1 0x2 PUSH2 0x100 EXP DUP2 SLOAD SWAP1 PUSH1 0xFF MUL NOT AND SWAP1 SSTORE PUSH1 0x2 DUP3 ADD PUSH1 0x3 PUSH2 0x100 EXP DUP2 SLOAD SWAP1 PUSH1 0xFF MUL NOT AND SWAP1 SSTORE POP POP PUSH1 0x0 PUSH1 0x1 DUP3 PUSH1 0x40 MLOAD PUSH2 0x710 SWAP2 SWAP1 PUSH2 0xCAE JUMP JUMPDEST SWAP1 DUP2 MSTORE PUSH1 0x20 ADD PUSH1 0x40 MLOAD DUP1 SWAP2 SUB SWAP1 KECCAK256 PUSH1 0x0 PUSH2 0x100 EXP DUP2 SLOAD DUP2 PUSH1 0xFF MUL NOT AND SWAP1 DUP4 ISZERO ISZERO MUL OR SWAP1 SSTORE POP POP JUMP JUMPDEST PUSH1 0x40 MLOAD DUP1 PUSH1 0xC0 ADD PUSH1 0x40 MSTORE DUP1 PUSH1 0x60 DUP2 MSTORE PUSH1 0x20 ADD PUSH1 0x60 DUP2 MSTORE PUSH1 0x20 ADD PUSH1 0x0 ISZERO ISZERO DUP2 MSTORE PUSH1 0x20 ADD PUSH1 0x0 ISZERO ISZERO DUP2 MSTORE PUSH1 0x20 ADD PUSH1 0x0 ISZERO ISZERO DUP2 MSTORE PUSH1 0x20 ADD PUSH1 0x0 ISZERO ISZERO DUP2 MSTORE POP SWAP1 JUMP JUMPDEST POP DUP1 SLOAD PUSH2 0x782 SWAP1 PUSH2 0xCF4 JUMP JUMPDEST PUSH1 0x0 DUP3 SSTORE DUP1 PUSH1 0x1F LT PUSH2 0x794 JUMPI POP PUSH2 0x7B3 JUMP JUMPDEST PUSH1 0x1F ADD PUSH1 0x20 SWAP1 DIV SWAP1 PUSH1 0x0 MSTORE PUSH1 0x20 PUSH1 0x0 KECCAK256 SWAP1 DUP2 ADD SWAP1 PUSH2 0x7B2 SWAP2 SWAP1 PUSH2 0x7B6 JUMP JUMPDEST JUMPDEST POP JUMP JUMPDEST JUMPDEST DUP1 DUP3 GT ISZERO PUSH2 0x7CF JUMPI PUSH1 0x0 DUP2 PUSH1 0x0 SWAP1 SSTORE POP PUSH1 0x1 ADD PUSH2 0x7B7 JUMP JUMPDEST POP SWAP1 JUMP JUMPDEST PUSH1 0x0 PUSH1 0x40 MLOAD SWAP1 POP SWAP1 JUMP JUMPDEST PUSH1 0x0 DUP1 REVERT JUMPDEST PUSH1 0x0 DUP1 REVERT JUMPDEST PUSH1 0x0 DUP1 REVERT JUMPDEST PUSH1 0x0 DUP1 REVERT JUMPDEST PUSH1 0x0 PUSH1 0x1F NOT PUSH1 0x1F DUP4 ADD AND SWAP1 POP SWAP2 SWAP1 POP JUMP JUMPDEST PUSH32 0x4E487B7100000000000000000000000000000000000000000000000000000000 PUSH1 0x0 MSTORE PUSH1 0x41 PUSH1 0x4 MSTORE PUSH1 0x24 PUSH1 0x0 REVERT JUMPDEST PUSH2 0x83A DUP3 PUSH2 0x7F1 JUMP JUMPDEST DUP2 ADD DUP2 DUP2 LT PUSH8 0xFFFFFFFFFFFFFFFF DUP3 GT OR ISZERO PUSH2 0x859 JUMPI PUSH2 0x858 PUSH2 0x802 JUMP JUMPDEST JUMPDEST DUP1 PUSH1 0x40 MSTORE POP POP POP JUMP JUMPDEST PUSH1 0x0 PUSH2 0x86C PUSH2 0x7D3 JUMP JUMPDEST SWAP1 POP PUSH2 0x878 DUP3 DUP3 PUSH2 0x831 JUMP JUMPDEST SWAP2 SWAP1 POP JUMP JUMPDEST PUSH1 0x0 PUSH8 0xFFFFFFFFFFFFFFFF DUP3 GT ISZERO PUSH2 0x898 JUMPI PUSH2 0x897 PUSH2 0x802 JUMP JUMPDEST JUMPDEST PUSH2 0x8A1 DUP3 PUSH2 0x7F1 JUMP JUMPDEST SWAP1 POP PUSH1 0x20 DUP2 ADD SWAP1 POP SWAP2 SWAP1 POP JUMP JUMPDEST DUP3 DUP2 DUP4 CALLDATACOPY PUSH1 0x0 DUP4 DUP4 ADD MSTORE POP POP POP JUMP JUMPDEST PUSH1 0x0 PUSH2 0x8D0 PUSH2 0x8CB DUP5 PUSH2 0x87D JUMP JUMPDEST PUSH2 0x862 JUMP JUMPDEST SWAP1 POP DUP3 DUP2 MSTORE PUSH1 0x20 DUP2 ADD DUP5 DUP5 DUP5 ADD GT ISZERO PUSH2 0x8EC JUMPI PUSH2 0x8EB PUSH2 0x7EC JUMP JUMPDEST JUMPDEST PUSH2 0x8F7 DUP5 DUP3 DUP6 PUSH2 0x8AE JUMP JUMPDEST POP SWAP4 SWAP3 POP POP POP JUMP JUMPDEST PUSH1 0x0 DUP3 PUSH1 0x1F DUP4 ADD SLT PUSH2 0x914 JUMPI PUSH2 0x913 PUSH2 0x7E7 JUMP JUMPDEST JUMPDEST DUP2 CALLDATALOAD PUSH2 0x924 DUP5 DUP3 PUSH1 0x20 DUP7 ADD PUSH2 0x8BD JUMP JUMPDEST SWAP2 POP POP SWAP3 SWAP2 POP POP JUMP JUMPDEST PUSH1 0x0 PUSH1 0x20 DUP3 DUP5 SUB SLT ISZERO PUSH2 0x943 JUMPI PUSH2 0x942 PUSH2 0x7DD JUMP JUMPDEST JUMPDEST PUSH1 0x0 DUP3 ADD CALLDATALOAD PUSH8 0xFFFFFFFFFFFFFFFF DUP2 GT ISZERO PUSH2 0x961 JUMPI PUSH2 0x960 PUSH2 0x7E2 JUMP JUMPDEST JUMPDEST PUSH2 0x96D DUP5 DUP3 DUP6 ADD PUSH2 0x8FF JUMP JUMPDEST SWAP2 POP POP SWAP3 SWAP2 POP POP JUMP JUMPDEST PUSH1 0x0 DUP2 MLOAD SWAP1 POP SWAP2 SWAP1 POP JUMP JUMPDEST PUSH1 0x0 DUP3 DUP3 MSTORE PUSH1 0x20 DUP3 ADD SWAP1 POP SWAP3 SWAP2 POP POP JUMP JUMPDEST PUSH1 0x0 JUMPDEST DUP4 DUP2 LT ISZERO PUSH2 0x9B0 JUMPI DUP1 DUP3 ADD MLOAD DUP2 DUP5 ADD MSTORE PUSH1 0x20 DUP2 ADD SWAP1 POP PUSH2 0x995 JUMP JUMPDEST PUSH1 0x0 DUP5 DUP5 ADD MSTORE POP POP POP POP JUMP JUMPDEST PUSH1 0x0 PUSH2 0x9C7 DUP3 PUSH2 0x976 JUMP JUMPDEST PUSH2 0x9D1 DUP2 DUP6 PUSH2 0x981 JUMP JUMPDEST SWAP4 POP PUSH2 0x9E1 DUP2 DUP6 PUSH1 0x20 DUP7 ADD PUSH2 0x992 JUMP JUMPDEST PUSH2 0x9EA DUP2 PUSH2 0x7F1 JUMP JUMPDEST DUP5 ADD SWAP2 POP POP SWAP3 SWAP2 POP POP JUMP JUMPDEST PUSH1 0x0 DUP2 ISZERO ISZERO SWAP1 POP SWAP2 SWAP1 POP JUMP JUMPDEST PUSH2 0xA0A DUP2 PUSH2 0x9F5 JUMP JUMPDEST DUP3 MSTORE POP POP JUMP JUMPDEST PUSH1 0x0 PUSH1 0xC0 DUP4 ADD PUSH1 0x0 DUP4 ADD MLOAD DUP5 DUP3 SUB PUSH1 0x0 DUP7 ADD MSTORE PUSH2 0xA2D DUP3 DUP3 PUSH2 0x9BC JUMP JUMPDEST SWAP2 POP POP PUSH1 0x20 DUP4 ADD MLOAD DUP5 DUP3 SUB PUSH1 0x20 DUP7 ADD MSTORE PUSH2 0xA47 DUP3 DUP3 PUSH2 0x9BC JUMP JUMPDEST SWAP2 POP POP PUSH1 0x40 DUP4 ADD MLOAD PUSH2 0xA5C PUSH1 0x40 DUP7 ADD DUP3 PUSH2 0xA01 JUMP JUMPDEST POP PUSH1 0x60 DUP4 ADD MLOAD PUSH2 0xA6F PUSH1 0x60 DUP7 ADD DUP3 PUSH2 0xA01 JUMP JUMPDEST POP PUSH1 0x80 DUP4 ADD MLOAD PUSH2 0xA82 PUSH1 0x80 DUP7 ADD DUP3 PUSH2 0xA01 JUMP JUMPDEST POP PUSH1 0xA0 DUP4 ADD MLOAD PUSH2 0xA95 PUSH1 0xA0 DUP7 ADD DUP3 PUSH2 0xA01 JUMP JUMPDEST POP DUP1 SWAP2 POP POP SWAP3 SWAP2 POP POP JUMP JUMPDEST PUSH1 0x0 PUSH1 0x20 DUP3 ADD SWAP1 POP DUP2 DUP2 SUB PUSH1 0x0 DUP4 ADD MSTORE PUSH2 0xABA DUP2 DUP5 PUSH2 0xA10 JUMP JUMPDEST SWAP1 POP SWAP3 SWAP2 POP POP JUMP JUMPDEST PUSH1 0x0 DUP1 REVERT JUMPDEST PUSH1 0x0 DUP1 REVERT JUMPDEST PUSH2 0xAD5 DUP2 PUSH2 0x9F5 JUMP JUMPDEST DUP2 EQ PUSH2 0xAE0 JUMPI PUSH1 0x0 DUP1 REVERT JUMPDEST POP JUMP JUMPDEST PUSH1 0x0 DUP2 CALLDATALOAD SWAP1 POP PUSH2 0xAF2 DUP2 PUSH2 0xACC JUMP JUMPDEST SWAP3 SWAP2 POP POP JUMP JUMPDEST PUSH1 0x0 PUSH1 0xC0 DUP3 DUP5 SUB SLT ISZERO PUSH2 0xB0E JUMPI PUSH2 0xB0D PUSH2 0xAC2 JUMP JUMPDEST JUMPDEST PUSH2 0xB18 PUSH1 0xC0 PUSH2 0x862 JUMP JUMPDEST SWAP1 POP PUSH1 0x0 DUP3 ADD CALLDATALOAD PUSH8 0xFFFFFFFFFFFFFFFF DUP2 GT ISZERO PUSH2 0xB38 JUMPI PUSH2 0xB37 PUSH2 0xAC7 JUMP JUMPDEST JUMPDEST PUSH2 0xB44 DUP5 DUP3 DUP6 ADD PUSH2 0x8FF JUMP JUMPDEST PUSH1 0x0 DUP4 ADD MSTORE POP PUSH1 0x20 DUP3 ADD CALLDATALOAD PUSH8 0xFFFFFFFFFFFFFFFF DUP2 GT ISZERO PUSH2 0xB68 JUMPI PUSH2 0xB67 PUSH2 0xAC7 JUMP JUMPDEST JUMPDEST PUSH2 0xB74 DUP5 DUP3 DUP6 ADD PUSH2 0x8FF JUMP JUMPDEST PUSH1 0x20 DUP4 ADD MSTORE POP PUSH1 0x40 PUSH2 0xB88 DUP5 DUP3 DUP6 ADD PUSH2 0xAE3 JUMP JUMPDEST PUSH1 0x40 DUP4 ADD MSTORE POP PUSH1 0x60 PUSH2 0xB9C DUP5 DUP3 DUP6 ADD PUSH2 0xAE3 JUMP JUMPDEST PUSH1 0x60 DUP4 ADD MSTORE POP PUSH1 0x80 PUSH2 0xBB0 DUP5 DUP3 DUP6 ADD PUSH2 0xAE3 JUMP JUMPDEST PUSH1 0x80 DUP4 ADD MSTORE POP PUSH1 0xA0 PUSH2 0xBC4 DUP5 DUP3 DUP6 ADD PUSH2 0xAE3 JUMP JUMPDEST PUSH1 0xA0 DUP4 ADD MSTORE POP SWAP3 SWAP2 POP POP JUMP JUMPDEST PUSH1 0x0 DUP1 PUSH1 0x40 DUP4 DUP6 SUB SLT ISZERO PUSH2 0xBE7 JUMPI PUSH2 0xBE6 PUSH2 0x7DD JUMP JUMPDEST JUMPDEST PUSH1 0x0 DUP4 ADD CALLDATALOAD PUSH8 0xFFFFFFFFFFFFFFFF DUP2 GT ISZERO PUSH2 0xC05 JUMPI PUSH2 0xC04 PUSH2 0x7E2 JUMP JUMPDEST JUMPDEST PUSH2 0xC11 DUP6 DUP3 DUP7 ADD PUSH2 0x8FF JUMP JUMPDEST SWAP3 POP POP PUSH1 0x20 DUP4 ADD CALLDATALOAD PUSH8 0xFFFFFFFFFFFFFFFF DUP2 GT ISZERO PUSH2 0xC32 JUMPI PUSH2 0xC31 PUSH2 0x7E2 JUMP JUMPDEST JUMPDEST PUSH2 0xC3E DUP6 DUP3 DUP7 ADD PUSH2 0xAF8 JUMP JUMPDEST SWAP2 POP POP SWAP3 POP SWAP3 SWAP1 POP JUMP JUMPDEST PUSH2 0xC51 DUP2 PUSH2 0x9F5 JUMP JUMPDEST DUP3 MSTORE POP POP JUMP JUMPDEST PUSH1 0x0 PUSH1 0x20 DUP3 ADD SWAP1 POP PUSH2 0xC6C PUSH1 0x0 DUP4 ADD DUP5 PUSH2 0xC48 JUMP JUMPDEST SWAP3 SWAP2 POP POP JUMP JUMPDEST PUSH1 0x0 DUP2 SWAP1 POP SWAP3 SWAP2 POP POP JUMP JUMPDEST PUSH1 0x0 PUSH2 0xC88 DUP3 PUSH2 0x976 JUMP JUMPDEST PUSH2 0xC92 DUP2 DUP6 PUSH2 0xC72 JUMP JUMPDEST SWAP4 POP PUSH2 0xCA2 DUP2 DUP6 PUSH1 0x20 DUP7 ADD PUSH2 0x992 JUMP JUMPDEST DUP1 DUP5 ADD SWAP2 POP POP SWAP3 SWAP2 POP POP JUMP JUMPDEST PUSH1 0x0 PUSH2 0xCBA DUP3 DUP5 PUSH2 0xC7D JUMP JUMPDEST SWAP2 POP DUP2 SWAP1 POP SWAP3 SWAP2 POP POP JUMP JUMPDEST PUSH32 0x4E487B7100000000000000000000000000000000000000000000000000000000 PUSH1 0x0 MSTORE PUSH1 0x22 PUSH1 0x4 MSTORE PUSH1 0x24 PUSH1 0x0 REVERT JUMPDEST PUSH1 0x0 PUSH1 0x2 DUP3 DIV SWAP1 POP PUSH1 0x1 DUP3 AND DUP1 PUSH2 0xD0C JUMPI PUSH1 0x7F DUP3 AND SWAP2 POP JUMPDEST PUSH1 0x20 DUP3 LT DUP2 SUB PUSH2 0xD1F JUMPI PUSH2 0xD1E PUSH2 0xCC5 JUMP JUMPDEST JUMPDEST POP SWAP2 SWAP1 POP JUMP JUMPDEST PUSH1 0x0 DUP2 SWAP1 POP DUP2 PUSH1 0x0 MSTORE PUSH1 0x20 PUSH1 0x0 KECCAK256 SWAP1 POP SWAP2 SWAP1 POP JUMP JUMPDEST PUSH1 0x0 PUSH1 0x20 PUSH1 0x1F DUP4 ADD DIV SWAP1 POP SWAP2 SWAP1 POP JUMP JUMPDEST PUSH1 0x0 DUP3 DUP3 SHL SWAP1 POP SWAP3 SWAP2 POP POP JUMP JUMPDEST PUSH1 0x0 PUSH1 0x8 DUP4 MUL PUSH2 0xD87 PUSH32 0xFFFFFFFFFFFFFFFFFFFFFFFFFFFFFFFFFFFFFFFFFFFFFFFFFFFFFFFFFFFFFFFF DUP3 PUSH2 0xD4A JUMP JUMPDEST PUSH2 0xD91 DUP7 DUP4 PUSH2 0xD4A JUMP JUMPDEST SWAP6 POP DUP1 NOT DUP5 AND SWAP4 POP DUP1 DUP7 AND DUP5 OR SWAP3 POP POP POP SWAP4 SWAP3 POP POP POP JUMP JUMPDEST PUSH1 0x0 DUP2 SWAP1 POP SWAP2 SWAP1 POP JUMP JUMPDEST PUSH1 0x0 DUP2 SWAP1 POP SWAP2 SWAP1 POP JUMP JUMPDEST PUSH1 0x0 PUSH2 0xDD8 PUSH2 0xDD3 PUSH2 0xDCE DUP5 PUSH2 0xDA9 JUMP JUMPDEST PUSH2 0xDB3 JUMP JUMPDEST PUSH2 0xDA9 JUMP JUMPDEST SWAP1 POP SWAP2 SWAP1 POP JUMP JUMPDEST PUSH1 0x0 DUP2 SWAP1 POP SWAP2 SWAP1 POP JUMP JUMPDEST PUSH2 0xDF2 DUP4 PUSH2 0xDBD JUMP JUMPDEST PUSH2 0xE06 PUSH2 0xDFE DUP3 PUSH2 0xDDF JUMP JUMPDEST DUP5 DUP5 SLOAD PUSH2 0xD57 JUMP JUMPDEST DUP3 SSTORE POP POP POP POP JUMP JUMPDEST PUSH1 0x0 SWAP1 JUMP JUMPDEST PUSH2 0xE1B PUSH2 0xE0E JUMP JUMPDEST PUSH2 0xE26 DUP2 DUP5 DUP5 PUSH2 0xDE9 JUMP JUMPDEST POP POP POP JUMP JUMPDEST JUMPDEST DUP2 DUP2 LT ISZERO PUSH2 0xE4A JUMPI PUSH2 0xE3F PUSH1 0x0 DUP3 PUSH2 0xE13 JUMP JUMPDEST PUSH1 0x1 DUP2 ADD SWAP1 POP PUSH2 0xE2C JUMP JUMPDEST POP POP JUMP JUMPDEST PUSH1 0x1F DUP3 GT ISZERO PUSH2 0xE8F JUMPI PUSH2 0xE60 DUP2 PUSH2 0xD25 JUMP JUMPDEST PUSH2 0xE69 DUP5 PUSH2 0xD3A JUMP JUMPDEST DUP2 ADD PUSH1 0x20 DUP6 LT ISZERO PUSH2 0xE78 JUMPI DUP2 SWAP1 POP JUMPDEST PUSH2 0xE8C PUSH2 0xE84 DUP6 PUSH2 0xD3A JUMP JUMPDEST DUP4 ADD DUP3 PUSH2 0xE2B JUMP JUMPDEST POP POP JUMPDEST POP POP POP JUMP JUMPDEST PUSH1 0x0 DUP3 DUP3 SHR SWAP1 POP SWAP3 SWAP2 POP POP JUMP JUMPDEST PUSH1 0x0 PUSH2 0xEB2 PUSH1 0x0 NOT DUP5 PUSH1 0x8 MUL PUSH2 0xE94 JUMP JUMPDEST NOT DUP1 DUP4 AND SWAP2 POP POP SWAP3 SWAP2 POP POP JUMP JUMPDEST PUSH1 0x0 PUSH2 0xECB DUP4 DUP4 PUSH2 0xEA1 JUMP JUMPDEST SWAP2 POP DUP3 PUSH1 0x2 MUL DUP3 OR SWAP1 POP SWAP3 SWAP2 POP POP JUMP JUMPDEST PUSH2 0xEE4 DUP3 PUSH2 0x976 JUMP JUMPDEST PUSH8 0xFFFFFFFFFFFFFFFF DUP2 GT ISZERO PUSH2 0xEFD JUMPI PUSH2 0xEFC PUSH2 0x802 JUMP JUMPDEST JUMPDEST PUSH2 0xF07 DUP3 SLOAD PUSH2 0xCF4 JUMP JUMPDEST PUSH2 0xF12 DUP3 DUP3 DUP6 PUSH2 0xE4E JUMP JUMPDEST PUSH1 0x0 PUSH1 0x20 SWAP1 POP PUSH1 0x1F DUP4 GT PUSH1 0x1 DUP2 EQ PUSH2 0xF45 JUMPI PUSH1 0x0 DUP5 ISZERO PUSH2 0xF33 JUMPI DUP3 DUP8 ADD MLOAD SWAP1 POP JUMPDEST PUSH2 0xF3D DUP6 DUP3 PUSH2 0xEBF JUMP JUMPDEST DUP7 SSTORE POP PUSH2 0xFA5 JUMP JUMPDEST PUSH1 0x1F NOT DUP5 AND PUSH2 0xF53 DUP7 PUSH2 0xD25 JUMP JUMPDEST PUSH1 0x0 JUMPDEST DUP3 DUP2 LT ISZERO PUSH2 0xF7B JUMPI DUP5 DUP10 ADD MLOAD DUP3 SSTORE PUSH1 0x1 DUP3 ADD SWAP2 POP PUSH1 0x20 DUP6 ADD SWAP5 POP PUSH1 0x20 DUP2 ADD SWAP1 POP PUSH2 0xF56 JUMP JUMPDEST DUP7 DUP4 LT ISZERO PUSH2 0xF98 JUMPI DUP5 DUP10 ADD MLOAD PUSH2 0xF94 PUSH1 0x1F DUP10 AND DUP3 PUSH2 0xEA1 JUMP JUMPDEST DUP4 SSTORE POP JUMPDEST PUSH1 0x1 PUSH1 0x2 DUP9 MUL ADD DUP9 SSTORE POP POP POP JUMPDEST POP POP POP POP POP POP JUMP INVALID LOG2 PUSH5 0x6970667358 0x22 SLT KECCAK256 0x21 0xDC SWAP15 SWAP2 0xCA PUSH18 0x61B96F4FE83060713600DE6EEA8C16D318DD 0xAF CALLDATACOPY 0xF9 PUSH4 0x69B87529 PUSH5 0x736F6C6343 STOP ADDMOD LT STOP CALLER "
				},
				"gasEstimates": {
					"creation": {
						"codeDepositCost": "813400",
						"executionCost": "infinite",
						"totalCost": "infinite"
					},
					"external": {
						"deleteUser(string)": "infinite",
						"getUser(string)": "infinite",
						"isRegistered(string)": "infinite",
						"registerUser(string,(string,string,bool,bool,bool,bool))": "infinite",
						"updateUser(string,(string,string,bool,bool,bool,bool))": "infinite"
					}
				},
				"methodIdentifiers": {
					"deleteUser(string)": "d3695161",
					"getUser(string)": "31feb671",
					"isRegistered(string)": "c822d7f0",
					"registerUser(string,(string,string,bool,bool,bool,bool))": "aeec5fc9",
					"updateUser(string,(string,string,bool,bool,bool,bool))": "9cb4a5b3"
				}
			},
			"storageLayout": {
				"storage": [
					{
						"astId": 9,
						"contract": "DID.sol:DID",
						"label": "user",
						"offset": 0,
						"slot": "0",
						"type": "t_mapping(t_string_memory_ptr,t_struct(User)237_storage)"
					},
					{
						"astId": 13,
						"contract": "DID.sol:DID",
						"label": "registeredUser",
						"offset": 0,
						"slot": "1",
						"type": "t_mapping(t_string_memory_ptr,t_bool)"
					}
				],
				"types": {
					"t_bool": {
						"encoding": "inplace",
						"label": "bool",
						"numberOfBytes": "1"
					},
					"t_mapping(t_string_memory_ptr,t_bool)": {
						"encoding": "mapping",
						"key": "t_string_memory_ptr",
						"label": "mapping(string => bool)",
						"numberOfBytes": "32",
						"value": "t_bool"
					},
					"t_mapping(t_string_memory_ptr,t_struct(User)237_storage)": {
						"encoding": "mapping",
						"key": "t_string_memory_ptr",
						"label": "mapping(string => struct IDID.User)",
						"numberOfBytes": "32",
						"value": "t_struct(User)237_storage"
					},
					"t_string_memory_ptr": {
						"encoding": "bytes",
						"label": "string",
						"numberOfBytes": "32"
					},
					"t_string_storage": {
						"encoding": "bytes",
						"label": "string",
						"numberOfBytes": "32"
					},
					"t_struct(User)237_storage": {
						"encoding": "inplace",
						"label": "struct IDID.User",
						"members": [
							{
								"astId": 226,
								"contract": "DID.sol:DID",
								"label": "email",
								"offset": 0,
								"slot": "0",
								"type": "t_string_storage"
							},
							{
								"astId": 228,
								"contract": "DID.sol:DID",
								"label": "password",
								"offset": 0,
								"slot": "1",
								"type": "t_string_storage"
							},
							{
								"astId": 230,
								"contract": "DID.sol:DID",
								"label": "A",
								"offset": 0,
								"slot": "2",
								"type": "t_bool"
							},
							{
								"astId": 232,
								"contract": "DID.sol:DID",
								"label": "B",
								"offset": 1,
								"slot": "2",
								"type": "t_bool"
							},
							{
								"astId": 234,
								"contract": "DID.sol:DID",
								"label": "C",
								"offset": 2,
								"slot": "2",
								"type": "t_bool"
							},
							{
								"astId": 236,
								"contract": "DID.sol:DID",
								"label": "D",
								"offset": 3,
								"slot": "2",
								"type": "t_bool"
							}
						],
						"numberOfBytes": "96"
					}
				}
			},
			"userdoc": {
				"kind": "user",
				"methods": {},
				"version": 1
			}
		}
	}
}