{
  "contractName": "DID",
  "abi": [
    {
      "inputs": [
        {
          "internalType": "string",
          "name": "_hashedId",
          "type": "string"
        },
        {
          "components": [
            {
              "internalType": "string",
              "name": "gender",
              "type": "string"
            },
            {
              "internalType": "string",
              "name": "name",
              "type": "string"
            },
            {
              "internalType": "uint8",
              "name": "age",
              "type": "uint8"
            },
            {
              "internalType": "string",
              "name": "addr",
              "type": "string"
            },
            {
              "internalType": "string",
              "name": "mobile",
              "type": "string"
            },
            {
              "internalType": "string",
              "name": "email",
              "type": "string"
            }
          ],
          "internalType": "struct IDID.User",
          "name": "_data",
          "type": "tuple"
        }
      ],
      "name": "registerUser",
      "outputs": [],
      "stateMutability": "nonpayable",
      "type": "function"
    },
    {
      "inputs": [
        {
          "internalType": "string",
          "name": "_hashedId",
          "type": "string"
        },
        {
          "internalType": "string",
          "name": "_hashedId_new",
          "type": "string"
        }
      ],
      "name": "updatePassword",
      "outputs": [],
      "stateMutability": "nonpayable",
      "type": "function"
    },
    {
      "inputs": [
        {
          "internalType": "string",
          "name": "_hashedId",
          "type": "string"
        },
        {
          "components": [
            {
              "internalType": "string",
              "name": "gender",
              "type": "string"
            },
            {
              "internalType": "string",
              "name": "name",
              "type": "string"
            },
            {
              "internalType": "uint8",
              "name": "age",
              "type": "uint8"
            },
            {
              "internalType": "string",
              "name": "addr",
              "type": "string"
            },
            {
              "internalType": "string",
              "name": "mobile",
              "type": "string"
            },
            {
              "internalType": "string",
              "name": "email",
              "type": "string"
            }
          ],
          "internalType": "struct IDID.User",
          "name": "_data",
          "type": "tuple"
        }
      ],
      "name": "updateUser",
      "outputs": [],
      "stateMutability": "nonpayable",
      "type": "function"
    },
    {
      "inputs": [
        {
          "internalType": "string",
          "name": "_hashedId",
          "type": "string"
        }
      ],
      "name": "deleteUser",
      "outputs": [],
      "stateMutability": "nonpayable",
      "type": "function"
    },
    {
      "inputs": [
        {
          "internalType": "string",
          "name": "_hashedId",
          "type": "string"
        }
      ],
      "name": "getUser",
      "outputs": [
        {
          "components": [
            {
              "internalType": "string",
              "name": "gender",
              "type": "string"
            },
            {
              "internalType": "string",
              "name": "name",
              "type": "string"
            },
            {
              "internalType": "uint8",
              "name": "age",
              "type": "uint8"
            },
            {
              "internalType": "string",
              "name": "addr",
              "type": "string"
            },
            {
              "internalType": "string",
              "name": "mobile",
              "type": "string"
            },
            {
              "internalType": "string",
              "name": "email",
              "type": "string"
            }
          ],
          "internalType": "struct IDID.User",
          "name": "",
          "type": "tuple"
        }
      ],
      "stateMutability": "view",
      "type": "function",
      "constant": true
    },
    {
      "inputs": [
        {
          "internalType": "string",
          "name": "_identifier",
          "type": "string"
        },
        {
          "components": [
            {
              "internalType": "bool",
              "name": "gender",
              "type": "bool"
            },
            {
              "internalType": "bool",
              "name": "name",
              "type": "bool"
            },
            {
              "internalType": "bool",
              "name": "age",
              "type": "bool"
            },
            {
              "internalType": "bool",
              "name": "addr",
              "type": "bool"
            },
            {
              "internalType": "bool",
              "name": "mobile",
              "type": "bool"
            },
            {
              "internalType": "bool",
              "name": "email",
              "type": "bool"
            }
          ],
          "internalType": "struct IDID.NeededUser",
          "name": "_shouldSend",
          "type": "tuple"
        }
      ],
      "name": "getVP",
      "outputs": [
        {
          "components": [
            {
              "internalType": "string",
              "name": "gender",
              "type": "string"
            },
            {
              "internalType": "string",
              "name": "name",
              "type": "string"
            },
            {
              "internalType": "uint8",
              "name": "age",
              "type": "uint8"
            },
            {
              "internalType": "string",
              "name": "addr",
              "type": "string"
            },
            {
              "internalType": "string",
              "name": "mobile",
              "type": "string"
            },
            {
              "internalType": "string",
              "name": "email",
              "type": "string"
            }
          ],
          "internalType": "struct IDID.User",
          "name": "",
          "type": "tuple"
        }
      ],
      "stateMutability": "view",
      "type": "function",
      "constant": true
    },
    {
      "inputs": [
        {
          "internalType": "string",
          "name": "_hashedId",
          "type": "string"
        }
      ],
      "name": "isRegistered",
      "outputs": [
        {
          "internalType": "bool",
          "name": "",
          "type": "bool"
        }
      ],
      "stateMutability": "view",
      "type": "function",
      "constant": true
    }
  ],
  "bytecode": "0x608060405234801561001057600080fd5b50611624806100206000396000f3fe608060405234801561001057600080fd5b506004361061007d5760003560e01c8063c822d7f01161005b578063c822d7f0146100fe578063cdfbb3511461012e578063d36951611461014a578063f2c53250146101665761007d565b806331feb67114610082578063680ff0d5146100b25780638142b2e4146100e2575b600080fd5b61009c60048036038101906100979190610c51565b610182565b6040516100a99190610de3565b60405180910390f35b6100cc60048036038101906100c79190610ee7565b6104b1565b6040516100d99190610de3565b60405180910390f35b6100fc60048036038101906100f7919061109b565b610578565b005b61011860048036038101906101139190610c51565b6106f9565b6040516101259190611122565b60405180910390f35b6101486004803603810190610143919061113d565b61072e565b005b610164600480360381019061015f9190610c51565b610823565b005b610180600480360381019061017b919061109b565b610917565b005b61018a610a61565b60008260405161019a91906111f1565b90815260200160405180910390206040518060c00160405290816000820180546101c390611237565b80601f01602080910402602001604051908101604052809291908181526020018280546101ef90611237565b801561023c5780601f106102115761010080835404028352916020019161023c565b820191906000526020600020905b81548152906001019060200180831161021f57829003601f168201915b5050505050815260200160018201805461025590611237565b80601f016020809104026020016040519081016040528092919081815260200182805461028190611237565b80156102ce5780601f106102a3576101008083540402835291602001916102ce565b820191906000526020600020905b8154815290600101906020018083116102b157829003601f168201915b505050505081526020016002820160009054906101000a900460ff1660ff1660ff16815260200160038201805461030490611237565b80601f016020809104026020016040519081016040528092919081815260200182805461033090611237565b801561037d5780601f106103525761010080835404028352916020019161037d565b820191906000526020600020905b81548152906001019060200180831161036057829003601f168201915b5050505050815260200160048201805461039690611237565b80601f01602080910402602001604051908101604052809291908181526020018280546103c290611237565b801561040f5780601f106103e45761010080835404028352916020019161040f565b820191906000526020600020905b8154815290600101906020018083116103f257829003601f168201915b5050505050815260200160058201805461042890611237565b80601f016020809104026020016040519081016040528092919081815260200182805461045490611237565b80156104a15780601f10610476576101008083540402835291602001916104a1565b820191906000526020600020905b81548152906001019060200180831161048457829003601f168201915b5050505050815250509050919050565b6104b9610a61565b6104c1610a61565b6104c9610a61565b6104d285610182565b91508360600151156104ec57816060015181606001819052505b83600001511561050457816000015181600001819052505b83602001511561051c57816020015181602001819052505b83604001511561053d578160400151816040019060ff16908160ff16815250505b83608001511561055557806080015182608001819052505b8360a001511561056d578160a001518160a001819052505b809250505092915050565b60018260405161058891906111f1565b908152602001604051809103902060009054906101000a900460ff16156105ae57600080fd5b6105b6610a61565b81600001518160000181905250816020015181602001819052508160400151816040019060ff16908160ff168152505081606001518160600181905250816080015181608001819052508160a001518160a001819052506001808460405161061e91906111f1565b908152602001604051809103902060006101000a81548160ff0219169083151502179055508160008460405161065491906111f1565b90815260200160405180910390206000820151816000019081610677919061141e565b50602082015181600101908161068d919061141e565b5060408201518160020160006101000a81548160ff021916908360ff16021790555060608201518160030190816106c4919061141e565b5060808201518160040190816106da919061141e565b5060a08201518160050190816106f0919061141e565b50905050505050565b600060018260405161070b91906111f1565b908152602001604051809103902060009054906101000a900460ff169050919050565b610737826106f9565b61074057600080fd5b60008260405161075091906111f1565b908152602001604051809103902060008260405161076e91906111f1565b9081526020016040518091039020600082018160000190816107909190611506565b50600182018160010190816107a59190611506565b506002820160009054906101000a900460ff168160020160006101000a81548160ff021916908360ff160217905550600382018160030190816107e89190611506565b50600482018160040190816107fd9190611506565b50600582018160050190816108129190611506565b5090505061081f82610823565b5050565b60018160405161083391906111f1565b908152602001604051809103902060009054906101000a900460ff1661085857600080fd5b60008160405161086891906111f1565b9081526020016040518091039020600080820160006108879190610a9a565b6001820160006108979190610a9a565b6002820160006101000a81549060ff02191690556003820160006108bb9190610a9a565b6004820160006108cb9190610a9a565b6005820160006108db9190610a9a565b505060006001826040516108ef91906111f1565b908152602001604051809103902060006101000a81548160ff02191690831515021790555050565b60018260405161092791906111f1565b908152602001604051809103902060009054906101000a900460ff1661094c57600080fd5b610954610a61565b81600001518160000181905250816020015181602001819052508160400151816040019060ff16908160ff168152505081606001518160600181905250816080015181608001819052508160a001518160a00181905250806000846040516109bc91906111f1565b908152602001604051809103902060008201518160000190816109df919061141e565b5060208201518160010190816109f5919061141e565b5060408201518160020160006101000a81548160ff021916908360ff1602179055506060820151816003019081610a2c919061141e565b506080820151816004019081610a42919061141e565b5060a0820151816005019081610a58919061141e565b50905050505050565b6040518060c001604052806060815260200160608152602001600060ff1681526020016060815260200160608152602001606081525090565b508054610aa690611237565b6000825580601f10610ab85750610ad7565b601f016020900490600052602060002090810190610ad69190610ada565b5b50565b5b80821115610af3576000816000905550600101610adb565b5090565b6000604051905090565b600080fd5b600080fd5b600080fd5b600080fd5b6000601f19601f8301169050919050565b7f4e487b7100000000000000000000000000000000000000000000000000000000600052604160045260246000fd5b610b5e82610b15565b810181811067ffffffffffffffff82111715610b7d57610b7c610b26565b5b80604052505050565b6000610b90610af7565b9050610b9c8282610b55565b919050565b600067ffffffffffffffff821115610bbc57610bbb610b26565b5b610bc582610b15565b9050602081019050919050565b82818337600083830152505050565b6000610bf4610bef84610ba1565b610b86565b905082815260208101848484011115610c1057610c0f610b10565b5b610c1b848285610bd2565b509392505050565b600082601f830112610c3857610c37610b0b565b5b8135610c48848260208601610be1565b91505092915050565b600060208284031215610c6757610c66610b01565b5b600082013567ffffffffffffffff811115610c8557610c84610b06565b5b610c9184828501610c23565b91505092915050565b600081519050919050565b600082825260208201905092915050565b60005b83811015610cd4578082015181840152602081019050610cb9565b83811115610ce3576000848401525b50505050565b6000610cf482610c9a565b610cfe8185610ca5565b9350610d0e818560208601610cb6565b610d1781610b15565b840191505092915050565b600060ff82169050919050565b610d3881610d22565b82525050565b600060c0830160008301518482036000860152610d5b8282610ce9565b91505060208301518482036020860152610d758282610ce9565b9150506040830151610d8a6040860182610d2f565b5060608301518482036060860152610da28282610ce9565b91505060808301518482036080860152610dbc8282610ce9565b91505060a083015184820360a0860152610dd68282610ce9565b9150508091505092915050565b60006020820190508181036000830152610dfd8184610d3e565b905092915050565b600080fd5b600080fd5b60008115159050919050565b610e2481610e0f565b8114610e2f57600080fd5b50565b600081359050610e4181610e1b565b92915050565b600060c08284031215610e5d57610e5c610e05565b5b610e6760c0610b86565b90506000610e7784828501610e32565b6000830152506020610e8b84828501610e32565b6020830152506040610e9f84828501610e32565b6040830152506060610eb384828501610e32565b6060830152506080610ec784828501610e32565b60808301525060a0610edb84828501610e32565b60a08301525092915050565b60008060e08385031215610efe57610efd610b01565b5b600083013567ffffffffffffffff811115610f1c57610f1b610b06565b5b610f2885828601610c23565b9250506020610f3985828601610e47565b9150509250929050565b610f4c81610d22565b8114610f5757600080fd5b50565b600081359050610f6981610f43565b92915050565b600060c08284031215610f8557610f84610e05565b5b610f8f60c0610b86565b9050600082013567ffffffffffffffff811115610faf57610fae610e0a565b5b610fbb84828501610c23565b600083015250602082013567ffffffffffffffff811115610fdf57610fde610e0a565b5b610feb84828501610c23565b6020830152506040610fff84828501610f5a565b604083015250606082013567ffffffffffffffff81111561102357611022610e0a565b5b61102f84828501610c23565b606083015250608082013567ffffffffffffffff81111561105357611052610e0a565b5b61105f84828501610c23565b60808301525060a082013567ffffffffffffffff81111561108357611082610e0a565b5b61108f84828501610c23565b60a08301525092915050565b600080604083850312156110b2576110b1610b01565b5b600083013567ffffffffffffffff8111156110d0576110cf610b06565b5b6110dc85828601610c23565b925050602083013567ffffffffffffffff8111156110fd576110fc610b06565b5b61110985828601610f6f565b9150509250929050565b61111c81610e0f565b82525050565b60006020820190506111376000830184611113565b92915050565b6000806040838503121561115457611153610b01565b5b600083013567ffffffffffffffff81111561117257611171610b06565b5b61117e85828601610c23565b925050602083013567ffffffffffffffff81111561119f5761119e610b06565b5b6111ab85828601610c23565b9150509250929050565b600081905092915050565b60006111cb82610c9a565b6111d581856111b5565b93506111e5818560208601610cb6565b80840191505092915050565b60006111fd82846111c0565b915081905092915050565b7f4e487b7100000000000000000000000000000000000000000000000000000000600052602260045260246000fd5b6000600282049050600182168061124f57607f821691505b60208210810361126257611261611208565b5b50919050565b60008190508160005260206000209050919050565b60006020601f8301049050919050565b600082821b905092915050565b6000600883026112ca7fffffffffffffffffffffffffffffffffffffffffffffffffffffffffffffffff8261128d565b6112d4868361128d565b95508019841693508086168417925050509392505050565b6000819050919050565b6000819050919050565b600061131b611316611311846112ec565b6112f6565b6112ec565b9050919050565b6000819050919050565b61133583611300565b61134961134182611322565b84845461129a565b825550505050565b600090565b61135e611351565b61136981848461132c565b505050565b5b8181101561138d57611382600082611356565b60018101905061136f565b5050565b601f8211156113d2576113a381611268565b6113ac8461127d565b810160208510156113bb578190505b6113cf6113c78561127d565b83018261136e565b50505b505050565b600082821c905092915050565b60006113f5600019846008026113d7565b1980831691505092915050565b600061140e83836113e4565b9150826002028217905092915050565b61142782610c9a565b67ffffffffffffffff8111156114405761143f610b26565b5b61144a8254611237565b611455828285611391565b600060209050601f8311600181146114885760008415611476578287015190505b6114808582611402565b8655506114e8565b601f19841661149686611268565b60005b828110156114be57848901518255600182019150602085019450602081019050611499565b868310156114db57848901516114d7601f8916826113e4565b8355505b6001600288020188555050505b505050505050565b6000815490506114ff81611237565b9050919050565b8181036115145750506115ec565b61151d826114f0565b67ffffffffffffffff81111561153657611535610b26565b5b6115408254611237565b61154b828285611391565b6000601f83116001811461157a5760008415611568578287015490505b6115728582611402565b8655506115e5565b601f19841661158887611268565b965061159386611268565b60005b828110156115bb57848901548255600182019150600185019450602081019050611596565b868310156115d857848901546115d4601f8916826113e4565b8355505b6001600288020188555050505b5050505050505b56fea2646970667358221220911451e3ad5c5e10785525d5aced3e55678685f44eabb96eab8b11f95e02eacd64736f6c634300080f0033",
  "immutableReferences": {},
  "source": "// SPDX-License-Identifier: MIT\npragma solidity ^0.8.15;\n\nimport './IDID.sol';\n\ncontract DID is IDID {\n    mapping(string => User) private user;\n    mapping(string => bool) private registeredUser;\n\n        string gender;\n        string name;\n        uint8 age;\n        string addr;\n        string mobile;\n        string email;\n\n    function registerUser (string memory _hashedId, User memory _data) external{\n        require(!registeredUser[_hashedId]);\n        \n        User memory userObj;\n     \n        userObj.gender = _data.gender;\n        userObj.name = _data.name;\n        userObj.age = _data.age;\n        userObj.addr = _data.addr;\n        userObj.mobile = _data.mobile;\n        userObj.email = _data.email;\n\n        registeredUser[_hashedId] = true;\n        user[_hashedId] = _data;\n    }\n\n    function updatePassword (string memory _hashedId, string memory _hashedId_new)external{\n        require(isRegistered(_hashedId));\n        user[_hashedId_new] = user[_hashedId];\n        deleteUser(_hashedId);\n    }\n\n    function updateUser (string memory _hashedId, User memory _data) external{\n        require(registeredUser[_hashedId]);\n        User memory userObj;\n     \n        userObj.gender = _data.gender;\n        userObj.name = _data.name;\n        userObj.age = _data.age;\n        userObj.addr = _data.addr;\n        userObj.mobile = _data.mobile;\n        userObj.email = _data.email;\n\n        user[_hashedId] = userObj;\n    }\n\n    function deleteUser (string memory _hashedId) public{\n        require(registeredUser[_hashedId]);\n\n        delete user[_hashedId];\n        registeredUser[_hashedId] = false;\n    }\n    \n    function getUser(string memory _hashedId) view override public returns(User memory){\n        return user[_hashedId];        \n    }\n\n    function getVP(string memory _identifier, NeededUser memory _shouldSend) view external returns(User memory){\n        User memory userObj;\n        User memory VP;\n        userObj = getUser(_identifier);\n\n        if(_shouldSend.addr){\n            VP.addr = userObj.addr;\n        } \n        if(_shouldSend.gender){\n            VP.gender = userObj.gender;\n        } \n        if(_shouldSend.name){\n            VP.name = userObj.name;\n        } \n        if(_shouldSend.age){\n            VP.age = userObj.age ;\n        } \n        if(_shouldSend.mobile){\n            userObj.mobile = VP.mobile;\n        } \n        if(_shouldSend.email){\n            VP.email = userObj.email;\n        } \n        return VP;\n    }\n\n\n\n    function isRegistered(string memory _hashedId) view public returns(bool){\n        return registeredUser[_hashedId];\n    }\n}",
  "sourcePath": "/Users/ivy/Documents/workspace/projects/prac0831/Team_DAO/contract/contracts/DID.sol",
  "compiler": {
    "name": "solc",
    "version": "0.8.15+commit.e14f2714.Emscripten.clang"
  },
  "schemaVersion": "3.4.9",
  "updatedAt": "2022-08-31T01:18:01.763Z",
  "networkType": "ethereum",
  "devdoc": {
    "kind": "dev",
    "methods": {},
    "version": 1
  },
  "userdoc": {
    "kind": "user",
    "methods": {},
    "version": 1
  }
}