{
  "contractName": "DID",
  "abi": [
    {
      "inputs": [
        {
          "internalType": "string",
          "name": "_publicKey",
          "type": "string"
        }
      ],
      "stateMutability": "nonpayable",
      "type": "constructor"
    },
    {
      "inputs": [
        {
          "internalType": "string",
          "name": "_publicKey",
          "type": "string"
        },
        {
          "components": [
            {
              "internalType": "string",
              "name": "id",
              "type": "string"
            },
            {
              "internalType": "string",
              "name": "mobile",
              "type": "string"
            },
            {
              "internalType": "string",
              "name": "email",
              "type": "string"
            }
          ],
          "internalType": "struct IDID.User",
          "name": "_data",
          "type": "tuple"
        }
      ],
      "name": "registerUser",
      "outputs": [],
      "stateMutability": "nonpayable",
      "type": "function"
    },
    {
      "inputs": [
        {
          "internalType": "string",
          "name": "_publicKey",
          "type": "string"
        },
        {
          "components": [
            {
              "internalType": "string",
              "name": "id",
              "type": "string"
            },
            {
              "internalType": "string",
              "name": "mobile",
              "type": "string"
            },
            {
              "internalType": "string",
              "name": "email",
              "type": "string"
            }
          ],
          "internalType": "struct IDID.User",
          "name": "_data",
          "type": "tuple"
        }
      ],
      "name": "updateUser",
      "outputs": [],
      "stateMutability": "nonpayable",
      "type": "function"
    },
    {
      "inputs": [
        {
          "internalType": "string",
          "name": "_publicKey",
          "type": "string"
        }
      ],
      "name": "deleteUser",
      "outputs": [],
      "stateMutability": "nonpayable",
      "type": "function"
    },
    {
      "inputs": [
        {
          "internalType": "string",
          "name": "_publicKey",
          "type": "string"
        }
      ],
      "name": "getUser",
      "outputs": [
        {
          "components": [
            {
              "internalType": "string",
              "name": "id",
              "type": "string"
            },
            {
              "internalType": "string",
              "name": "mobile",
              "type": "string"
            },
            {
              "internalType": "string",
              "name": "email",
              "type": "string"
            }
          ],
          "internalType": "struct IDID.User",
          "name": "",
          "type": "tuple"
        }
      ],
      "stateMutability": "view",
      "type": "function",
      "constant": true
    },
    {
      "inputs": [
        {
          "internalType": "string",
          "name": "_publicKey",
          "type": "string"
        }
      ],
      "name": "isRegistered",
      "outputs": [
        {
          "internalType": "bool",
          "name": "",
          "type": "bool"
        }
      ],
      "stateMutability": "view",
      "type": "function",
      "constant": true
    }
  ],
  "bytecode": "0x60806040523480156200001157600080fd5b50604051620014bc380380620014bc833981810160405281019062000037919062000300565b60405180606001604052806040518060400160405280600381526020017f697679000000000000000000000000000000000000000000000000000000000081525081526020016040518060400160405280600b81526020017f303130313233343536373800000000000000000000000000000000000000000081525081526020016040518060400160405280601281526020017f79656c6c6f775f7740676d61696c2e636f6d00000000000000000000000000008152508152506000826040516200010391906200039e565b90815260200160405180910390206000820151816000019081620001289190620005f7565b506020820151816001019081620001409190620005f7565b506040820151816002019081620001589190620005f7565b5090505050620006de565b6000604051905090565b600080fd5b600080fd5b600080fd5b600080fd5b6000601f19601f8301169050919050565b7f4e487b7100000000000000000000000000000000000000000000000000000000600052604160045260246000fd5b620001cc8262000181565b810181811067ffffffffffffffff82111715620001ee57620001ed62000192565b5b80604052505050565b60006200020362000163565b9050620002118282620001c1565b919050565b600067ffffffffffffffff82111562000234576200023362000192565b5b6200023f8262000181565b9050602081019050919050565b60005b838110156200026c5780820151818401526020810190506200024f565b838111156200027c576000848401525b50505050565b600062000299620002938462000216565b620001f7565b905082815260208101848484011115620002b857620002b76200017c565b5b620002c58482856200024c565b509392505050565b600082601f830112620002e557620002e462000177565b5b8151620002f784826020860162000282565b91505092915050565b6000602082840312156200031957620003186200016d565b5b600082015167ffffffffffffffff8111156200033a576200033962000172565b5b6200034884828501620002cd565b91505092915050565b600081519050919050565b600081905092915050565b6000620003748262000351565b6200038081856200035c565b9350620003928185602086016200024c565b80840191505092915050565b6000620003ac828462000367565b915081905092915050565b7f4e487b7100000000000000000000000000000000000000000000000000000000600052602260045260246000fd5b60006002820490506001821680620003ff57607f821691505b602082108103620004155762000414620003b7565b5b50919050565b60008190508160005260206000209050919050565b60006020601f8301049050919050565b600082821b905092915050565b6000600883026200047f7fffffffffffffffffffffffffffffffffffffffffffffffffffffffffffffffff8262000440565b6200048b868362000440565b95508019841693508086168417925050509392505050565b6000819050919050565b6000819050919050565b6000620004d8620004d2620004cc84620004a3565b620004ad565b620004a3565b9050919050565b6000819050919050565b620004f483620004b7565b6200050c6200050382620004df565b8484546200044d565b825550505050565b600090565b6200052362000514565b62000530818484620004e9565b505050565b5b8181101562000558576200054c60008262000519565b60018101905062000536565b5050565b601f821115620005a75762000571816200041b565b6200057c8462000430565b810160208510156200058c578190505b620005a46200059b8562000430565b83018262000535565b50505b505050565b600082821c905092915050565b6000620005cc60001984600802620005ac565b1980831691505092915050565b6000620005e78383620005b9565b9150826002028217905092915050565b620006028262000351565b67ffffffffffffffff8111156200061e576200061d62000192565b5b6200062a8254620003e6565b620006378282856200055c565b600060209050601f8311600181146200066f57600084156200065a578287015190505b620006668582620005d9565b865550620006d6565b601f1984166200067f866200041b565b60005b82811015620006a95784890151825560018201915060208501945060208101905062000682565b86831015620006c95784890151620006c5601f891682620005b9565b8355505b6001600288020188555050505b505050505050565b610dce80620006ee6000396000f3fe608060405234801561001057600080fd5b50600436106100575760003560e01c8063170fc07d1461005c57806331feb671146100785780639a007b58146100a8578063c822d7f0146100c4578063d3695161146100f4575b600080fd5b6100766004803603810190610071919061085e565b610110565b005b610092600480360381019061008d91906108d6565b610214565b60405161009f9190610a05565b60405180910390f35b6100c260048036038101906100bd919061085e565b610402565b005b6100de60048036038101906100d991906108d6565b6104cf565b6040516100eb9190610a42565b60405180910390f35b61010e600480360381019061010991906108d6565b610504565b005b6001826040516101209190610a99565b908152602001604051809103902060009054906101000a900460ff161561014657600080fd5b61014e6105c4565b816000015181600001819052508160200151816020018190525081604001518160400181905250806000846040516101869190610a99565b908152602001604051809103902060008201518160000190816101a99190610cc6565b5060208201518160010190816101bf9190610cc6565b5060408201518160020190816101d59190610cc6565b50905050600180846040516101ea9190610a99565b908152602001604051809103902060006101000a81548160ff021916908315150217905550505050565b61021c6105c4565b60008260405161022c9190610a99565b908152602001604051809103902060405180606001604052908160008201805461025590610adf565b80601f016020809104026020016040519081016040528092919081815260200182805461028190610adf565b80156102ce5780601f106102a3576101008083540402835291602001916102ce565b820191906000526020600020905b8154815290600101906020018083116102b157829003601f168201915b505050505081526020016001820180546102e790610adf565b80601f016020809104026020016040519081016040528092919081815260200182805461031390610adf565b80156103605780601f1061033557610100808354040283529160200191610360565b820191906000526020600020905b81548152906001019060200180831161034357829003601f168201915b5050505050815260200160028201805461037990610adf565b80601f01602080910402602001604051908101604052809291908181526020018280546103a590610adf565b80156103f25780601f106103c7576101008083540402835291602001916103f2565b820191906000526020600020905b8154815290600101906020018083116103d557829003601f168201915b5050505050815250509050919050565b6001826040516104129190610a99565b908152602001604051809103902060009054906101000a900460ff1661043757600080fd5b61043f6105c4565b816000015181600001819052508160200151816020018190525081604001518160400181905250806000846040516104779190610a99565b9081526020016040518091039020600082015181600001908161049a9190610cc6565b5060208201518160010190816104b09190610cc6565b5060408201518160020190816104c69190610cc6565b50905050505050565b60006001826040516104e19190610a99565b908152602001604051809103902060009054906101000a900460ff169050919050565b6001816040516105149190610a99565b908152602001604051809103902060009054906101000a900460ff1661053957600080fd5b6000816040516105499190610a99565b90815260200160405180910390206000808201600061056891906105e5565b60018201600061057891906105e5565b60028201600061058891906105e5565b5050600060018260405161059c9190610a99565b908152602001604051809103902060006101000a81548160ff02191690831515021790555050565b60405180606001604052806060815260200160608152602001606081525090565b5080546105f190610adf565b6000825580601f106106035750610622565b601f0160209004906000526020600020908101906106219190610625565b5b50565b5b8082111561063e576000816000905550600101610626565b5090565b6000604051905090565b600080fd5b600080fd5b600080fd5b600080fd5b6000601f19601f8301169050919050565b7f4e487b7100000000000000000000000000000000000000000000000000000000600052604160045260246000fd5b6106a982610660565b810181811067ffffffffffffffff821117156106c8576106c7610671565b5b80604052505050565b60006106db610642565b90506106e782826106a0565b919050565b600067ffffffffffffffff82111561070757610706610671565b5b61071082610660565b9050602081019050919050565b82818337600083830152505050565b600061073f61073a846106ec565b6106d1565b90508281526020810184848401111561075b5761075a61065b565b5b61076684828561071d565b509392505050565b600082601f83011261078357610782610656565b5b813561079384826020860161072c565b91505092915050565b600080fd5b600080fd5b6000606082840312156107bc576107bb61079c565b5b6107c660606106d1565b9050600082013567ffffffffffffffff8111156107e6576107e56107a1565b5b6107f28482850161076e565b600083015250602082013567ffffffffffffffff811115610816576108156107a1565b5b6108228482850161076e565b602083015250604082013567ffffffffffffffff811115610846576108456107a1565b5b6108528482850161076e565b60408301525092915050565b600080604083850312156108755761087461064c565b5b600083013567ffffffffffffffff81111561089357610892610651565b5b61089f8582860161076e565b925050602083013567ffffffffffffffff8111156108c0576108bf610651565b5b6108cc858286016107a6565b9150509250929050565b6000602082840312156108ec576108eb61064c565b5b600082013567ffffffffffffffff81111561090a57610909610651565b5b6109168482850161076e565b91505092915050565b600081519050919050565b600082825260208201905092915050565b60005b8381101561095957808201518184015260208101905061093e565b83811115610968576000848401525b50505050565b60006109798261091f565b610983818561092a565b935061099381856020860161093b565b61099c81610660565b840191505092915050565b600060608301600083015184820360008601526109c4828261096e565b915050602083015184820360208601526109de828261096e565b915050604083015184820360408601526109f8828261096e565b9150508091505092915050565b60006020820190508181036000830152610a1f81846109a7565b905092915050565b60008115159050919050565b610a3c81610a27565b82525050565b6000602082019050610a576000830184610a33565b92915050565b600081905092915050565b6000610a738261091f565b610a7d8185610a5d565b9350610a8d81856020860161093b565b80840191505092915050565b6000610aa58284610a68565b915081905092915050565b7f4e487b7100000000000000000000000000000000000000000000000000000000600052602260045260246000fd5b60006002820490506001821680610af757607f821691505b602082108103610b0a57610b09610ab0565b5b50919050565b60008190508160005260206000209050919050565b60006020601f8301049050919050565b600082821b905092915050565b600060088302610b727fffffffffffffffffffffffffffffffffffffffffffffffffffffffffffffffff82610b35565b610b7c8683610b35565b95508019841693508086168417925050509392505050565b6000819050919050565b6000819050919050565b6000610bc3610bbe610bb984610b94565b610b9e565b610b94565b9050919050565b6000819050919050565b610bdd83610ba8565b610bf1610be982610bca565b848454610b42565b825550505050565b600090565b610c06610bf9565b610c11818484610bd4565b505050565b5b81811015610c3557610c2a600082610bfe565b600181019050610c17565b5050565b601f821115610c7a57610c4b81610b10565b610c5484610b25565b81016020851015610c63578190505b610c77610c6f85610b25565b830182610c16565b50505b505050565b600082821c905092915050565b6000610c9d60001984600802610c7f565b1980831691505092915050565b6000610cb68383610c8c565b9150826002028217905092915050565b610ccf8261091f565b67ffffffffffffffff811115610ce857610ce7610671565b5b610cf28254610adf565b610cfd828285610c39565b600060209050601f831160018114610d305760008415610d1e578287015190505b610d288582610caa565b865550610d90565b601f198416610d3e86610b10565b60005b82811015610d6657848901518255600182019150602085019450602081019050610d41565b86831015610d835784890151610d7f601f891682610c8c565b8355505b6001600288020188555050505b50505050505056fea26469706673582212200ee919f85736a7123035a745ed38f82fa45c222323dad3f48aad851440e6d3f164736f6c634300080f0033",
  "immutableReferences": {},
  "source": "// SPDX-License-Identifier: MIT\npragma solidity ^0.8.15;\n\nimport './IDID.sol';\n\ncontract DID is IDID {\n    mapping(string => User) private user;\n    mapping(string => bool) private registeredUser;\n\n    constructor(string memory _publicKey){\n        user[_publicKey] = User('ivy','01012345678','yellow_w@gmail.com');\n    }\n\n    function registerUser (string memory _publicKey ,User memory _data) external{\n        require(!registeredUser[_publicKey]);\n        User memory userObj;\n\n        userObj.id = _data.id;\n        userObj.mobile = _data.mobile;\n        userObj.email = _data.email;\n\n        user[_publicKey] = userObj;\n        registeredUser[_publicKey] = true;\n\n    }\n\n    function updateUser (string memory _publicKey, User memory _data) external{\n        require(registeredUser[_publicKey]);\n        User memory userObj;\n\n        userObj.id = _data.id;\n        userObj.mobile = _data.mobile;\n        userObj.email = _data.email;\n\n        user[_publicKey] = userObj;\n    }\n\n    function deleteUser (string memory _publicKey) external{\n        require(registeredUser[_publicKey]);\n\n        delete user[_publicKey];\n        registeredUser[_publicKey] = false;\n    }\n    \n    function getUser (string memory _publicKey) view external returns(User memory){\n        return user[_publicKey];\n    }\n\n    function isRegistered(string memory _publicKey) view public returns(bool){\n        return registeredUser[_publicKey];\n    }\n}",
  "sourcePath": "/Users/ivy/Documents/workspace/projects/last/DID/contracts/DID.sol",
  "compiler": {
    "name": "solc",
    "version": "0.8.15+commit.e14f2714.Emscripten.clang"
  },
  "schemaVersion": "3.4.9",
  "updatedAt": "2022-08-18T08:58:46.098Z",
  "networkType": "ethereum",
  "devdoc": {
    "kind": "dev",
    "methods": {},
    "version": 1
  },
  "userdoc": {
    "kind": "user",
    "methods": {},
    "version": 1
  }
}