{
  "contractName": "DID",
  "abi": [
    {
      "inputs": [
        {
          "internalType": "string",
          "name": "_hashedId",
          "type": "string"
        },
        {
          "components": [
            {
              "internalType": "string",
              "name": "gender",
              "type": "string"
            },
            {
              "internalType": "string",
              "name": "name",
              "type": "string"
            },
            {
              "internalType": "uint8",
              "name": "age",
              "type": "uint8"
            },
            {
              "internalType": "string",
              "name": "addr",
              "type": "string"
            },
            {
              "internalType": "string",
              "name": "mobile",
              "type": "string"
            },
            {
              "internalType": "string",
              "name": "email",
              "type": "string"
            }
          ],
          "internalType": "struct IDID.User",
          "name": "_data",
          "type": "tuple"
        }
      ],
      "name": "registerUser",
      "outputs": [],
      "stateMutability": "nonpayable",
      "type": "function"
    },
    {
      "inputs": [
        {
          "internalType": "string",
          "name": "_hashedId",
          "type": "string"
        },
        {
          "internalType": "string",
          "name": "_hashedId_new",
          "type": "string"
        }
      ],
      "name": "updatePassword",
      "outputs": [],
      "stateMutability": "nonpayable",
      "type": "function"
    },
    {
      "inputs": [
        {
          "internalType": "string",
          "name": "_hashedId",
          "type": "string"
        },
        {
          "components": [
            {
              "internalType": "string",
              "name": "gender",
              "type": "string"
            },
            {
              "internalType": "string",
              "name": "name",
              "type": "string"
            },
            {
              "internalType": "uint8",
              "name": "age",
              "type": "uint8"
            },
            {
              "internalType": "string",
              "name": "addr",
              "type": "string"
            },
            {
              "internalType": "string",
              "name": "mobile",
              "type": "string"
            },
            {
              "internalType": "string",
              "name": "email",
              "type": "string"
            }
          ],
          "internalType": "struct IDID.User",
          "name": "_data",
          "type": "tuple"
        }
      ],
      "name": "updateUser",
      "outputs": [],
      "stateMutability": "nonpayable",
      "type": "function"
    },
    {
      "inputs": [
        {
          "internalType": "string",
          "name": "_hashedId",
          "type": "string"
        }
      ],
      "name": "deleteUser",
      "outputs": [],
      "stateMutability": "nonpayable",
      "type": "function"
    },
    {
      "inputs": [
        {
          "internalType": "string",
          "name": "_hashedId",
          "type": "string"
        }
      ],
      "name": "getUser",
      "outputs": [
        {
          "components": [
            {
              "internalType": "string",
              "name": "gender",
              "type": "string"
            },
            {
              "internalType": "string",
              "name": "name",
              "type": "string"
            },
            {
              "internalType": "uint8",
              "name": "age",
              "type": "uint8"
            },
            {
              "internalType": "string",
              "name": "addr",
              "type": "string"
            },
            {
              "internalType": "string",
              "name": "mobile",
              "type": "string"
            },
            {
              "internalType": "string",
              "name": "email",
              "type": "string"
            }
          ],
          "internalType": "struct IDID.User",
          "name": "",
          "type": "tuple"
        }
      ],
      "stateMutability": "view",
      "type": "function",
      "constant": true
    },
    {
      "inputs": [
        {
          "internalType": "string",
          "name": "_identifier",
          "type": "string"
        },
        {
          "components": [
            {
              "internalType": "bool",
              "name": "gender",
              "type": "bool"
            },
            {
              "internalType": "bool",
              "name": "name",
              "type": "bool"
            },
            {
              "internalType": "bool",
              "name": "age",
              "type": "bool"
            },
            {
              "internalType": "bool",
              "name": "addr",
              "type": "bool"
            },
            {
              "internalType": "bool",
              "name": "mobile",
              "type": "bool"
            },
            {
              "internalType": "bool",
              "name": "email",
              "type": "bool"
            }
          ],
          "internalType": "struct IDID.NeededUser",
          "name": "_shouldSend",
          "type": "tuple"
        }
      ],
      "name": "getVP",
      "outputs": [
        {
          "components": [
            {
              "internalType": "string",
              "name": "gender",
              "type": "string"
            },
            {
              "internalType": "string",
              "name": "name",
              "type": "string"
            },
            {
              "internalType": "uint8",
              "name": "age",
              "type": "uint8"
            },
            {
              "internalType": "string",
              "name": "addr",
              "type": "string"
            },
            {
              "internalType": "string",
              "name": "mobile",
              "type": "string"
            },
            {
              "internalType": "string",
              "name": "email",
              "type": "string"
            }
          ],
          "internalType": "struct IDID.User",
          "name": "",
          "type": "tuple"
        }
      ],
      "stateMutability": "view",
      "type": "function",
      "constant": true
    },
    {
      "inputs": [
        {
          "internalType": "string",
          "name": "_hashedId",
          "type": "string"
        }
      ],
      "name": "isRegistered",
      "outputs": [
        {
          "internalType": "bool",
          "name": "",
          "type": "bool"
        }
      ],
      "stateMutability": "view",
      "type": "function",
      "constant": true
    }
  ],
  "bytecode": "0x608060405234801561001057600080fd5b50611603806100206000396000f3fe608060405234801561001057600080fd5b506004361061007d5760003560e01c8063c822d7f01161005b578063c822d7f0146100fe578063cdfbb3511461012e578063d36951611461014a578063f2c53250146101665761007d565b806331feb67114610082578063680ff0d5146100b25780638142b2e4146100e2575b600080fd5b61009c60048036038101906100979190610c30565b610182565b6040516100a99190610dc2565b60405180910390f35b6100cc60048036038101906100c79190610ec6565b6104b1565b6040516100d99190610dc2565b60405180910390f35b6100fc60048036038101906100f7919061107a565b61058a565b005b61011860048036038101906101139190610c30565b6106e8565b6040516101259190611101565b60405180910390f35b6101486004803603810190610143919061111c565b61071d565b005b610164600480360381019061015f9190610c30565b610848565b005b610180600480360381019061017b919061107a565b610919565b005b61018a610a40565b60008260405161019a91906111d0565b90815260200160405180910390206040518060c00160405290816000820180546101c390611216565b80601f01602080910402602001604051908101604052809291908181526020018280546101ef90611216565b801561023c5780601f106102115761010080835404028352916020019161023c565b820191906000526020600020905b81548152906001019060200180831161021f57829003601f168201915b5050505050815260200160018201805461025590611216565b80601f016020809104026020016040519081016040528092919081815260200182805461028190611216565b80156102ce5780601f106102a3576101008083540402835291602001916102ce565b820191906000526020600020905b8154815290600101906020018083116102b157829003601f168201915b505050505081526020016002820160009054906101000a900460ff1660ff1660ff16815260200160038201805461030490611216565b80601f016020809104026020016040519081016040528092919081815260200182805461033090611216565b801561037d5780601f106103525761010080835404028352916020019161037d565b820191906000526020600020905b81548152906001019060200180831161036057829003601f168201915b5050505050815260200160048201805461039690611216565b80601f01602080910402602001604051908101604052809291908181526020018280546103c290611216565b801561040f5780601f106103e45761010080835404028352916020019161040f565b820191906000526020600020905b8154815290600101906020018083116103f257829003601f168201915b5050505050815260200160058201805461042890611216565b80601f016020809104026020016040519081016040528092919081815260200182805461045490611216565b80156104a15780601f10610476576101008083540402835291602001916104a1565b820191906000526020600020905b81548152906001019060200180831161048457829003601f168201915b5050505050815250509050919050565b6104b9610a40565b6104c2836106e8565b6104cb57600080fd5b6104d3610a40565b6104db610a40565b6104e485610182565b91508360600151156104fe57816060015181606001819052505b83600001511561051657816000015181600001819052505b83602001511561052e57816020015181602001819052505b83604001511561054f578160400151816040019060ff16908160ff16815250505b83608001511561056757816080015181608001819052505b8360a001511561057f578160a001518160a001819052505b809250505092915050565b610593826106e8565b1561059d57600080fd5b6105a5610a40565b81600001518160000181905250816020015181602001819052508160400151816040019060ff16908160ff168152505081606001518160600181905250816080015181608001819052508160a001518160a001819052506001808460405161060d91906111d0565b908152602001604051809103902060006101000a81548160ff0219169083151502179055508160008460405161064391906111d0565b9081526020016040518091039020600082015181600001908161066691906113fd565b50602082015181600101908161067c91906113fd565b5060408201518160020160006101000a81548160ff021916908360ff16021790555060608201518160030190816106b391906113fd565b5060808201518160040190816106c991906113fd565b5060a08201518160050190816106df91906113fd565b50905050505050565b60006001826040516106fa91906111d0565b908152602001604051809103902060009054906101000a900460ff169050919050565b610726826106e8565b61072f57600080fd5b60008260405161073f91906111d0565b908152602001604051809103902060008260405161075d91906111d0565b90815260200160405180910390206000820181600001908161077f91906114e5565b506001820181600101908161079491906114e5565b506002820160009054906101000a900460ff168160020160006101000a81548160ff021916908360ff160217905550600382018160030190816107d791906114e5565b50600482018160040190816107ec91906114e5565b506005820181600501908161080191906114e5565b509050506001808260405161081691906111d0565b908152602001604051809103902060006101000a81548160ff02191690831515021790555061084482610848565b5050565b610851816106e8565b61085a57600080fd5b60008160405161086a91906111d0565b9081526020016040518091039020600080820160006108899190610a79565b6001820160006108999190610a79565b6002820160006101000a81549060ff02191690556003820160006108bd9190610a79565b6004820160006108cd9190610a79565b6005820160006108dd9190610a79565b505060006001826040516108f191906111d0565b908152602001604051809103902060006101000a81548160ff02191690831515021790555050565b610922826106e8565b61092b57600080fd5b610933610a40565b81600001518160000181905250816020015181602001819052508160400151816040019060ff16908160ff168152505081606001518160600181905250816080015181608001819052508160a001518160a001819052508060008460405161099b91906111d0565b908152602001604051809103902060008201518160000190816109be91906113fd565b5060208201518160010190816109d491906113fd565b5060408201518160020160006101000a81548160ff021916908360ff1602179055506060820151816003019081610a0b91906113fd565b506080820151816004019081610a2191906113fd565b5060a0820151816005019081610a3791906113fd565b50905050505050565b6040518060c001604052806060815260200160608152602001600060ff1681526020016060815260200160608152602001606081525090565b508054610a8590611216565b6000825580601f10610a975750610ab6565b601f016020900490600052602060002090810190610ab59190610ab9565b5b50565b5b80821115610ad2576000816000905550600101610aba565b5090565b6000604051905090565b600080fd5b600080fd5b600080fd5b600080fd5b6000601f19601f8301169050919050565b7f4e487b7100000000000000000000000000000000000000000000000000000000600052604160045260246000fd5b610b3d82610af4565b810181811067ffffffffffffffff82111715610b5c57610b5b610b05565b5b80604052505050565b6000610b6f610ad6565b9050610b7b8282610b34565b919050565b600067ffffffffffffffff821115610b9b57610b9a610b05565b5b610ba482610af4565b9050602081019050919050565b82818337600083830152505050565b6000610bd3610bce84610b80565b610b65565b905082815260208101848484011115610bef57610bee610aef565b5b610bfa848285610bb1565b509392505050565b600082601f830112610c1757610c16610aea565b5b8135610c27848260208601610bc0565b91505092915050565b600060208284031215610c4657610c45610ae0565b5b600082013567ffffffffffffffff811115610c6457610c63610ae5565b5b610c7084828501610c02565b91505092915050565b600081519050919050565b600082825260208201905092915050565b60005b83811015610cb3578082015181840152602081019050610c98565b83811115610cc2576000848401525b50505050565b6000610cd382610c79565b610cdd8185610c84565b9350610ced818560208601610c95565b610cf681610af4565b840191505092915050565b600060ff82169050919050565b610d1781610d01565b82525050565b600060c0830160008301518482036000860152610d3a8282610cc8565b91505060208301518482036020860152610d548282610cc8565b9150506040830151610d696040860182610d0e565b5060608301518482036060860152610d818282610cc8565b91505060808301518482036080860152610d9b8282610cc8565b91505060a083015184820360a0860152610db58282610cc8565b9150508091505092915050565b60006020820190508181036000830152610ddc8184610d1d565b905092915050565b600080fd5b600080fd5b60008115159050919050565b610e0381610dee565b8114610e0e57600080fd5b50565b600081359050610e2081610dfa565b92915050565b600060c08284031215610e3c57610e3b610de4565b5b610e4660c0610b65565b90506000610e5684828501610e11565b6000830152506020610e6a84828501610e11565b6020830152506040610e7e84828501610e11565b6040830152506060610e9284828501610e11565b6060830152506080610ea684828501610e11565b60808301525060a0610eba84828501610e11565b60a08301525092915050565b60008060e08385031215610edd57610edc610ae0565b5b600083013567ffffffffffffffff811115610efb57610efa610ae5565b5b610f0785828601610c02565b9250506020610f1885828601610e26565b9150509250929050565b610f2b81610d01565b8114610f3657600080fd5b50565b600081359050610f4881610f22565b92915050565b600060c08284031215610f6457610f63610de4565b5b610f6e60c0610b65565b9050600082013567ffffffffffffffff811115610f8e57610f8d610de9565b5b610f9a84828501610c02565b600083015250602082013567ffffffffffffffff811115610fbe57610fbd610de9565b5b610fca84828501610c02565b6020830152506040610fde84828501610f39565b604083015250606082013567ffffffffffffffff81111561100257611001610de9565b5b61100e84828501610c02565b606083015250608082013567ffffffffffffffff81111561103257611031610de9565b5b61103e84828501610c02565b60808301525060a082013567ffffffffffffffff81111561106257611061610de9565b5b61106e84828501610c02565b60a08301525092915050565b6000806040838503121561109157611090610ae0565b5b600083013567ffffffffffffffff8111156110af576110ae610ae5565b5b6110bb85828601610c02565b925050602083013567ffffffffffffffff8111156110dc576110db610ae5565b5b6110e885828601610f4e565b9150509250929050565b6110fb81610dee565b82525050565b600060208201905061111660008301846110f2565b92915050565b6000806040838503121561113357611132610ae0565b5b600083013567ffffffffffffffff81111561115157611150610ae5565b5b61115d85828601610c02565b925050602083013567ffffffffffffffff81111561117e5761117d610ae5565b5b61118a85828601610c02565b9150509250929050565b600081905092915050565b60006111aa82610c79565b6111b48185611194565b93506111c4818560208601610c95565b80840191505092915050565b60006111dc828461119f565b915081905092915050565b7f4e487b7100000000000000000000000000000000000000000000000000000000600052602260045260246000fd5b6000600282049050600182168061122e57607f821691505b602082108103611241576112406111e7565b5b50919050565b60008190508160005260206000209050919050565b60006020601f8301049050919050565b600082821b905092915050565b6000600883026112a97fffffffffffffffffffffffffffffffffffffffffffffffffffffffffffffffff8261126c565b6112b3868361126c565b95508019841693508086168417925050509392505050565b6000819050919050565b6000819050919050565b60006112fa6112f56112f0846112cb565b6112d5565b6112cb565b9050919050565b6000819050919050565b611314836112df565b61132861132082611301565b848454611279565b825550505050565b600090565b61133d611330565b61134881848461130b565b505050565b5b8181101561136c57611361600082611335565b60018101905061134e565b5050565b601f8211156113b15761138281611247565b61138b8461125c565b8101602085101561139a578190505b6113ae6113a68561125c565b83018261134d565b50505b505050565b600082821c905092915050565b60006113d4600019846008026113b6565b1980831691505092915050565b60006113ed83836113c3565b9150826002028217905092915050565b61140682610c79565b67ffffffffffffffff81111561141f5761141e610b05565b5b6114298254611216565b611434828285611370565b600060209050601f8311600181146114675760008415611455578287015190505b61145f85826113e1565b8655506114c7565b601f19841661147586611247565b60005b8281101561149d57848901518255600182019150602085019450602081019050611478565b868310156114ba57848901516114b6601f8916826113c3565b8355505b6001600288020188555050505b505050505050565b6000815490506114de81611216565b9050919050565b8181036114f35750506115cb565b6114fc826114cf565b67ffffffffffffffff81111561151557611514610b05565b5b61151f8254611216565b61152a828285611370565b6000601f8311600181146115595760008415611547578287015490505b61155185826113e1565b8655506115c4565b601f19841661156787611247565b965061157286611247565b60005b8281101561159a57848901548255600182019150600185019450602081019050611575565b868310156115b757848901546115b3601f8916826113c3565b8355505b6001600288020188555050505b5050505050505b56fea26469706673582212207e99cbf9e1e168d07bb28f66f0ebafd9bbc890581d8187ea036b44de06a2d5ed64736f6c634300080f0033",
  "immutableReferences": {},
  "source": "// SPDX-License-Identifier: MIT\npragma solidity ^0.8.15;\n\nimport \"./IDID.sol\";\n\ncontract DID is IDID {\n    mapping(string => User) private user;\n    mapping(string => bool) private registeredUser;\n\n    string gender;\n    string name;\n    uint8 age;\n    string addr;\n    string mobile;\n    string email;\n\n    function registerUser(string memory _hashedId, User memory _data) external {\n        require(!isRegistered(_hashedId));\n\n        User memory userObj;\n\n        userObj.gender = _data.gender;\n        userObj.name = _data.name;\n        userObj.age = _data.age;\n        userObj.addr = _data.addr;\n        userObj.mobile = _data.mobile;\n        userObj.email = _data.email;\n\n        registeredUser[_hashedId] = true;\n        user[_hashedId] = _data;\n    }\n\n    function updatePassword(\n        string memory _hashedId,\n        string memory _hashedId_new\n    ) external {\n        require(isRegistered(_hashedId));\n        user[_hashedId_new] = user[_hashedId];\n        registeredUser[_hashedId_new] = true;\n        deleteUser(_hashedId);\n    }\n\n    function updateUser(string memory _hashedId, User memory _data) external {\n        require(isRegistered(_hashedId));\n        User memory userObj;\n\n        userObj.gender = _data.gender;\n        userObj.name = _data.name;\n        userObj.age = _data.age;\n        userObj.addr = _data.addr;\n        userObj.mobile = _data.mobile;\n        userObj.email = _data.email;\n\n        user[_hashedId] = userObj;\n    }\n\n    function deleteUser(string memory _hashedId) public {\n        require(isRegistered(_hashedId));\n\n        delete user[_hashedId];\n        registeredUser[_hashedId] = false;\n    }\n\n    function getUser(string memory _hashedId)\n        public\n        view\n        override\n        returns (User memory)\n    {\n        return user[_hashedId];\n    }\n\n    function getVP(string memory _identifier, NeededUser memory _shouldSend)\n        external\n        view\n        returns (User memory)\n    {\n        require(isRegistered(_identifier));\n        User memory userObj;\n        User memory VP;\n        userObj = getUser(_identifier);\n\n        if (_shouldSend.addr) {\n            VP.addr = userObj.addr;\n        }\n        if (_shouldSend.gender) {\n            VP.gender = userObj.gender;\n        }\n        if (_shouldSend.name) {\n            VP.name = userObj.name;\n        }\n        if (_shouldSend.age) {\n            VP.age = userObj.age;\n        }\n        if (_shouldSend.mobile) {\n            VP.mobile = userObj.mobile;\n        }\n        if (_shouldSend.email) {\n            VP.email = userObj.email;\n        }\n        return VP;\n    }\n\n    function isRegistered(string memory _hashedId) public view returns (bool) {\n        return registeredUser[_hashedId];\n    }\n}\n",
  "sourcePath": "/Users/ansuhwan/project/Team_DAO/truffle/contracts/DID.sol",
  "compiler": {
    "name": "solc",
    "version": "0.8.15+commit.e14f2714.Emscripten.clang"
  },
  "schemaVersion": "3.4.5",
  "updatedAt": "2022-09-20T02:49:23.227Z",
  "networkType": "ethereum",
  "devdoc": {
    "kind": "dev",
    "methods": {},
    "version": 1
  },
  "userdoc": {
    "kind": "user",
    "methods": {},
    "version": 1
  }
}